{
    "contractName": "Accounts",
    "abi": [
        {
            "inputs": [
                {
                    "internalType": "address",
                    "name": "_new_admin_address",
                    "type": "address"
                }
            ],
            "name": "add_admin",
            "outputs": [],
            "stateMutability": "nonpayable",
            "type": "function"
        },
        {
            "inputs": [
                {
                    "internalType": "string",
                    "name": "_login",
                    "type": "string"
                },
                {
                    "internalType": "string",
                    "name": "_name",
                    "type": "string"
                },
                {
                    "internalType": "string",
                    "name": "_password",
                    "type": "string"
                }
            ],
            "name": "add_customer",
            "outputs": [],
            "stateMutability": "nonpayable",
            "type": "function"
        },
        {
            "inputs": [
                {
                    "internalType": "address payable",
                    "name": "_shop_address",
                    "type": "address"
                },
                {
                    "internalType": "string",
                    "name": "_name",
                    "type": "string"
                },
                {
                    "internalType": "string",
                    "name": "_city",
                    "type": "string"
                }
            ],
            "name": "add_shop",
            "outputs": [],
            "stateMutability": "nonpayable",
            "type": "function"
        },
        {
            "inputs": [
                {
                    "internalType": "string",
                    "name": "",
                    "type": "string"
                }
            ],
            "name": "address_per_login",
            "outputs": [
                {
                    "internalType": "address",
                    "name": "",
                    "type": "address"
                }
            ],
            "stateMutability": "view",
            "type": "function"
        },
        {
            "inputs": [
                {
                    "internalType": "address",
                    "name": "",
                    "type": "address"
                }
            ],
            "name": "admins",
            "outputs": [
                {
                    "internalType": "string",
                    "name": "login",
                    "type": "string"
                },
                {
                    "internalType": "string",
                    "name": "name",
                    "type": "string"
                }
            ],
            "stateMutability": "view",
            "type": "function"
        },
        {
            "inputs": [
                {
                    "internalType": "address",
                    "name": "_shop_address",
                    "type": "address"
                },
                {
                    "internalType": "uint256",
                    "name": "value",
                    "type": "uint256"
                }
            ],
            "name": "ask_bank",
            "outputs": [],
            "stateMutability": "nonpayable",
            "type": "function"
        },
        {
            "inputs": [],
            "name": "ask_for_down",
            "outputs": [],
            "stateMutability": "nonpayable",
            "type": "function"
        },
        {
            "inputs": [
                {
                    "internalType": "address",
                    "name": "_shop_address",
                    "type": "address"
                }
            ],
            "name": "ask_for_up",
            "outputs": [],
            "stateMutability": "nonpayable",
            "type": "function"
        },
        {
            "inputs": [
                {
                    "internalType": "address",
                    "name": "",
                    "type": "address"
                }
            ],
            "name": "asks_bank",
            "outputs": [
                {
                    "internalType": "uint256",
                    "name": "",
                    "type": "uint256"
                }
            ],
            "stateMutability": "view",
            "type": "function"
        },
        {
            "inputs": [
                {
                    "internalType": "address",
                    "name": "",
                    "type": "address"
                }
            ],
            "name": "asks_for_down",
            "outputs": [
                {
                    "internalType": "address",
                    "name": "",
                    "type": "address"
                }
            ],
            "stateMutability": "view",
            "type": "function"
        },
        {
            "inputs": [
                {
                    "internalType": "address",
                    "name": "",
                    "type": "address"
                }
            ],
            "name": "asks_for_up",
            "outputs": [
                {
                    "internalType": "address",
                    "name": "",
                    "type": "address"
                }
            ],
            "stateMutability": "view",
            "type": "function"
        },
        {
            "inputs": [
                {
                    "internalType": "string",
                    "name": "_login",
                    "type": "string"
                },
                {
                    "internalType": "string",
                    "name": "_password",
                    "type": "string"
                }
            ],
            "name": "check_auth_data",
            "outputs": [
                {
                    "internalType": "bool",
                    "name": "",
                    "type": "bool"
                }
            ],
            "stateMutability": "view",
            "type": "function"
        },
        {
            "inputs": [
                {
                    "internalType": "string",
                    "name": "_bank_name",
                    "type": "string"
                },
                {
                    "internalType": "address",
                    "name": "_bank_address",
                    "type": "address"
                }
            ],
            "name": "create_bank_account",
            "outputs": [],
            "stateMutability": "nonpayable",
            "type": "function"
        },
        {
            "inputs": [
                {
                    "internalType": "address",
                    "name": "",
                    "type": "address"
                }
            ],
            "name": "customers",
            "outputs": [
                {
                    "internalType": "string",
                    "name": "login",
                    "type": "string"
                },
                {
                    "internalType": "string",
                    "name": "name",
                    "type": "string"
                }
            ],
            "stateMutability": "view",
            "type": "function"
        },
        {
            "inputs": [
                {
                    "internalType": "address",
                    "name": "_seller_address",
                    "type": "address"
                }
            ],
            "name": "down_role",
            "outputs": [],
            "stateMutability": "nonpayable",
            "type": "function"
        },
        {
            "inputs": [
                {
                    "internalType": "address",
                    "name": "_admin_address",
                    "type": "address"
                }
            ],
            "name": "get_admin",
            "outputs": [
                {
                    "components": [
                        {
                            "internalType": "string",
                            "name": "login",
                            "type": "string"
                        },
                        {
                            "internalType": "string",
                            "name": "name",
                            "type": "string"
                        }
                    ],
                    "internalType": "struct Accounts.Admin",
                    "name": "",
                    "type": "tuple"
                }
            ],
            "stateMutability": "view",
            "type": "function"
        },
        {
            "inputs": [
                {
                    "internalType": "address",
                    "name": "_shop_address",
                    "type": "address"
                }
            ],
            "name": "get_ask_bank",
            "outputs": [
                {
                    "internalType": "uint256",
                    "name": "",
                    "type": "uint256"
                }
            ],
            "stateMutability": "view",
            "type": "function"
        },
        {
            "inputs": [
                {
                    "internalType": "address",
                    "name": "_customer_address",
                    "type": "address"
                }
            ],
            "name": "get_ask_for_down",
            "outputs": [
                {
                    "internalType": "address",
                    "name": "",
                    "type": "address"
                }
            ],
            "stateMutability": "view",
            "type": "function"
        },
        {
            "inputs": [
                {
                    "internalType": "address",
                    "name": "_customer_address",
                    "type": "address"
                }
            ],
            "name": "get_ask_for_up",
            "outputs": [
                {
                    "internalType": "address",
                    "name": "",
                    "type": "address"
                }
            ],
            "stateMutability": "view",
            "type": "function"
        },
        {
            "inputs": [
                {
                    "internalType": "address",
                    "name": "_customer_address",
                    "type": "address"
                }
            ],
            "name": "get_customer",
            "outputs": [
                {
                    "components": [
                        {
                            "internalType": "string",
                            "name": "login",
                            "type": "string"
                        },
                        {
                            "internalType": "string",
                            "name": "name",
                            "type": "string"
                        }
                    ],
                    "internalType": "struct Accounts.Customer",
                    "name": "",
                    "type": "tuple"
                }
            ],
            "stateMutability": "view",
            "type": "function"
        },
        {
            "inputs": [
                {
                    "internalType": "address",
                    "name": "_shop_address",
                    "type": "address"
                }
            ],
            "name": "get_debt",
            "outputs": [
                {
                    "internalType": "uint256",
                    "name": "",
                    "type": "uint256"
                }
            ],
            "stateMutability": "view",
            "type": "function"
        },
        {
            "inputs": [
                {
                    "internalType": "address",
                    "name": "_user_address",
                    "type": "address"
                }
            ],
            "name": "get_role",
            "outputs": [
                {
                    "internalType": "string",
                    "name": "",
                    "type": "string"
                }
            ],
            "stateMutability": "view",
            "type": "function"
        },
        {
            "inputs": [
                {
                    "internalType": "address",
                    "name": "_shop_address",
                    "type": "address"
                }
            ],
            "name": "get_shop",
            "outputs": [
                {
                    "components": [
                        {
                            "internalType": "string",
                            "name": "name",
                            "type": "string"
                        },
                        {
                            "internalType": "string",
                            "name": "city",
                            "type": "string"
                        },
                        {
                            "internalType": "address[]",
                            "name": "shop_sellers",
                            "type": "address[]"
                        },
                        {
                            "internalType": "uint16",
                            "name": "rate",
                            "type": "uint16"
                        },
                        {
                            "internalType": "uint256",
                            "name": "using_reviews",
                            "type": "uint256"
                        }
                    ],
                    "internalType": "struct Accounts.Shop",
                    "name": "",
                    "type": "tuple"
                }
            ],
            "stateMutability": "view",
            "type": "function"
        },
        {
            "inputs": [],
            "name": "get_users",
            "outputs": [
                {
                    "internalType": "address[]",
                    "name": "",
                    "type": "address[]"
                }
            ],
            "stateMutability": "view",
            "type": "function"
        },
        {
            "inputs": [
                {
                    "internalType": "address",
                    "name": "",
                    "type": "address"
                }
            ],
            "name": "providers",
            "outputs": [
                {
                    "internalType": "string",
                    "name": "name",
                    "type": "string"
                }
            ],
            "stateMutability": "view",
            "type": "function"
        },
        {
            "inputs": [
                {
                    "internalType": "address",
                    "name": "",
                    "type": "address"
                }
            ],
            "name": "role_per_address",
            "outputs": [
                {
                    "internalType": "enum Accounts.Role",
                    "name": "",
                    "type": "uint8"
                }
            ],
            "stateMutability": "view",
            "type": "function"
        },
        {
            "inputs": [
                {
                    "internalType": "address",
                    "name": "",
                    "type": "address"
                }
            ],
            "name": "sellers",
            "outputs": [
                {
                    "internalType": "string",
                    "name": "login",
                    "type": "string"
                },
                {
                    "internalType": "string",
                    "name": "name",
                    "type": "string"
                },
                {
                    "internalType": "string",
                    "name": "city",
                    "type": "string"
                },
                {
                    "internalType": "address",
                    "name": "shop_address",
                    "type": "address"
                }
            ],
            "stateMutability": "view",
            "type": "function"
        },
        {
            "inputs": [
                {
                    "internalType": "address",
                    "name": "_shop_address",
                    "type": "address"
                }
            ],
            "name": "send_money",
            "outputs": [],
            "stateMutability": "payable",
            "type": "function"
        },
        {
            "inputs": [
                {
                    "internalType": "address",
                    "name": "",
                    "type": "address"
                }
            ],
            "name": "shops",
            "outputs": [
                {
                    "internalType": "string",
                    "name": "name",
                    "type": "string"
                },
                {
                    "internalType": "string",
                    "name": "city",
                    "type": "string"
                },
                {
                    "internalType": "uint16",
                    "name": "rate",
                    "type": "uint16"
                },
                {
                    "internalType": "uint256",
                    "name": "using_reviews",
                    "type": "uint256"
                }
            ],
            "stateMutability": "view",
            "type": "function"
        },
        {
            "inputs": [
                {
                    "internalType": "address",
                    "name": "_customer_address",
                    "type": "address"
                }
            ],
            "name": "up_role",
            "outputs": [],
            "stateMutability": "nonpayable",
            "type": "function"
        },
        {
            "inputs": [
                {
                    "internalType": "uint256",
                    "name": "",
                    "type": "uint256"
                }
            ],
            "name": "users",
            "outputs": [
                {
                    "internalType": "address",
                    "name": "",
                    "type": "address"
                }
            ],
            "stateMutability": "view",
            "type": "function"
        }
    ],
    "bytecode": "608060405234801561001057600080fd5b506123f3806100206000396000f3fe6080604052600436106101d85760003560e01c80634559c60e11610102578063bf7cb88c11610095578063e51679f411610064578063e51679f41461070a578063ed66aa1b1461072a578063f14c316a1461074c578063ff003da81461076c57600080fd5b8063bf7cb88c14610642578063c341cc211461067b578063dea1f0dc1461069b578063e324093b146106d457600080fd5b806378232aac116100d157806378232aac14610546578063831454db1461059457806396888ea0146105d1578063b3b2baae1461060157600080fd5b80634559c60e146104a05780634c2c79dc146104cd5780635433ee09146104e05780636d47ab721461051657600080fd5b8063336989ae1161017a5780633cdce7dd116101495780633cdce7dd14610406578063429b62e51461042657806344a373d71461044657806344a7361a1461047357600080fd5b8063336989ae146103495780633417b81914610377578063365b98b2146103ae57806339c22db8146103e657600080fd5b806321002e19116101b657806321002e1914610279578063214f61d3146102af5780632dca1fcc146102f95780632e2f14ab1461032957600080fd5b80630787bc27146101dd5780630ce649971461021357806313a070b714610257575b600080fd5b3480156101e957600080fd5b506101fd6101f8366004611da2565b61078c565b60405161020a9190611e1e565b60405180910390f35b34801561021f57600080fd5b5061024961022e366004611da2565b6001600160a01b031660009081526006602052604090205490565b60405190815260200161020a565b34801561026357600080fd5b50610277610272366004611da2565b61082a565b005b34801561028557600080fd5b50610249610294366004611da2565b6001600160a01b031660009081526009602052604090205490565b3480156102bb57600080fd5b506102776102ca366004611da2565b33600090815260046020526040902080546001600160a01b0319166001600160a01b0392909216919091179055565b34801561030557600080fd5b50610319610314366004611da2565b6109e0565b60405161020a9493929190611e31565b34801561033557600080fd5b50610277610344366004611f11565b610b1d565b34801561035557600080fd5b50610369610364366004611da2565b610c4c565b60405161020a929190611f99565b34801561038357600080fd5b50610277610392366004611fc7565b6001600160a01b03909116600090815260066020526040902055565b3480156103ba57600080fd5b506103ce6103c9366004611ff3565b610d78565b6040516001600160a01b03909116815260200161020a565b3480156103f257600080fd5b506101fd610401366004611da2565b610da2565b34801561041257600080fd5b50610277610421366004611da2565b610f58565b34801561043257600080fd5b50610369610441366004611da2565b6110cb565b34801561045257600080fd5b50610249610461366004611da2565b60066020526000908152604090205481565b34801561047f57600080fd5b5061049361048e366004611da2565b6110e6565b60405161020a919061200c565b3480156104ac57600080fd5b506104c06104bb366004611da2565b6112e3565b60405161020a91906120e7565b6102776104db366004611da2565b611443565b3480156104ec57600080fd5b506103ce6104fb366004611da2565b6005602052600090815260409020546001600160a01b031681565b34801561052257600080fd5b50610536610531366004611da2565b6114a2565b60405161020a94939291906120fa565b34801561055257600080fd5b50610277336000908152600c6020908152604080832060030154600590925290912080546001600160a01b0319166001600160a01b0392909216919091179055565b3480156105a057600080fd5b506105c46105af366004611da2565b60016020526000908152604090205460ff1681565b60405161020a9190612163565b3480156105dd57600080fd5b506105f16105ec36600461218b565b61166b565b604051901515815260200161020a565b34801561060d57600080fd5b506103ce61061c3660046121ef565b80516020818301810180516003825292820191909301209152546001600160a01b031681565b34801561064e57600080fd5b506103ce61065d366004611da2565b6001600160a01b039081166000908152600460205260409020541690565b34801561068757600080fd5b506104c0610696366004611da2565b6116bd565b3480156106a757600080fd5b506103ce6106b6366004611da2565b6001600160a01b039081166000908152600560205260409020541690565b3480156106e057600080fd5b506103ce6106ef366004611da2565b6004602052600090815260409020546001600160a01b031681565b34801561071657600080fd5b5061027761072536600461222c565b611702565b34801561073657600080fd5b5061073f61183e565b60405161020a9190612269565b34801561075857600080fd5b50610277610767366004611da2565b6118a0565b34801561077857600080fd5b506102776107873660046122b6565b611bbb565b600b602052600090815260409020805481906107a790612308565b80601f01602080910402602001604051908101604052809291908181526020018280546107d390612308565b80156108205780601f106107f557610100808354040283529160200191610820565b820191906000526020600020905b81548152906001019060200180831161080357829003601f168201915b5050505050905081565b6040805180820182526001600160a01b0383166000908152600d60205291909120805482919061085990612308565b80601f016020809104026020016040519081016040528092919081815260200182805461088590612308565b80156108d25780601f106108a7576101008083540402835291602001916108d2565b820191906000526020600020905b8154815290600101906020018083116108b557829003601f168201915b50505050508152602001600d6000846001600160a01b03166001600160a01b03168152602001908152602001600020600101805461090f90612308565b80601f016020809104026020016040519081016040528092919081815260200182805461093b90612308565b80156109885780601f1061095d57610100808354040283529160200191610988565b820191906000526020600020905b81548152906001019060200180831161096b57829003601f168201915b5050509190925250506001600160a01b0382166000908152600e602090815260409091208251805191926109c192849290910190611c9c565b5060208281015180516109da9260018501920190611c9c565b50505050565b600a602052600090815260409020805481906109fb90612308565b80601f0160208091040260200160405190810160405280929190818152602001828054610a2790612308565b8015610a745780601f10610a4957610100808354040283529160200191610a74565b820191906000526020600020905b815481529060010190602001808311610a5757829003601f168201915b505050505090806001018054610a8990612308565b80601f0160208091040260200160405190810160405280929190818152602001828054610ab590612308565b8015610b025780601f10610ad757610100808354040283529160200191610b02565b820191906000526020600020905b815481529060010190602001808311610ae557829003601f168201915b505050506003830154600490930154919261ffff1691905084565b6040805180820182528481526020808201859052336000908152600d8252929092208151805192939192610b549284920190611c9c565b506020828101518051610b6d9260018501920190611c9c565b5050604051610b8191508290602001611e1e565b60405160208183030381529060405280519060200120600284604051610ba79190612343565b9081526040805191829003602090810183209390935533600081815260019094529220805460ff19166004179055600390610be3908690612343565b90815260405190819003602001902080546001600160a01b03929092166001600160a01b0319928316179055600080546001810182559080527f290decd9548b62a8d60345a988386fc84ba6bc95484008f6362f93160ef3e56301805490911633179055505050565b600d60205260009081526040902080548190610c6790612308565b80601f0160208091040260200160405190810160405280929190818152602001828054610c9390612308565b8015610ce05780601f10610cb557610100808354040283529160200191610ce0565b820191906000526020600020905b815481529060010190602001808311610cc357829003601f168201915b505050505090806001018054610cf590612308565b80601f0160208091040260200160405190810160405280929190818152602001828054610d2190612308565b8015610d6e5780601f10610d4357610100808354040283529160200191610d6e565b820191906000526020600020905b815481529060010190602001808311610d5157829003601f168201915b5050505050905082565b60008181548110610d8857600080fd5b6000918252602090912001546001600160a01b0316905081565b6001600160a01b03811660009081526001602052604081205460609160ff90911690816006811115610dd657610dd661214d565b1415610dfe57505060408051808201909152600481526362616e6b60e01b6020820152919050565b6001816006811115610e1257610e1261214d565b1415610e3a575050604080518082019091526004815263073686f760e41b6020820152919050565b6002816006811115610e4e57610e4e61214d565b1415610e7a575050604080518082019091526008815267383937bb34b232b960c11b6020820152919050565b6003816006811115610e8e57610e8e61214d565b1415610eb857505060408051808201909152600681526539b2b63632b960d11b6020820152919050565b6004816006811115610ecc57610ecc61214d565b1415610ef857505060408051808201909152600881526731bab9ba37b6b2b960c11b6020820152919050565b6005816006811115610f0c57610f0c61214d565b1415610f3557505060408051808201909152600581526430b236b4b760d91b6020820152919050565b505060408051808201909152600581526419dd595cdd60da1b6020820152919050565b6001600160a01b038082166000908152600560205260408120549091610f7f911683611c1c565b6001600160a01b038381166000818152600560209081526040808320549094168252600a81528382209282526001905291909120805460ff19166004179055600201805491925090819083908110610fd957610fd961235f565b600091825260209091200180546001600160a01b0319169055805481906110029060019061238b565b815481106110125761101261235f565b9060005260206000200160009054906101000a90046001600160a01b03168183815481106110425761104261235f565b600091825260209091200180546001600160a01b0319166001600160a01b03929092169190911790558054819061107b9060019061238b565b8154811061108b5761108b61235f565b6000918252602080832090910180546001600160a01b03199081169091556001600160a01b03959095168252600590526040902080549093169092555050565b600e60205260009081526040902080548190610c6790612308565b61111c6040518060a00160405280606081526020016060815260200160608152602001600061ffff168152602001600081525090565b6001600160a01b0382166000908152600a602052604090819020815160a0810190925280548290829061114e90612308565b80601f016020809104026020016040519081016040528092919081815260200182805461117a90612308565b80156111c75780601f1061119c576101008083540402835291602001916111c7565b820191906000526020600020905b8154815290600101906020018083116111aa57829003601f168201915b505050505081526020016001820180546111e090612308565b80601f016020809104026020016040519081016040528092919081815260200182805461120c90612308565b80156112595780601f1061122e57610100808354040283529160200191611259565b820191906000526020600020905b81548152906001019060200180831161123c57829003601f168201915b50505050508152602001600282018054806020026020016040519081016040528092919081815260200182805480156112bb57602002820191906000526020600020905b81546001600160a01b0316815260019091019060200180831161129d575b5050509183525050600382015461ffff16602082015260049091015460409091015292915050565b60408051808201909152606080825260208201526001600160a01b0382166000908152600e602052604090819020815180830190925280548290829061132890612308565b80601f016020809104026020016040519081016040528092919081815260200182805461135490612308565b80156113a15780601f10611376576101008083540402835291602001916113a1565b820191906000526020600020905b81548152906001019060200180831161138457829003601f168201915b505050505081526020016001820180546113ba90612308565b80601f01602080910402602001604051908101604052809291908181526020018280546113e690612308565b80156114335780601f1061140857610100808354040283529160200191611433565b820191906000526020600020905b81548152906001019060200180831161141657829003601f168201915b5050505050815250509050919050565b6001600160a01b0381166000818152600960205260408082203490819055905181156108fc0292818181858888f19350505050158015611487573d6000803e3d6000fd5b506001600160a01b0316600090815260066020526040812055565b600c602052600090815260409020805481906114bd90612308565b80601f01602080910402602001604051908101604052809291908181526020018280546114e990612308565b80156115365780601f1061150b57610100808354040283529160200191611536565b820191906000526020600020905b81548152906001019060200180831161151957829003601f168201915b50505050509080600101805461154b90612308565b80601f016020809104026020016040519081016040528092919081815260200182805461157790612308565b80156115c45780601f10611599576101008083540402835291602001916115c4565b820191906000526020600020905b8154815290600101906020018083116115a757829003601f168201915b5050505050908060020180546115d990612308565b80601f016020809104026020016040519081016040528092919081815260200182805461160590612308565b80156116525780601f1061162757610100808354040283529160200191611652565b820191906000526020600020905b81548152906001019060200180831161163557829003601f168201915b505050600390930154919250506001600160a01b031684565b60008160405160200161167e9190611e1e565b604051602081830303815290604052805190602001206002846040516116a49190612343565b9081526020016040518091039020541490505b92915050565b60408051808201909152606080825260208201526001600160a01b0382166000908152600d602052604090819020815180830190925280548290829061132890612308565b6117386040518060a00160405280606081526020016060815260200160608152602001600061ffff168152602001600081525090565b8281526020808201839052600060608301819052608083018190526001600160a01b0386168152600a82526040902082518051849361177b928492910190611c9c565b5060208281015180516117949260018501920190611c9c565b50604082015180516117b0916002840191602090910190611d20565b50606082015160038201805461ffff191661ffff9092169190911790556080909101516004909101555050506001600160a01b031660008181526001602081905260408220805460ff191682179055815490810182559080527f290decd9548b62a8d60345a988386fc84ba6bc95484008f6362f93160ef3e5630180546001600160a01b0319169091179055565b6060600080548060200260200160405190810160405280929190818152602001828054801561189657602002820191906000526020600020905b81546001600160a01b03168152600190910190602001808311611878575b5050505050905090565b6001600160a01b038082166000908152600460209081526040808320548151608081018352600d90935292208054929093169290918291906118e190612308565b80601f016020809104026020016040519081016040528092919081815260200182805461190d90612308565b801561195a5780601f1061192f5761010080835404028352916020019161195a565b820191906000526020600020905b81548152906001019060200180831161193d57829003601f168201915b50505050508152602001600d6000856001600160a01b03166001600160a01b03168152602001908152602001600020600101805461199790612308565b80601f01602080910402602001604051908101604052809291908181526020018280546119c390612308565b8015611a105780601f106119e557610100808354040283529160200191611a10565b820191906000526020600020905b8154815290600101906020018083116119f357829003601f168201915b50505050508152602001600a6000846001600160a01b03166001600160a01b031681526020019081526020016000206001018054611a4d90612308565b80601f0160208091040260200160405190810160405280929190818152602001828054611a7990612308565b8015611ac65780601f10611a9b57610100808354040283529160200191611ac6565b820191906000526020600020905b815481529060010190602001808311611aa957829003601f168201915b50505091835250506001600160a01b0380841660209283015284166000908152600c825260409020825180519192611b0392849290910190611c9c565b506020828101518051611b1c9260018501920190611c9c565b5060408201518051611b38916002840191602090910190611c9c565b5060609190910151600391820180546001600160a01b039283166001600160a01b0319918216179091559381166000818152600160208181526040808420805460ff1916909717909655959093168152600a8552838120600201805493840181558152848120909201805486168217905581526004909252902080549091169055565b604080518082019091528281526001600160a01b0382166020808301919091528351600791611bee918391870190611c9c565b5060209190910151600190910180546001600160a01b0319166001600160a01b039092169190911790555050565b6001600160a01b0382166000908152600a60205260408120600201815b8154811015611c9457836001600160a01b0316828281548110611c5e57611c5e61235f565b6000918252602090912001546001600160a01b03161415611c825791506116b79050565b80611c8c816123a2565b915050611c39565b505092915050565b828054611ca890612308565b90600052602060002090601f016020900481019282611cca5760008555611d10565b82601f10611ce357805160ff1916838001178555611d10565b82800160010185558215611d10579182015b82811115611d10578251825591602001919060010190611cf5565b50611d1c929150611d75565b5090565b828054828255906000526020600020908101928215611d10579160200282015b82811115611d1057825182546001600160a01b0319166001600160a01b03909116178255602090920191600190910190611d40565b5b80821115611d1c5760008155600101611d76565b6001600160a01b0381168114611d9f57600080fd5b50565b600060208284031215611db457600080fd5b8135611dbf81611d8a565b9392505050565b60005b83811015611de1578181015183820152602001611dc9565b838111156109da5750506000910152565b60008151808452611e0a816020860160208601611dc6565b601f01601f19169290920160200192915050565b602081526000611dbf6020830184611df2565b608081526000611e446080830187611df2565b8281036020840152611e568187611df2565b61ffff95909516604084015250506060015292915050565b634e487b7160e01b600052604160045260246000fd5b600082601f830112611e9557600080fd5b813567ffffffffffffffff80821115611eb057611eb0611e6e565b604051601f8301601f19908116603f01168101908282118183101715611ed857611ed8611e6e565b81604052838152866020858801011115611ef157600080fd5b836020870160208301376000602085830101528094505050505092915050565b600080600060608486031215611f2657600080fd5b833567ffffffffffffffff80821115611f3e57600080fd5b611f4a87838801611e84565b94506020860135915080821115611f6057600080fd5b611f6c87838801611e84565b93506040860135915080821115611f8257600080fd5b50611f8f86828701611e84565b9150509250925092565b604081526000611fac6040830185611df2565b8281036020840152611fbe8185611df2565b95945050505050565b60008060408385031215611fda57600080fd5b8235611fe581611d8a565b946020939093013593505050565b60006020828403121561200557600080fd5b5035919050565b60006020808352835160a08285015261202860c0850182611df2565b905081850151601f19808684030160408701526120458383611df2565b6040880151878203909201606088015281518082529185019350600092508401905b808310156120905783516001600160a01b03168252928401926001929092019190840190612067565b50606087015161ffff811660808801529350608087015160a08701528094505050505092915050565b60008151604084526120ce6040850182611df2565b905060208301518482036020860152611fbe8282611df2565b602081526000611dbf60208301846120b9565b60808152600061210d6080830187611df2565b828103602084015261211f8187611df2565b905082810360408401526121338186611df2565b91505060018060a01b038316606083015295945050505050565b634e487b7160e01b600052602160045260246000fd5b602081016007831061218557634e487b7160e01b600052602160045260246000fd5b91905290565b6000806040838503121561219e57600080fd5b823567ffffffffffffffff808211156121b657600080fd5b6121c286838701611e84565b935060208501359150808211156121d857600080fd5b506121e585828601611e84565b9150509250929050565b60006020828403121561220157600080fd5b813567ffffffffffffffff81111561221857600080fd5b61222484828501611e84565b949350505050565b60008060006060848603121561224157600080fd5b833561224c81611d8a565b9250602084013567ffffffffffffffff80821115611f6057600080fd5b6020808252825182820181905260009190848201906040850190845b818110156122aa5783516001600160a01b031683529284019291840191600101612285565b50909695505050505050565b600080604083850312156122c957600080fd5b823567ffffffffffffffff8111156122e057600080fd5b6122ec85828601611e84565b92505060208301356122fd81611d8a565b809150509250929050565b600181811c9082168061231c57607f821691505b6020821081141561233d57634e487b7160e01b600052602260045260246000fd5b50919050565b60008251612355818460208701611dc6565b9190910192915050565b634e487b7160e01b600052603260045260246000fd5b634e487b7160e01b600052601160045260246000fd5b60008282101561239d5761239d612375565b500390565b60006000198214156123b6576123b6612375565b506001019056fea2646970667358221220754ac181459b5c2ec82aea59bd1b36618bf85f1fc9ac80ee51a4b098fcedef8364736f6c63430008090033",
    "sourcePath": "/home/morimaroo17/work/blockchain_work/solidity_work/prepare/contracts/Accounts.sol",
    "compiler": {
        "name": "solc",
        "version": "0.8.9+commit.e5eed63a"
    },
    "functionHashes": {
        "add_admin(address)": "13a070b7",
        "add_customer(string,string,string)": "2e2f14ab",
        "add_shop(address,string,string)": "e51679f4",
        "address_per_login(string)": "b3b2baae",
        "admins(address)": "429b62e5",
        "ask_bank(address,uint256)": "3417b819",
        "ask_for_down()": "78232aac",
        "ask_for_up(address)": "214f61d3",
        "asks_bank(address)": "44a373d7",
        "asks_for_down(address)": "5433ee09",
        "asks_for_up(address)": "e324093b",
        "check_auth_data(string,string)": "96888ea0",
        "create_bank_account(string,address)": "ff003da8",
        "customers(address)": "336989ae",
        "down_role(address)": "3cdce7dd",
        "get_admin(address)": "4559c60e",
        "get_ask_bank(address)": "0ce64997",
        "get_ask_for_down(address)": "dea1f0dc",
        "get_ask_for_up(address)": "bf7cb88c",
        "get_customer(address)": "c341cc21",
        "get_debt(address)": "21002e19",
        "get_role(address)": "39c22db8",
        "get_shop(address)": "44a7361a",
        "get_users()": "ed66aa1b",
        "providers(address)": "0787bc27",
        "role_per_address(address)": "831454db",
        "sellers(address)": "6d47ab72",
        "send_money(address)": "4c2c79dc",
        "shops(address)": "2dca1fcc",
        "up_role(address)": "f14c316a",
        "users(uint256)": "365b98b2"
    },
    "gasEstimates": {
        "creation": {
            "codeDepositCost": "1840600",
            "executionCost": "1941",
            "totalCost": "1842541"
        },
        "external": {
            "add_admin(address)": "infinite",
            "add_customer(string,string,string)": "infinite",
            "add_shop(address,string,string)": "infinite",
            "address_per_login(string)": "infinite",
            "admins(address)": "infinite",
            "ask_bank(address,uint256)": "22566",
            "ask_for_down()": "26689",
            "ask_for_up(address)": "24689",
            "asks_bank(address)": "2602",
            "asks_for_down(address)": "2642",
            "asks_for_up(address)": "2663",
            "check_auth_data(string,string)": "infinite",
            "create_bank_account(string,address)": "infinite",
            "customers(address)": "infinite",
            "down_role(address)": "infinite",
            "get_admin(address)": "infinite",
            "get_ask_bank(address)": "2600",
            "get_ask_for_down(address)": "2650",
            "get_ask_for_up(address)": "2606",
            "get_customer(address)": "infinite",
            "get_debt(address)": "2577",
            "get_role(address)": "infinite",
            "get_shop(address)": "infinite",
            "get_users()": "infinite",
            "providers(address)": "infinite",
            "role_per_address(address)": "2633",
            "sellers(address)": "infinite",
            "send_money(address)": "infinite",
            "shops(address)": "infinite",
            "up_role(address)": "infinite",
            "users(uint256)": "4704"
        },
        "internal": {
            "get_seller_index(address,address)": "infinite"
        }
    }
}