{
    "contractName": "Accounts",
    "abi": [
        {
            "inputs": [
                {
                    "internalType": "address",
                    "name": "_new_admin_address",
                    "type": "address"
                }
            ],
            "name": "add_admin",
            "outputs": [],
            "stateMutability": "nonpayable",
            "type": "function"
        },
        {
            "inputs": [
                {
                    "internalType": "string",
                    "name": "_login",
                    "type": "string"
                },
                {
                    "internalType": "string",
                    "name": "_name",
                    "type": "string"
                },
                {
                    "internalType": "string",
                    "name": "_password",
                    "type": "string"
                }
            ],
            "name": "add_customer",
            "outputs": [],
            "stateMutability": "nonpayable",
            "type": "function"
        },
        {
            "inputs": [
                {
                    "internalType": "address payable",
                    "name": "_shop_address",
                    "type": "address"
                },
                {
                    "internalType": "string",
                    "name": "_name",
                    "type": "string"
                },
                {
                    "internalType": "string",
                    "name": "_city",
                    "type": "string"
                },
                {
                    "internalType": "string",
                    "name": "_password",
                    "type": "string"
                }
            ],
            "name": "add_shop",
            "outputs": [],
            "stateMutability": "nonpayable",
            "type": "function"
        },
        {
            "inputs": [
                {
                    "internalType": "string",
                    "name": "",
                    "type": "string"
                }
            ],
            "name": "address_per_login",
            "outputs": [
                {
                    "internalType": "address",
                    "name": "",
                    "type": "address"
                }
            ],
            "stateMutability": "view",
            "type": "function"
        },
        {
            "inputs": [
                {
                    "internalType": "address",
                    "name": "",
                    "type": "address"
                }
            ],
            "name": "admins",
            "outputs": [
                {
                    "internalType": "string",
                    "name": "login",
                    "type": "string"
                },
                {
                    "internalType": "string",
                    "name": "name",
                    "type": "string"
                }
            ],
            "stateMutability": "view",
            "type": "function"
        },
        {
            "inputs": [
                {
                    "internalType": "address",
                    "name": "_shop_address",
                    "type": "address"
                },
                {
                    "internalType": "uint256",
                    "name": "value",
                    "type": "uint256"
                }
            ],
            "name": "ask_bank",
            "outputs": [],
            "stateMutability": "nonpayable",
            "type": "function"
        },
        {
            "inputs": [],
            "name": "ask_for_down",
            "outputs": [],
            "stateMutability": "nonpayable",
            "type": "function"
        },
        {
            "inputs": [
                {
                    "internalType": "address",
                    "name": "_shop_address",
                    "type": "address"
                }
            ],
            "name": "ask_for_up",
            "outputs": [],
            "stateMutability": "nonpayable",
            "type": "function"
        },
        {
            "inputs": [
                {
                    "internalType": "address",
                    "name": "",
                    "type": "address"
                }
            ],
            "name": "asks_bank",
            "outputs": [
                {
                    "internalType": "uint256",
                    "name": "",
                    "type": "uint256"
                }
            ],
            "stateMutability": "view",
            "type": "function"
        },
        {
            "inputs": [
                {
                    "internalType": "address",
                    "name": "",
                    "type": "address"
                }
            ],
            "name": "asks_for_down",
            "outputs": [
                {
                    "internalType": "address",
                    "name": "",
                    "type": "address"
                }
            ],
            "stateMutability": "view",
            "type": "function"
        },
        {
            "inputs": [
                {
                    "internalType": "address",
                    "name": "",
                    "type": "address"
                }
            ],
            "name": "asks_for_up",
            "outputs": [
                {
                    "internalType": "address",
                    "name": "",
                    "type": "address"
                }
            ],
            "stateMutability": "view",
            "type": "function"
        },
        {
            "inputs": [
                {
                    "internalType": "string",
                    "name": "_login",
                    "type": "string"
                },
                {
                    "internalType": "string",
                    "name": "_password",
                    "type": "string"
                }
            ],
            "name": "check_auth_data",
            "outputs": [
                {
                    "internalType": "bool",
                    "name": "",
                    "type": "bool"
                }
            ],
            "stateMutability": "view",
            "type": "function"
        },
        {
            "inputs": [
                {
                    "internalType": "string",
                    "name": "_bank_name",
                    "type": "string"
                },
                {
                    "internalType": "address",
                    "name": "_bank_address",
                    "type": "address"
                },
                {
                    "internalType": "string",
                    "name": "_password",
                    "type": "string"
                }
            ],
            "name": "create_bank_account",
            "outputs": [],
            "stateMutability": "nonpayable",
            "type": "function"
        },
        {
            "inputs": [
                {
                    "internalType": "address",
                    "name": "",
                    "type": "address"
                }
            ],
            "name": "customers",
            "outputs": [
                {
                    "internalType": "string",
                    "name": "login",
                    "type": "string"
                },
                {
                    "internalType": "string",
                    "name": "name",
                    "type": "string"
                }
            ],
            "stateMutability": "view",
            "type": "function"
        },
        {
            "inputs": [
                {
                    "internalType": "address",
                    "name": "_shop_address",
                    "type": "address"
                }
            ],
            "name": "delete_shop",
            "outputs": [],
            "stateMutability": "nonpayable",
            "type": "function"
        },
        {
            "inputs": [
                {
                    "internalType": "address",
                    "name": "_seller_address",
                    "type": "address"
                }
            ],
            "name": "down_role",
            "outputs": [],
            "stateMutability": "nonpayable",
            "type": "function"
        },
        {
            "inputs": [
                {
                    "internalType": "address",
                    "name": "_admin_address",
                    "type": "address"
                }
            ],
            "name": "get_admin",
            "outputs": [
                {
                    "components": [
                        {
                            "internalType": "string",
                            "name": "login",
                            "type": "string"
                        },
                        {
                            "internalType": "string",
                            "name": "name",
                            "type": "string"
                        }
                    ],
                    "internalType": "struct Accounts.Admin",
                    "name": "",
                    "type": "tuple"
                }
            ],
            "stateMutability": "view",
            "type": "function"
        },
        {
            "inputs": [
                {
                    "internalType": "address",
                    "name": "_shop_address",
                    "type": "address"
                }
            ],
            "name": "get_ask_bank",
            "outputs": [
                {
                    "internalType": "uint256",
                    "name": "",
                    "type": "uint256"
                }
            ],
            "stateMutability": "view",
            "type": "function"
        },
        {
            "inputs": [
                {
                    "internalType": "address",
                    "name": "_customer_address",
                    "type": "address"
                }
            ],
            "name": "get_ask_for_down",
            "outputs": [
                {
                    "internalType": "address",
                    "name": "",
                    "type": "address"
                }
            ],
            "stateMutability": "view",
            "type": "function"
        },
        {
            "inputs": [
                {
                    "internalType": "address",
                    "name": "_customer_address",
                    "type": "address"
                }
            ],
            "name": "get_ask_for_up",
            "outputs": [
                {
                    "internalType": "address",
                    "name": "",
                    "type": "address"
                }
            ],
            "stateMutability": "view",
            "type": "function"
        },
        {
            "inputs": [],
            "name": "get_bank",
            "outputs": [
                {
                    "components": [
                        {
                            "internalType": "string",
                            "name": "name",
                            "type": "string"
                        },
                        {
                            "internalType": "address",
                            "name": "bank_address",
                            "type": "address"
                        }
                    ],
                    "internalType": "struct Accounts.Bank",
                    "name": "",
                    "type": "tuple"
                }
            ],
            "stateMutability": "view",
            "type": "function"
        },
        {
            "inputs": [
                {
                    "internalType": "address",
                    "name": "_customer_address",
                    "type": "address"
                }
            ],
            "name": "get_customer",
            "outputs": [
                {
                    "components": [
                        {
                            "internalType": "string",
                            "name": "login",
                            "type": "string"
                        },
                        {
                            "internalType": "string",
                            "name": "name",
                            "type": "string"
                        }
                    ],
                    "internalType": "struct Accounts.Customer",
                    "name": "",
                    "type": "tuple"
                }
            ],
            "stateMutability": "view",
            "type": "function"
        },
        {
            "inputs": [
                {
                    "internalType": "address",
                    "name": "_shop_address",
                    "type": "address"
                }
            ],
            "name": "get_debt",
            "outputs": [
                {
                    "internalType": "uint256",
                    "name": "",
                    "type": "uint256"
                }
            ],
            "stateMutability": "view",
            "type": "function"
        },
        {
            "inputs": [
                {
                    "internalType": "address",
                    "name": "_user_address",
                    "type": "address"
                }
            ],
            "name": "get_role",
            "outputs": [
                {
                    "internalType": "string",
                    "name": "",
                    "type": "string"
                }
            ],
            "stateMutability": "view",
            "type": "function"
        },
        {
            "inputs": [
                {
                    "internalType": "address",
                    "name": "_shop_address",
                    "type": "address"
                }
            ],
            "name": "get_shop",
            "outputs": [
                {
                    "components": [
                        {
                            "internalType": "string",
                            "name": "name",
                            "type": "string"
                        },
                        {
                            "internalType": "string",
                            "name": "city",
                            "type": "string"
                        },
                        {
                            "internalType": "address[]",
                            "name": "shop_sellers",
                            "type": "address[]"
                        },
                        {
                            "internalType": "uint16",
                            "name": "rate",
                            "type": "uint16"
                        },
                        {
                            "internalType": "uint256",
                            "name": "using_reviews",
                            "type": "uint256"
                        }
                    ],
                    "internalType": "struct Accounts.Shop",
                    "name": "",
                    "type": "tuple"
                }
            ],
            "stateMutability": "view",
            "type": "function"
        },
        {
            "inputs": [],
            "name": "get_users",
            "outputs": [
                {
                    "internalType": "address[]",
                    "name": "",
                    "type": "address[]"
                }
            ],
            "stateMutability": "view",
            "type": "function"
        },
        {
            "inputs": [
                {
                    "internalType": "address",
                    "name": "",
                    "type": "address"
                }
            ],
            "name": "providers",
            "outputs": [
                {
                    "internalType": "string",
                    "name": "name",
                    "type": "string"
                }
            ],
            "stateMutability": "view",
            "type": "function"
        },
        {
            "inputs": [
                {
                    "internalType": "address",
                    "name": "",
                    "type": "address"
                }
            ],
            "name": "role_per_address",
            "outputs": [
                {
                    "internalType": "enum Accounts.Role",
                    "name": "",
                    "type": "uint8"
                }
            ],
            "stateMutability": "view",
            "type": "function"
        },
        {
            "inputs": [
                {
                    "internalType": "address",
                    "name": "",
                    "type": "address"
                }
            ],
            "name": "sellers",
            "outputs": [
                {
                    "internalType": "string",
                    "name": "login",
                    "type": "string"
                },
                {
                    "internalType": "string",
                    "name": "name",
                    "type": "string"
                },
                {
                    "internalType": "string",
                    "name": "city",
                    "type": "string"
                },
                {
                    "internalType": "address",
                    "name": "shop_address",
                    "type": "address"
                }
            ],
            "stateMutability": "view",
            "type": "function"
        },
        {
            "inputs": [
                {
                    "internalType": "address",
                    "name": "_shop_address",
                    "type": "address"
                }
            ],
            "name": "send_money",
            "outputs": [],
            "stateMutability": "payable",
            "type": "function"
        },
        {
            "inputs": [
                {
                    "internalType": "address",
                    "name": "",
                    "type": "address"
                }
            ],
            "name": "shops",
            "outputs": [
                {
                    "internalType": "string",
                    "name": "name",
                    "type": "string"
                },
                {
                    "internalType": "string",
                    "name": "city",
                    "type": "string"
                },
                {
                    "internalType": "uint16",
                    "name": "rate",
                    "type": "uint16"
                },
                {
                    "internalType": "uint256",
                    "name": "using_reviews",
                    "type": "uint256"
                }
            ],
            "stateMutability": "view",
            "type": "function"
        },
        {
            "inputs": [
                {
                    "internalType": "address",
                    "name": "_customer_address",
                    "type": "address"
                }
            ],
            "name": "up_role",
            "outputs": [],
            "stateMutability": "nonpayable",
            "type": "function"
        },
        {
            "inputs": [
                {
                    "internalType": "uint256",
                    "name": "",
                    "type": "uint256"
                }
            ],
            "name": "users",
            "outputs": [
                {
                    "internalType": "address",
                    "name": "",
                    "type": "address"
                }
            ],
            "stateMutability": "view",
            "type": "function"
        }
    ],
    "bytecode": "608060405234801561001057600080fd5b5061294b806100206000396000f3fe6080604052600436106101ee5760003560e01c806344a7361a1161010d578063831454db116100a0578063c341cc211161006f578063c341cc2114610713578063dea1f0dc14610733578063e324093b1461076c578063ed66aa1b146107a2578063f14c316a146107c457600080fd5b8063831454db1461062c57806396888ea014610669578063b3b2baae14610699578063bf7cb88c146106da57600080fd5b806356f11e03116100dc57806356f11e031461056c5780636ac527821461058c5780636d47ab72146105ae57806378232aac146105de57600080fd5b806344a7361a146104c95780634559c60e146104f65780634c2c79dc146105235780635433ee091461053657600080fd5b80632e2f14ab1161018557806339c22db81161015457806339c22db81461043c5780633cdce7dd1461045c578063429b62e51461047c57806344a373d71461049c57600080fd5b80632e2f14ab1461037f578063336989ae1461039f5780633417b819146103cd578063365b98b21461040457600080fd5b806321002e19116101c157806321002e19146102af578063214f61d3146102e5578063253583c41461032f5780632dca1fcc1461034f57600080fd5b8063052bbde9146101f35780630787bc27146102155780630ce649971461024b57806313a070b71461028f575b600080fd5b3480156101ff57600080fd5b5061021361020e366004612252565b6107e4565b005b34801561022157600080fd5b506102356102303660046122ca565b61089d565b604051610242919061234a565b60405180910390f35b34801561025757600080fd5b506102816102663660046122ca565b6001600160a01b031660009081526006602052604090205490565b604051908152602001610242565b34801561029b57600080fd5b506102136102aa3660046122ca565b61093b565b3480156102bb57600080fd5b506102816102ca3660046122ca565b6001600160a01b031660009081526009602052604090205490565b3480156102f157600080fd5b506102136103003660046122ca565b33600090815260046020526040902080546001600160a01b0319166001600160a01b0392909216919091179055565b34801561033b57600080fd5b5061021361034a36600461235d565b610b12565b34801561035b57600080fd5b5061036f61036a3660046122ca565b610cad565b60405161024294939291906123f8565b34801561038b57600080fd5b5061021361039a366004612435565b610dea565b3480156103ab57600080fd5b506103bf6103ba3660046122ca565b610f19565b6040516102429291906124a6565b3480156103d957600080fd5b506102136103e83660046124d4565b6001600160a01b03909116600090815260066020526040902055565b34801561041057600080fd5b5061042461041f366004612500565b611045565b6040516001600160a01b039091168152602001610242565b34801561044857600080fd5b506102356104573660046122ca565b61106f565b34801561046857600080fd5b506102136104773660046122ca565b611225565b34801561048857600080fd5b506103bf6104973660046122ca565b611398565b3480156104a857600080fd5b506102816104b73660046122ca565b60066020526000908152604090205481565b3480156104d557600080fd5b506104e96104e43660046122ca565b6113b3565b604051610242919061255d565b34801561050257600080fd5b506105166105113660046122ca565b6115b0565b6040516102429190612608565b6102136105313660046122ca565b611710565b34801561054257600080fd5b506104246105513660046122ca565b6005602052600090815260409020546001600160a01b031681565b34801561057857600080fd5b506102136105873660046122ca565b61176f565b34801561059857600080fd5b506105a161192a565b604051610242919061261b565b3480156105ba57600080fd5b506105ce6105c93660046122ca565b6119f8565b6040516102429493929190612658565b3480156105ea57600080fd5b50610213336000908152600c6020908152604080832060030154600590925290912080546001600160a01b0319166001600160a01b0392909216919091179055565b34801561063857600080fd5b5061065c6106473660046122ca565b60016020526000908152604090205460ff1681565b60405161024291906126c1565b34801561067557600080fd5b506106896106843660046126e9565b611bc1565b6040519015158152602001610242565b3480156106a557600080fd5b506104246106b436600461274d565b80516020818301810180516003825292820191909301209152546001600160a01b031681565b3480156106e657600080fd5b506104246106f53660046122ca565b6001600160a01b039081166000908152600460205260409020541690565b34801561071f57600080fd5b5061051661072e3660046122ca565b611c13565b34801561073f57600080fd5b5061042461074e3660046122ca565b6001600160a01b039081166000908152600560205260409020541690565b34801561077857600080fd5b506104246107873660046122ca565b6004602052600090815260409020546001600160a01b031681565b3480156107ae57600080fd5b506107b7611c58565b604051610242919061278a565b3480156107d057600080fd5b506102136107df3660046122ca565b611cba565b604080518082019091528381526001600160a01b0383166020808301919091528451600791610817918391880190612055565b50602091820151600191820180546001600160a01b0319166001600160a01b0392831617905584166000908152908252604090819020805460ff19169055516108629183910161234a565b60405160208183030381529060405280519060200120600284604051610888919061279d565b90815260405190819003602001902055505050565b600b602052600090815260409020805481906108b8906127b9565b80601f01602080910402602001604051908101604052809291908181526020018280546108e4906127b9565b80156109315780601f1061090657610100808354040283529160200191610931565b820191906000526020600020905b81548152906001019060200180831161091457829003601f168201915b5050505050905081565b6040805180820182526001600160a01b0383166000908152600d60205291909120805482919061096a906127b9565b80601f0160208091040260200160405190810160405280929190818152602001828054610996906127b9565b80156109e35780601f106109b8576101008083540402835291602001916109e3565b820191906000526020600020905b8154815290600101906020018083116109c657829003601f168201915b50505050508152602001600d6000846001600160a01b03166001600160a01b031681526020019081526020016000206001018054610a20906127b9565b80601f0160208091040260200160405190810160405280929190818152602001828054610a4c906127b9565b8015610a995780601f10610a6e57610100808354040283529160200191610a99565b820191906000526020600020905b815481529060010190602001808311610a7c57829003601f168201915b5050509190925250506001600160a01b0382166000908152600e60209081526040909120825180519192610ad292849290910190612055565b506020828101518051610aeb9260018501920190612055565b5050506001600160a01b03166000908152600160205260409020805460ff19166005179055565b610b486040518060a00160405280606081526020016060815260200160608152602001600061ffff168152602001600081525090565b8381526020808201849052600060608301819052608083018190526001600160a01b0387168152600a825260409020825180518493610b8b928492910190612055565b506020828101518051610ba49260018501920190612055565b5060408201518051610bc09160028401916020909101906120d9565b50606082015160038201805461ffff191661ffff9092169190911790556080909101516004909101556001600160a01b0385166000908152600160208190526040909120805460ff19168280021790555081604051602001610c22919061234a565b60405160208183030381529060405280519060200120600285604051610c48919061279d565b908152604051908190036020019020555050600080546001810182559080527f290decd9548b62a8d60345a988386fc84ba6bc95484008f6362f93160ef3e5630180546001600160a01b039094166001600160a01b0319909416939093179092555050565b600a60205260009081526040902080548190610cc8906127b9565b80601f0160208091040260200160405190810160405280929190818152602001828054610cf4906127b9565b8015610d415780601f10610d1657610100808354040283529160200191610d41565b820191906000526020600020905b815481529060010190602001808311610d2457829003601f168201915b505050505090806001018054610d56906127b9565b80601f0160208091040260200160405190810160405280929190818152602001828054610d82906127b9565b8015610dcf5780601f10610da457610100808354040283529160200191610dcf565b820191906000526020600020905b815481529060010190602001808311610db257829003601f168201915b505050506003830154600490930154919261ffff1691905084565b6040805180820182528481526020808201859052336000908152600d8252929092208151805192939192610e219284920190612055565b506020828101518051610e3a9260018501920190612055565b5050604051610e4e9150829060200161234a565b60405160208183030381529060405280519060200120600284604051610e74919061279d565b9081526040805191829003602090810183209390935533600081815260019094529220805460ff19166004179055600390610eb090869061279d565b90815260405190819003602001902080546001600160a01b03929092166001600160a01b0319928316179055600080546001810182559080527f290decd9548b62a8d60345a988386fc84ba6bc95484008f6362f93160ef3e56301805490911633179055505050565b600d60205260009081526040902080548190610f34906127b9565b80601f0160208091040260200160405190810160405280929190818152602001828054610f60906127b9565b8015610fad5780601f10610f8257610100808354040283529160200191610fad565b820191906000526020600020905b815481529060010190602001808311610f9057829003601f168201915b505050505090806001018054610fc2906127b9565b80601f0160208091040260200160405190810160405280929190818152602001828054610fee906127b9565b801561103b5780601f106110105761010080835404028352916020019161103b565b820191906000526020600020905b81548152906001019060200180831161101e57829003601f168201915b5050505050905082565b6000818154811061105557600080fd5b6000918252602090912001546001600160a01b0316905081565b6001600160a01b03811660009081526001602052604081205460609160ff909116908160068111156110a3576110a36126ab565b14156110cb57505060408051808201909152600481526362616e6b60e01b6020820152919050565b60018160068111156110df576110df6126ab565b1415611107575050604080518082019091526004815263073686f760e41b6020820152919050565b600281600681111561111b5761111b6126ab565b1415611147575050604080518082019091526008815267383937bb34b232b960c11b6020820152919050565b600381600681111561115b5761115b6126ab565b141561118557505060408051808201909152600681526539b2b63632b960d11b6020820152919050565b6004816006811115611199576111996126ab565b14156111c557505060408051808201909152600881526731bab9ba37b6b2b960c11b6020820152919050565b60058160068111156111d9576111d96126ab565b141561120257505060408051808201909152600581526430b236b4b760d91b6020820152919050565b505060408051808201909152600581526419dd595cdd60da1b6020820152919050565b6001600160a01b03808216600090815260056020526040812054909161124c911683611fd5565b6001600160a01b038381166000818152600560209081526040808320549094168252600a81528382209282526001905291909120805460ff191660041790556002018054919250908190839081106112a6576112a66127f4565b600091825260209091200180546001600160a01b0319169055805481906112cf90600190612820565b815481106112df576112df6127f4565b9060005260206000200160009054906101000a90046001600160a01b031681838154811061130f5761130f6127f4565b600091825260209091200180546001600160a01b0319166001600160a01b03929092169190911790558054819061134890600190612820565b81548110611358576113586127f4565b6000918252602080832090910180546001600160a01b03199081169091556001600160a01b03959095168252600590526040902080549093169092555050565b600e60205260009081526040902080548190610f34906127b9565b6113e96040518060a00160405280606081526020016060815260200160608152602001600061ffff168152602001600081525090565b6001600160a01b0382166000908152600a602052604090819020815160a0810190925280548290829061141b906127b9565b80601f0160208091040260200160405190810160405280929190818152602001828054611447906127b9565b80156114945780601f1061146957610100808354040283529160200191611494565b820191906000526020600020905b81548152906001019060200180831161147757829003601f168201915b505050505081526020016001820180546114ad906127b9565b80601f01602080910402602001604051908101604052809291908181526020018280546114d9906127b9565b80156115265780601f106114fb57610100808354040283529160200191611526565b820191906000526020600020905b81548152906001019060200180831161150957829003601f168201915b505050505081526020016002820180548060200260200160405190810160405280929190818152602001828054801561158857602002820191906000526020600020905b81546001600160a01b0316815260019091019060200180831161156a575b5050509183525050600382015461ffff16602082015260049091015460409091015292915050565b60408051808201909152606080825260208201526001600160a01b0382166000908152600e60205260409081902081518083019092528054829082906115f5906127b9565b80601f0160208091040260200160405190810160405280929190818152602001828054611621906127b9565b801561166e5780601f106116435761010080835404028352916020019161166e565b820191906000526020600020905b81548152906001019060200180831161165157829003601f168201915b50505050508152602001600182018054611687906127b9565b80601f01602080910402602001604051908101604052809291908181526020018280546116b3906127b9565b80156117005780601f106116d557610100808354040283529160200191611700565b820191906000526020600020905b8154815290600101906020018083116116e357829003601f168201915b5050505050815250509050919050565b6001600160a01b0381166000818152600960205260408082203490819055905181156108fc0292818181858888f19350505050158015611754573d6000803e3d6000fd5b506001600160a01b0316600090815260066020526040812055565b6001600160a01b0381166000908152600a60205260408120905b60028201546001600160801b03821610156117eb576117d982600201826001600160801b0316815481106117bf576117bf6127f4565b6000918252602090912001546001600160a01b0316611225565b806117e381612837565b915050611789565b506040516002906117fd90839061285e565b90815260408051602092819003830190206000908190556001600160a01b038516815260019092528120805460ff191690555b6000546001600160801b03821610156118d057826001600160a01b03166000826001600160801b031681548110611869576118696127f4565b6000918252602090912001546001600160a01b031614156118be576000816001600160801b0316815481106118a0576118a06127f4565b600091825260209091200180546001600160a01b03191690556118d0565b806118c881612837565b915050611830565b506001600160a01b0382166000908152600a60205260408120906118f4828261212e565b61190260018301600061212e565b61191060028301600061216b565b5060038101805461ffff1916905560006004909101555050565b604080518082019091526060815260006020820152600760405180604001604052908160008201805461195c906127b9565b80601f0160208091040260200160405190810160405280929190818152602001828054611988906127b9565b80156119d55780601f106119aa576101008083540402835291602001916119d5565b820191906000526020600020905b8154815290600101906020018083116119b857829003601f168201915b5050509183525050600191909101546001600160a01b0316602090910152919050565b600c60205260009081526040902080548190611a13906127b9565b80601f0160208091040260200160405190810160405280929190818152602001828054611a3f906127b9565b8015611a8c5780601f10611a6157610100808354040283529160200191611a8c565b820191906000526020600020905b815481529060010190602001808311611a6f57829003601f168201915b505050505090806001018054611aa1906127b9565b80601f0160208091040260200160405190810160405280929190818152602001828054611acd906127b9565b8015611b1a5780601f10611aef57610100808354040283529160200191611b1a565b820191906000526020600020905b815481529060010190602001808311611afd57829003601f168201915b505050505090806002018054611b2f906127b9565b80601f0160208091040260200160405190810160405280929190818152602001828054611b5b906127b9565b8015611ba85780601f10611b7d57610100808354040283529160200191611ba8565b820191906000526020600020905b815481529060010190602001808311611b8b57829003601f168201915b505050600390930154919250506001600160a01b031684565b600081604051602001611bd4919061234a565b60405160208183030381529060405280519060200120600284604051611bfa919061279d565b9081526020016040518091039020541490505b92915050565b60408051808201909152606080825260208201526001600160a01b0382166000908152600d60205260409081902081518083019092528054829082906115f5906127b9565b60606000805480602002602001604051908101604052809291908181526020018280548015611cb057602002820191906000526020600020905b81546001600160a01b03168152600190910190602001808311611c92575b5050505050905090565b6001600160a01b038082166000908152600460209081526040808320548151608081018352600d9093529220805492909316929091829190611cfb906127b9565b80601f0160208091040260200160405190810160405280929190818152602001828054611d27906127b9565b8015611d745780601f10611d4957610100808354040283529160200191611d74565b820191906000526020600020905b815481529060010190602001808311611d5757829003601f168201915b50505050508152602001600d6000856001600160a01b03166001600160a01b031681526020019081526020016000206001018054611db1906127b9565b80601f0160208091040260200160405190810160405280929190818152602001828054611ddd906127b9565b8015611e2a5780601f10611dff57610100808354040283529160200191611e2a565b820191906000526020600020905b815481529060010190602001808311611e0d57829003601f168201915b50505050508152602001600a6000846001600160a01b03166001600160a01b031681526020019081526020016000206001018054611e67906127b9565b80601f0160208091040260200160405190810160405280929190818152602001828054611e93906127b9565b8015611ee05780601f10611eb557610100808354040283529160200191611ee0565b820191906000526020600020905b815481529060010190602001808311611ec357829003601f168201915b50505091835250506001600160a01b0380841660209283015284166000908152600c825260409020825180519192611f1d92849290910190612055565b506020828101518051611f369260018501920190612055565b5060408201518051611f52916002840191602090910190612055565b5060609190910151600391820180546001600160a01b039283166001600160a01b0319918216179091559381166000818152600160208181526040808420805460ff1916909717909655959093168152600a8552838120600201805493840181558152848120909201805486168217905581526004909252902080549091169055565b6001600160a01b0382166000908152600a60205260408120600201815b815481101561204d57836001600160a01b0316828281548110612017576120176127f4565b6000918252602090912001546001600160a01b0316141561203b579150611c0d9050565b80612045816128fa565b915050611ff2565b505092915050565b828054612061906127b9565b90600052602060002090601f01602090048101928261208357600085556120c9565b82601f1061209c57805160ff19168380011785556120c9565b828001600101855582156120c9579182015b828111156120c95782518255916020019190600101906120ae565b506120d5929150612185565b5090565b8280548282559060005260206000209081019282156120c9579160200282015b828111156120c957825182546001600160a01b0319166001600160a01b039091161782556020909201916001909101906120f9565b50805461213a906127b9565b6000825580601f1061214a575050565b601f0160209004906000526020600020908101906121689190612185565b50565b508054600082559060005260206000209081019061216891905b5b808211156120d55760008155600101612186565b634e487b7160e01b600052604160045260246000fd5b600082601f8301126121c157600080fd5b813567ffffffffffffffff808211156121dc576121dc61219a565b604051601f8301601f19908116603f011681019082821181831017156122045761220461219a565b8160405283815286602085880101111561221d57600080fd5b836020870160208301376000602085830101528094505050505092915050565b6001600160a01b038116811461216857600080fd5b60008060006060848603121561226757600080fd5b833567ffffffffffffffff8082111561227f57600080fd5b61228b878388016121b0565b94506020860135915061229d8261223d565b909250604085013590808211156122b357600080fd5b506122c0868287016121b0565b9150509250925092565b6000602082840312156122dc57600080fd5b81356122e78161223d565b9392505050565b60005b838110156123095781810151838201526020016122f1565b83811115612318576000848401525b50505050565b600081518084526123368160208601602086016122ee565b601f01601f19169290920160200192915050565b6020815260006122e7602083018461231e565b6000806000806080858703121561237357600080fd5b843561237e8161223d565b9350602085013567ffffffffffffffff8082111561239b57600080fd5b6123a7888389016121b0565b945060408701359150808211156123bd57600080fd5b6123c9888389016121b0565b935060608701359150808211156123df57600080fd5b506123ec878288016121b0565b91505092959194509250565b60808152600061240b608083018761231e565b828103602084015261241d818761231e565b61ffff95909516604084015250506060015292915050565b60008060006060848603121561244a57600080fd5b833567ffffffffffffffff8082111561246257600080fd5b61246e878388016121b0565b9450602086013591508082111561248457600080fd5b612490878388016121b0565b935060408601359150808211156122b357600080fd5b6040815260006124b9604083018561231e565b82810360208401526124cb818561231e565b95945050505050565b600080604083850312156124e757600080fd5b82356124f28161223d565b946020939093013593505050565b60006020828403121561251257600080fd5b5035919050565b600081518084526020808501945080840160005b838110156125525781516001600160a01b03168752958201959082019060010161252d565b509495945050505050565b602081526000825160a0602084015261257960c084018261231e565b90506020840151601f1980858403016040860152612597838361231e565b92506040860151915080858403016060860152506125b58282612519565b91505061ffff6060850151166080840152608084015160a08401528091505092915050565b60008151604084526125ef604085018261231e565b9050602083015184820360208601526124cb828261231e565b6020815260006122e760208301846125da565b602081526000825160406020840152612637606084018261231e565b602094909401516001600160a01b0316604093909301929092525090919050565b60808152600061266b608083018761231e565b828103602084015261267d818761231e565b90508281036040840152612691818661231e565b91505060018060a01b038316606083015295945050505050565b634e487b7160e01b600052602160045260246000fd5b60208101600783106126e357634e487b7160e01b600052602160045260246000fd5b91905290565b600080604083850312156126fc57600080fd5b823567ffffffffffffffff8082111561271457600080fd5b612720868387016121b0565b9350602085013591508082111561273657600080fd5b50612743858286016121b0565b9150509250929050565b60006020828403121561275f57600080fd5b813567ffffffffffffffff81111561277657600080fd5b612782848285016121b0565b949350505050565b6020815260006122e76020830184612519565b600082516127af8184602087016122ee565b9190910192915050565b600181811c908216806127cd57607f821691505b602082108114156127ee57634e487b7160e01b600052602260045260246000fd5b50919050565b634e487b7160e01b600052603260045260246000fd5b634e487b7160e01b600052601160045260246000fd5b6000828210156128325761283261280a565b500390565b60006001600160801b03808316818114156128545761285461280a565b6001019392505050565b600080835481600182811c91508083168061287a57607f831692505b602080841082141561289a57634e487b7160e01b86526022600452602486fd5b8180156128ae57600181146128bf576128ec565b60ff198616895284890196506128ec565b60008a81526020902060005b868110156128e45781548b8201529085019083016128cb565b505084890196505b509498975050505050505050565b600060001982141561290e5761290e61280a565b506001019056fea264697066735822122006c49552ed490542fc621fe5f632a25d9789306a9bd66bb134f2a593107fe06d64736f6c63430008090033",
    "sourcePath": "/home/morimaroo17/work/blockchain_work/solidity_work/prepare/contracts/Accounts.sol",
    "compiler": {
        "name": "solc",
        "version": "0.8.9+commit.e5eed63a"
    },
    "functionHashes": {
        "add_admin(address)": "13a070b7",
        "add_customer(string,string,string)": "2e2f14ab",
        "add_shop(address,string,string,string)": "253583c4",
        "address_per_login(string)": "b3b2baae",
        "admins(address)": "429b62e5",
        "ask_bank(address,uint256)": "3417b819",
        "ask_for_down()": "78232aac",
        "ask_for_up(address)": "214f61d3",
        "asks_bank(address)": "44a373d7",
        "asks_for_down(address)": "5433ee09",
        "asks_for_up(address)": "e324093b",
        "check_auth_data(string,string)": "96888ea0",
        "create_bank_account(string,address,string)": "052bbde9",
        "customers(address)": "336989ae",
        "delete_shop(address)": "56f11e03",
        "down_role(address)": "3cdce7dd",
        "get_admin(address)": "4559c60e",
        "get_ask_bank(address)": "0ce64997",
        "get_ask_for_down(address)": "dea1f0dc",
        "get_ask_for_up(address)": "bf7cb88c",
        "get_bank()": "6ac52782",
        "get_customer(address)": "c341cc21",
        "get_debt(address)": "21002e19",
        "get_role(address)": "39c22db8",
        "get_shop(address)": "44a7361a",
        "get_users()": "ed66aa1b",
        "providers(address)": "0787bc27",
        "role_per_address(address)": "831454db",
        "sellers(address)": "6d47ab72",
        "send_money(address)": "4c2c79dc",
        "shops(address)": "2dca1fcc",
        "up_role(address)": "f14c316a",
        "users(uint256)": "365b98b2"
    },
    "gasEstimates": {
        "creation": {
            "codeDepositCost": "2114200",
            "executionCost": "2250",
            "totalCost": "2116450"
        },
        "external": {
            "add_admin(address)": "infinite",
            "add_customer(string,string,string)": "infinite",
            "add_shop(address,string,string,string)": "infinite",
            "address_per_login(string)": "infinite",
            "admins(address)": "infinite",
            "ask_bank(address,uint256)": "22588",
            "ask_for_down()": "26755",
            "ask_for_up(address)": "24689",
            "asks_bank(address)": "2624",
            "asks_for_down(address)": "2664",
            "asks_for_up(address)": "2640",
            "check_auth_data(string,string)": "infinite",
            "create_bank_account(string,address,string)": "infinite",
            "customers(address)": "infinite",
            "delete_shop(address)": "infinite",
            "down_role(address)": "infinite",
            "get_admin(address)": "infinite",
            "get_ask_bank(address)": "2622",
            "get_ask_for_down(address)": "2627",
            "get_ask_for_up(address)": "2672",
            "get_bank()": "infinite",
            "get_customer(address)": "infinite",
            "get_debt(address)": "2577",
            "get_role(address)": "infinite",
            "get_shop(address)": "infinite",
            "get_users()": "infinite",
            "providers(address)": "infinite",
            "role_per_address(address)": "2611",
            "sellers(address)": "infinite",
            "send_money(address)": "infinite",
            "shops(address)": "infinite",
            "up_role(address)": "infinite",
            "users(uint256)": "4726"
        },
        "internal": {
            "get_seller_index(address,address)": "infinite"
        }
    }
}