{
    "contractName": "Accounts",
    "abi": [
        {
            "inputs": [
                {
                    "internalType": "address",
                    "name": "_new_admin_address",
                    "type": "address"
                }
            ],
            "name": "add_admin",
            "outputs": [],
            "stateMutability": "nonpayable",
            "type": "function"
        },
        {
            "inputs": [
                {
                    "internalType": "string",
                    "name": "_login",
                    "type": "string"
                },
                {
                    "internalType": "string",
                    "name": "_name",
                    "type": "string"
                },
                {
                    "internalType": "string",
                    "name": "_password",
                    "type": "string"
                }
            ],
            "name": "add_customer",
            "outputs": [],
            "stateMutability": "nonpayable",
            "type": "function"
        },
        {
            "inputs": [
                {
                    "internalType": "address payable",
                    "name": "_shop_address",
                    "type": "address"
                },
                {
                    "internalType": "string",
                    "name": "_name",
                    "type": "string"
                },
                {
                    "internalType": "string",
                    "name": "_city",
                    "type": "string"
                },
                {
                    "internalType": "string",
                    "name": "_password",
                    "type": "string"
                }
            ],
            "name": "add_shop",
            "outputs": [],
            "stateMutability": "nonpayable",
            "type": "function"
        },
        {
            "inputs": [
                {
                    "internalType": "string",
                    "name": "",
                    "type": "string"
                }
            ],
            "name": "address_per_login",
            "outputs": [
                {
                    "internalType": "address",
                    "name": "",
                    "type": "address"
                }
            ],
            "stateMutability": "view",
            "type": "function"
        },
        {
            "inputs": [
                {
                    "internalType": "address",
                    "name": "",
                    "type": "address"
                }
            ],
            "name": "admins",
            "outputs": [
                {
                    "internalType": "string",
                    "name": "login",
                    "type": "string"
                },
                {
                    "internalType": "string",
                    "name": "name",
                    "type": "string"
                }
            ],
            "stateMutability": "view",
            "type": "function"
        },
        {
            "inputs": [
                {
                    "internalType": "address",
                    "name": "_shop_address",
                    "type": "address"
                },
                {
                    "internalType": "uint256",
                    "name": "value",
                    "type": "uint256"
                }
            ],
            "name": "ask_bank",
            "outputs": [],
            "stateMutability": "nonpayable",
            "type": "function"
        },
        {
            "inputs": [],
            "name": "ask_for_down",
            "outputs": [],
            "stateMutability": "nonpayable",
            "type": "function"
        },
        {
            "inputs": [
                {
                    "internalType": "address",
                    "name": "_shop_address",
                    "type": "address"
                }
            ],
            "name": "ask_for_up",
            "outputs": [],
            "stateMutability": "nonpayable",
            "type": "function"
        },
        {
            "inputs": [
                {
                    "internalType": "address",
                    "name": "",
                    "type": "address"
                }
            ],
            "name": "asks_bank",
            "outputs": [
                {
                    "internalType": "uint256",
                    "name": "",
                    "type": "uint256"
                }
            ],
            "stateMutability": "view",
            "type": "function"
        },
        {
            "inputs": [
                {
                    "internalType": "address",
                    "name": "",
                    "type": "address"
                }
            ],
            "name": "asks_for_down",
            "outputs": [
                {
                    "internalType": "address",
                    "name": "",
                    "type": "address"
                }
            ],
            "stateMutability": "view",
            "type": "function"
        },
        {
            "inputs": [
                {
                    "internalType": "address",
                    "name": "",
                    "type": "address"
                }
            ],
            "name": "asks_for_up",
            "outputs": [
                {
                    "internalType": "address",
                    "name": "",
                    "type": "address"
                }
            ],
            "stateMutability": "view",
            "type": "function"
        },
        {
            "inputs": [
                {
                    "internalType": "string",
                    "name": "_login",
                    "type": "string"
                },
                {
                    "internalType": "string",
                    "name": "_password",
                    "type": "string"
                }
            ],
            "name": "check_auth_data",
            "outputs": [
                {
                    "internalType": "bool",
                    "name": "",
                    "type": "bool"
                }
            ],
            "stateMutability": "view",
            "type": "function"
        },
        {
            "inputs": [
                {
                    "internalType": "string",
                    "name": "_bank_name",
                    "type": "string"
                },
                {
                    "internalType": "address",
                    "name": "_bank_address",
                    "type": "address"
                },
                {
                    "internalType": "string",
                    "name": "_password",
                    "type": "string"
                }
            ],
            "name": "create_bank_account",
            "outputs": [],
            "stateMutability": "nonpayable",
            "type": "function"
        },
        {
            "inputs": [
                {
                    "internalType": "address",
                    "name": "",
                    "type": "address"
                }
            ],
            "name": "customers",
            "outputs": [
                {
                    "internalType": "string",
                    "name": "login",
                    "type": "string"
                },
                {
                    "internalType": "string",
                    "name": "name",
                    "type": "string"
                }
            ],
            "stateMutability": "view",
            "type": "function"
        },
        {
            "inputs": [
                {
                    "internalType": "address",
                    "name": "_shop_address",
                    "type": "address"
                }
            ],
            "name": "delete_shop",
            "outputs": [],
            "stateMutability": "nonpayable",
            "type": "function"
        },
        {
            "inputs": [
                {
                    "internalType": "address",
                    "name": "_seller_address",
                    "type": "address"
                }
            ],
            "name": "down_role",
            "outputs": [],
            "stateMutability": "nonpayable",
            "type": "function"
        },
        {
            "inputs": [
                {
                    "internalType": "address",
                    "name": "_admin_address",
                    "type": "address"
                }
            ],
            "name": "get_admin",
            "outputs": [
                {
                    "components": [
                        {
                            "internalType": "string",
                            "name": "login",
                            "type": "string"
                        },
                        {
                            "internalType": "string",
                            "name": "name",
                            "type": "string"
                        }
                    ],
                    "internalType": "struct Accounts.Admin",
                    "name": "",
                    "type": "tuple"
                }
            ],
            "stateMutability": "view",
            "type": "function"
        },
        {
            "inputs": [
                {
                    "internalType": "address",
                    "name": "_shop_address",
                    "type": "address"
                }
            ],
            "name": "get_ask_bank",
            "outputs": [
                {
                    "internalType": "uint256",
                    "name": "",
                    "type": "uint256"
                }
            ],
            "stateMutability": "view",
            "type": "function"
        },
        {
            "inputs": [
                {
                    "internalType": "address",
                    "name": "_customer_address",
                    "type": "address"
                }
            ],
            "name": "get_ask_for_down",
            "outputs": [
                {
                    "internalType": "address",
                    "name": "",
                    "type": "address"
                }
            ],
            "stateMutability": "view",
            "type": "function"
        },
        {
            "inputs": [
                {
                    "internalType": "address",
                    "name": "_customer_address",
                    "type": "address"
                }
            ],
            "name": "get_ask_for_up",
            "outputs": [
                {
                    "internalType": "address",
                    "name": "",
                    "type": "address"
                }
            ],
            "stateMutability": "view",
            "type": "function"
        },
        {
            "inputs": [
                {
                    "internalType": "address",
                    "name": "_customer_address",
                    "type": "address"
                }
            ],
            "name": "get_customer",
            "outputs": [
                {
                    "components": [
                        {
                            "internalType": "string",
                            "name": "login",
                            "type": "string"
                        },
                        {
                            "internalType": "string",
                            "name": "name",
                            "type": "string"
                        }
                    ],
                    "internalType": "struct Accounts.Customer",
                    "name": "",
                    "type": "tuple"
                }
            ],
            "stateMutability": "view",
            "type": "function"
        },
        {
            "inputs": [
                {
                    "internalType": "address",
                    "name": "_shop_address",
                    "type": "address"
                }
            ],
            "name": "get_debt",
            "outputs": [
                {
                    "internalType": "uint256",
                    "name": "",
                    "type": "uint256"
                }
            ],
            "stateMutability": "view",
            "type": "function"
        },
        {
            "inputs": [
                {
                    "internalType": "address",
                    "name": "_user_address",
                    "type": "address"
                }
            ],
            "name": "get_role",
            "outputs": [
                {
                    "internalType": "string",
                    "name": "",
                    "type": "string"
                }
            ],
            "stateMutability": "view",
            "type": "function"
        },
        {
            "inputs": [
                {
                    "internalType": "address",
                    "name": "_shop_address",
                    "type": "address"
                }
            ],
            "name": "get_shop",
            "outputs": [
                {
                    "components": [
                        {
                            "internalType": "string",
                            "name": "name",
                            "type": "string"
                        },
                        {
                            "internalType": "string",
                            "name": "city",
                            "type": "string"
                        },
                        {
                            "internalType": "address[]",
                            "name": "shop_sellers",
                            "type": "address[]"
                        },
                        {
                            "internalType": "uint16",
                            "name": "rate",
                            "type": "uint16"
                        },
                        {
                            "internalType": "uint256",
                            "name": "using_reviews",
                            "type": "uint256"
                        }
                    ],
                    "internalType": "struct Accounts.Shop",
                    "name": "",
                    "type": "tuple"
                }
            ],
            "stateMutability": "view",
            "type": "function"
        },
        {
            "inputs": [],
            "name": "get_users",
            "outputs": [
                {
                    "internalType": "address[]",
                    "name": "",
                    "type": "address[]"
                }
            ],
            "stateMutability": "view",
            "type": "function"
        },
        {
            "inputs": [
                {
                    "internalType": "address",
                    "name": "",
                    "type": "address"
                }
            ],
            "name": "providers",
            "outputs": [
                {
                    "internalType": "string",
                    "name": "name",
                    "type": "string"
                }
            ],
            "stateMutability": "view",
            "type": "function"
        },
        {
            "inputs": [
                {
                    "internalType": "address",
                    "name": "",
                    "type": "address"
                }
            ],
            "name": "role_per_address",
            "outputs": [
                {
                    "internalType": "enum Accounts.Role",
                    "name": "",
                    "type": "uint8"
                }
            ],
            "stateMutability": "view",
            "type": "function"
        },
        {
            "inputs": [
                {
                    "internalType": "address",
                    "name": "",
                    "type": "address"
                }
            ],
            "name": "sellers",
            "outputs": [
                {
                    "internalType": "string",
                    "name": "login",
                    "type": "string"
                },
                {
                    "internalType": "string",
                    "name": "name",
                    "type": "string"
                },
                {
                    "internalType": "string",
                    "name": "city",
                    "type": "string"
                },
                {
                    "internalType": "address",
                    "name": "shop_address",
                    "type": "address"
                }
            ],
            "stateMutability": "view",
            "type": "function"
        },
        {
            "inputs": [
                {
                    "internalType": "address",
                    "name": "_shop_address",
                    "type": "address"
                }
            ],
            "name": "send_money",
            "outputs": [],
            "stateMutability": "payable",
            "type": "function"
        },
        {
            "inputs": [
                {
                    "internalType": "address",
                    "name": "",
                    "type": "address"
                }
            ],
            "name": "shops",
            "outputs": [
                {
                    "internalType": "string",
                    "name": "name",
                    "type": "string"
                },
                {
                    "internalType": "string",
                    "name": "city",
                    "type": "string"
                },
                {
                    "internalType": "uint16",
                    "name": "rate",
                    "type": "uint16"
                },
                {
                    "internalType": "uint256",
                    "name": "using_reviews",
                    "type": "uint256"
                }
            ],
            "stateMutability": "view",
            "type": "function"
        },
        {
            "inputs": [
                {
                    "internalType": "address",
                    "name": "_customer_address",
                    "type": "address"
                }
            ],
            "name": "up_role",
            "outputs": [],
            "stateMutability": "nonpayable",
            "type": "function"
        },
        {
            "inputs": [
                {
                    "internalType": "uint256",
                    "name": "",
                    "type": "uint256"
                }
            ],
            "name": "users",
            "outputs": [
                {
                    "internalType": "address",
                    "name": "",
                    "type": "address"
                }
            ],
            "stateMutability": "view",
            "type": "function"
        }
    ],
    "bytecode": "608060405234801561001057600080fd5b50612813806100206000396000f3fe6080604052600436106101e35760003560e01c806344a7361a1161010257806396888ea011610095578063dea1f0dc11610064578063dea1f0dc14610706578063e324093b1461073f578063ed66aa1b14610775578063f14c316a1461079757600080fd5b806396888ea01461063c578063b3b2baae1461066c578063bf7cb88c146106ad578063c341cc21146106e657600080fd5b806356f11e03116100d157806356f11e03146105615780636d47ab721461058157806378232aac146105b1578063831454db146105ff57600080fd5b806344a7361a146104be5780634559c60e146104eb5780634c2c79dc146105185780635433ee091461052b57600080fd5b80632e2f14ab1161017a57806339c22db81161014957806339c22db8146104315780633cdce7dd14610451578063429b62e51461047157806344a373d71461049157600080fd5b80632e2f14ab14610374578063336989ae146103945780633417b819146103c2578063365b98b2146103f957600080fd5b806321002e19116101b657806321002e19146102a4578063214f61d3146102da578063253583c4146103245780632dca1fcc1461034457600080fd5b8063052bbde9146101e85780630787bc271461020a5780630ce649971461024057806313a070b714610284575b600080fd5b3480156101f457600080fd5b50610208610203366004612157565b6107b7565b005b34801561021657600080fd5b5061022a6102253660046121cf565b610870565b604051610237919061224f565b60405180910390f35b34801561024c57600080fd5b5061027661025b3660046121cf565b6001600160a01b031660009081526006602052604090205490565b604051908152602001610237565b34801561029057600080fd5b5061020861029f3660046121cf565b61090e565b3480156102b057600080fd5b506102766102bf3660046121cf565b6001600160a01b031660009081526009602052604090205490565b3480156102e657600080fd5b506102086102f53660046121cf565b33600090815260046020526040902080546001600160a01b0319166001600160a01b0392909216919091179055565b34801561033057600080fd5b5061020861033f366004612262565b610ae5565b34801561035057600080fd5b5061036461035f3660046121cf565b610c80565b60405161023794939291906122fd565b34801561038057600080fd5b5061020861038f36600461233a565b610dbd565b3480156103a057600080fd5b506103b46103af3660046121cf565b610eec565b6040516102379291906123ab565b3480156103ce57600080fd5b506102086103dd3660046123d9565b6001600160a01b03909116600090815260066020526040902055565b34801561040557600080fd5b50610419610414366004612405565b611018565b6040516001600160a01b039091168152602001610237565b34801561043d57600080fd5b5061022a61044c3660046121cf565b611042565b34801561045d57600080fd5b5061020861046c3660046121cf565b6111f8565b34801561047d57600080fd5b506103b461048c3660046121cf565b61136b565b34801561049d57600080fd5b506102766104ac3660046121cf565b60066020526000908152604090205481565b3480156104ca57600080fd5b506104de6104d93660046121cf565b611386565b6040516102379190612462565b3480156104f757600080fd5b5061050b6105063660046121cf565b611583565b604051610237919061250d565b6102086105263660046121cf565b6116e3565b34801561053757600080fd5b506104196105463660046121cf565b6005602052600090815260409020546001600160a01b031681565b34801561056d57600080fd5b5061020861057c3660046121cf565b611742565b34801561058d57600080fd5b506105a161059c3660046121cf565b6118fd565b6040516102379493929190612520565b3480156105bd57600080fd5b50610208336000908152600c6020908152604080832060030154600590925290912080546001600160a01b0319166001600160a01b0392909216919091179055565b34801561060b57600080fd5b5061062f61061a3660046121cf565b60016020526000908152604090205460ff1681565b6040516102379190612589565b34801561064857600080fd5b5061065c6106573660046125b1565b611ac6565b6040519015158152602001610237565b34801561067857600080fd5b50610419610687366004612615565b80516020818301810180516003825292820191909301209152546001600160a01b031681565b3480156106b957600080fd5b506104196106c83660046121cf565b6001600160a01b039081166000908152600460205260409020541690565b3480156106f257600080fd5b5061050b6107013660046121cf565b611b18565b34801561071257600080fd5b506104196107213660046121cf565b6001600160a01b039081166000908152600560205260409020541690565b34801561074b57600080fd5b5061041961075a3660046121cf565b6004602052600090815260409020546001600160a01b031681565b34801561078157600080fd5b5061078a611b5d565b6040516102379190612652565b3480156107a357600080fd5b506102086107b23660046121cf565b611bbf565b604080518082019091528381526001600160a01b03831660208083019190915284516007916107ea918391880190611f5a565b50602091820151600191820180546001600160a01b0319166001600160a01b0392831617905584166000908152908252604090819020805460ff19169055516108359183910161224f565b6040516020818303038152906040528051906020012060028460405161085b9190612665565b90815260405190819003602001902055505050565b600b6020526000908152604090208054819061088b90612681565b80601f01602080910402602001604051908101604052809291908181526020018280546108b790612681565b80156109045780601f106108d957610100808354040283529160200191610904565b820191906000526020600020905b8154815290600101906020018083116108e757829003601f168201915b5050505050905081565b6040805180820182526001600160a01b0383166000908152600d60205291909120805482919061093d90612681565b80601f016020809104026020016040519081016040528092919081815260200182805461096990612681565b80156109b65780601f1061098b576101008083540402835291602001916109b6565b820191906000526020600020905b81548152906001019060200180831161099957829003601f168201915b50505050508152602001600d6000846001600160a01b03166001600160a01b0316815260200190815260200160002060010180546109f390612681565b80601f0160208091040260200160405190810160405280929190818152602001828054610a1f90612681565b8015610a6c5780601f10610a4157610100808354040283529160200191610a6c565b820191906000526020600020905b815481529060010190602001808311610a4f57829003601f168201915b5050509190925250506001600160a01b0382166000908152600e60209081526040909120825180519192610aa592849290910190611f5a565b506020828101518051610abe9260018501920190611f5a565b5050506001600160a01b03166000908152600160205260409020805460ff19166005179055565b610b1b6040518060a00160405280606081526020016060815260200160608152602001600061ffff168152602001600081525090565b8381526020808201849052600060608301819052608083018190526001600160a01b0387168152600a825260409020825180518493610b5e928492910190611f5a565b506020828101518051610b779260018501920190611f5a565b5060408201518051610b93916002840191602090910190611fde565b50606082015160038201805461ffff191661ffff9092169190911790556080909101516004909101556001600160a01b0385166000908152600160208190526040909120805460ff19168280021790555081604051602001610bf5919061224f565b60405160208183030381529060405280519060200120600285604051610c1b9190612665565b908152604051908190036020019020555050600080546001810182559080527f290decd9548b62a8d60345a988386fc84ba6bc95484008f6362f93160ef3e5630180546001600160a01b039094166001600160a01b0319909416939093179092555050565b600a60205260009081526040902080548190610c9b90612681565b80601f0160208091040260200160405190810160405280929190818152602001828054610cc790612681565b8015610d145780601f10610ce957610100808354040283529160200191610d14565b820191906000526020600020905b815481529060010190602001808311610cf757829003601f168201915b505050505090806001018054610d2990612681565b80601f0160208091040260200160405190810160405280929190818152602001828054610d5590612681565b8015610da25780601f10610d7757610100808354040283529160200191610da2565b820191906000526020600020905b815481529060010190602001808311610d8557829003601f168201915b505050506003830154600490930154919261ffff1691905084565b6040805180820182528481526020808201859052336000908152600d8252929092208151805192939192610df49284920190611f5a565b506020828101518051610e0d9260018501920190611f5a565b5050604051610e219150829060200161224f565b60405160208183030381529060405280519060200120600284604051610e479190612665565b9081526040805191829003602090810183209390935533600081815260019094529220805460ff19166004179055600390610e83908690612665565b90815260405190819003602001902080546001600160a01b03929092166001600160a01b0319928316179055600080546001810182559080527f290decd9548b62a8d60345a988386fc84ba6bc95484008f6362f93160ef3e56301805490911633179055505050565b600d60205260009081526040902080548190610f0790612681565b80601f0160208091040260200160405190810160405280929190818152602001828054610f3390612681565b8015610f805780601f10610f5557610100808354040283529160200191610f80565b820191906000526020600020905b815481529060010190602001808311610f6357829003601f168201915b505050505090806001018054610f9590612681565b80601f0160208091040260200160405190810160405280929190818152602001828054610fc190612681565b801561100e5780601f10610fe35761010080835404028352916020019161100e565b820191906000526020600020905b815481529060010190602001808311610ff157829003601f168201915b5050505050905082565b6000818154811061102857600080fd5b6000918252602090912001546001600160a01b0316905081565b6001600160a01b03811660009081526001602052604081205460609160ff9091169081600681111561107657611076612573565b141561109e57505060408051808201909152600481526362616e6b60e01b6020820152919050565b60018160068111156110b2576110b2612573565b14156110da575050604080518082019091526004815263073686f760e41b6020820152919050565b60028160068111156110ee576110ee612573565b141561111a575050604080518082019091526008815267383937bb34b232b960c11b6020820152919050565b600381600681111561112e5761112e612573565b141561115857505060408051808201909152600681526539b2b63632b960d11b6020820152919050565b600481600681111561116c5761116c612573565b141561119857505060408051808201909152600881526731bab9ba37b6b2b960c11b6020820152919050565b60058160068111156111ac576111ac612573565b14156111d557505060408051808201909152600581526430b236b4b760d91b6020820152919050565b505060408051808201909152600581526419dd595cdd60da1b6020820152919050565b6001600160a01b03808216600090815260056020526040812054909161121f911683611eda565b6001600160a01b038381166000818152600560209081526040808320549094168252600a81528382209282526001905291909120805460ff19166004179055600201805491925090819083908110611279576112796126bc565b600091825260209091200180546001600160a01b0319169055805481906112a2906001906126e8565b815481106112b2576112b26126bc565b9060005260206000200160009054906101000a90046001600160a01b03168183815481106112e2576112e26126bc565b600091825260209091200180546001600160a01b0319166001600160a01b03929092169190911790558054819061131b906001906126e8565b8154811061132b5761132b6126bc565b6000918252602080832090910180546001600160a01b03199081169091556001600160a01b03959095168252600590526040902080549093169092555050565b600e60205260009081526040902080548190610f0790612681565b6113bc6040518060a00160405280606081526020016060815260200160608152602001600061ffff168152602001600081525090565b6001600160a01b0382166000908152600a602052604090819020815160a081019092528054829082906113ee90612681565b80601f016020809104026020016040519081016040528092919081815260200182805461141a90612681565b80156114675780601f1061143c57610100808354040283529160200191611467565b820191906000526020600020905b81548152906001019060200180831161144a57829003601f168201915b5050505050815260200160018201805461148090612681565b80601f01602080910402602001604051908101604052809291908181526020018280546114ac90612681565b80156114f95780601f106114ce576101008083540402835291602001916114f9565b820191906000526020600020905b8154815290600101906020018083116114dc57829003601f168201915b505050505081526020016002820180548060200260200160405190810160405280929190818152602001828054801561155b57602002820191906000526020600020905b81546001600160a01b0316815260019091019060200180831161153d575b5050509183525050600382015461ffff16602082015260049091015460409091015292915050565b60408051808201909152606080825260208201526001600160a01b0382166000908152600e60205260409081902081518083019092528054829082906115c890612681565b80601f01602080910402602001604051908101604052809291908181526020018280546115f490612681565b80156116415780601f1061161657610100808354040283529160200191611641565b820191906000526020600020905b81548152906001019060200180831161162457829003601f168201915b5050505050815260200160018201805461165a90612681565b80601f016020809104026020016040519081016040528092919081815260200182805461168690612681565b80156116d35780601f106116a8576101008083540402835291602001916116d3565b820191906000526020600020905b8154815290600101906020018083116116b657829003601f168201915b5050505050815250509050919050565b6001600160a01b0381166000818152600960205260408082203490819055905181156108fc0292818181858888f19350505050158015611727573d6000803e3d6000fd5b506001600160a01b0316600090815260066020526040812055565b6001600160a01b0381166000908152600a60205260408120905b60028201546001600160801b03821610156117be576117ac82600201826001600160801b031681548110611792576117926126bc565b6000918252602090912001546001600160a01b03166111f8565b806117b6816126ff565b91505061175c565b506040516002906117d0908390612726565b90815260408051602092819003830190206000908190556001600160a01b038516815260019092528120805460ff191690555b6000546001600160801b03821610156118a357826001600160a01b03166000826001600160801b03168154811061183c5761183c6126bc565b6000918252602090912001546001600160a01b03161415611891576000816001600160801b031681548110611873576118736126bc565b600091825260209091200180546001600160a01b03191690556118a3565b8061189b816126ff565b915050611803565b506001600160a01b0382166000908152600a60205260408120906118c78282612033565b6118d5600183016000612033565b6118e3600283016000612070565b5060038101805461ffff1916905560006004909101555050565b600c6020526000908152604090208054819061191890612681565b80601f016020809104026020016040519081016040528092919081815260200182805461194490612681565b80156119915780601f1061196657610100808354040283529160200191611991565b820191906000526020600020905b81548152906001019060200180831161197457829003601f168201915b5050505050908060010180546119a690612681565b80601f01602080910402602001604051908101604052809291908181526020018280546119d290612681565b8015611a1f5780601f106119f457610100808354040283529160200191611a1f565b820191906000526020600020905b815481529060010190602001808311611a0257829003601f168201915b505050505090806002018054611a3490612681565b80601f0160208091040260200160405190810160405280929190818152602001828054611a6090612681565b8015611aad5780601f10611a8257610100808354040283529160200191611aad565b820191906000526020600020905b815481529060010190602001808311611a9057829003601f168201915b505050600390930154919250506001600160a01b031684565b600081604051602001611ad9919061224f565b60405160208183030381529060405280519060200120600284604051611aff9190612665565b9081526020016040518091039020541490505b92915050565b60408051808201909152606080825260208201526001600160a01b0382166000908152600d60205260409081902081518083019092528054829082906115c890612681565b60606000805480602002602001604051908101604052809291908181526020018280548015611bb557602002820191906000526020600020905b81546001600160a01b03168152600190910190602001808311611b97575b5050505050905090565b6001600160a01b038082166000908152600460209081526040808320548151608081018352600d9093529220805492909316929091829190611c0090612681565b80601f0160208091040260200160405190810160405280929190818152602001828054611c2c90612681565b8015611c795780601f10611c4e57610100808354040283529160200191611c79565b820191906000526020600020905b815481529060010190602001808311611c5c57829003601f168201915b50505050508152602001600d6000856001600160a01b03166001600160a01b031681526020019081526020016000206001018054611cb690612681565b80601f0160208091040260200160405190810160405280929190818152602001828054611ce290612681565b8015611d2f5780601f10611d0457610100808354040283529160200191611d2f565b820191906000526020600020905b815481529060010190602001808311611d1257829003601f168201915b50505050508152602001600a6000846001600160a01b03166001600160a01b031681526020019081526020016000206001018054611d6c90612681565b80601f0160208091040260200160405190810160405280929190818152602001828054611d9890612681565b8015611de55780601f10611dba57610100808354040283529160200191611de5565b820191906000526020600020905b815481529060010190602001808311611dc857829003601f168201915b50505091835250506001600160a01b0380841660209283015284166000908152600c825260409020825180519192611e2292849290910190611f5a565b506020828101518051611e3b9260018501920190611f5a565b5060408201518051611e57916002840191602090910190611f5a565b5060609190910151600391820180546001600160a01b039283166001600160a01b0319918216179091559381166000818152600160208181526040808420805460ff1916909717909655959093168152600a8552838120600201805493840181558152848120909201805486168217905581526004909252902080549091169055565b6001600160a01b0382166000908152600a60205260408120600201815b8154811015611f5257836001600160a01b0316828281548110611f1c57611f1c6126bc565b6000918252602090912001546001600160a01b03161415611f40579150611b129050565b80611f4a816127c2565b915050611ef7565b505092915050565b828054611f6690612681565b90600052602060002090601f016020900481019282611f885760008555611fce565b82601f10611fa157805160ff1916838001178555611fce565b82800160010185558215611fce579182015b82811115611fce578251825591602001919060010190611fb3565b50611fda92915061208a565b5090565b828054828255906000526020600020908101928215611fce579160200282015b82811115611fce57825182546001600160a01b0319166001600160a01b03909116178255602090920191600190910190611ffe565b50805461203f90612681565b6000825580601f1061204f575050565b601f01602090049060005260206000209081019061206d919061208a565b50565b508054600082559060005260206000209081019061206d91905b5b80821115611fda576000815560010161208b565b634e487b7160e01b600052604160045260246000fd5b600082601f8301126120c657600080fd5b813567ffffffffffffffff808211156120e1576120e161209f565b604051601f8301601f19908116603f011681019082821181831017156121095761210961209f565b8160405283815286602085880101111561212257600080fd5b836020870160208301376000602085830101528094505050505092915050565b6001600160a01b038116811461206d57600080fd5b60008060006060848603121561216c57600080fd5b833567ffffffffffffffff8082111561218457600080fd5b612190878388016120b5565b9450602086013591506121a282612142565b909250604085013590808211156121b857600080fd5b506121c5868287016120b5565b9150509250925092565b6000602082840312156121e157600080fd5b81356121ec81612142565b9392505050565b60005b8381101561220e5781810151838201526020016121f6565b8381111561221d576000848401525b50505050565b6000815180845261223b8160208601602086016121f3565b601f01601f19169290920160200192915050565b6020815260006121ec6020830184612223565b6000806000806080858703121561227857600080fd5b843561228381612142565b9350602085013567ffffffffffffffff808211156122a057600080fd5b6122ac888389016120b5565b945060408701359150808211156122c257600080fd5b6122ce888389016120b5565b935060608701359150808211156122e457600080fd5b506122f1878288016120b5565b91505092959194509250565b6080815260006123106080830187612223565b82810360208401526123228187612223565b61ffff95909516604084015250506060015292915050565b60008060006060848603121561234f57600080fd5b833567ffffffffffffffff8082111561236757600080fd5b612373878388016120b5565b9450602086013591508082111561238957600080fd5b612395878388016120b5565b935060408601359150808211156121b857600080fd5b6040815260006123be6040830185612223565b82810360208401526123d08185612223565b95945050505050565b600080604083850312156123ec57600080fd5b82356123f781612142565b946020939093013593505050565b60006020828403121561241757600080fd5b5035919050565b600081518084526020808501945080840160005b838110156124575781516001600160a01b031687529582019590820190600101612432565b509495945050505050565b602081526000825160a0602084015261247e60c0840182612223565b90506020840151601f198085840301604086015261249c8383612223565b92506040860151915080858403016060860152506124ba828261241e565b91505061ffff6060850151166080840152608084015160a08401528091505092915050565b60008151604084526124f46040850182612223565b9050602083015184820360208601526123d08282612223565b6020815260006121ec60208301846124df565b6080815260006125336080830187612223565b82810360208401526125458187612223565b905082810360408401526125598186612223565b91505060018060a01b038316606083015295945050505050565b634e487b7160e01b600052602160045260246000fd5b60208101600783106125ab57634e487b7160e01b600052602160045260246000fd5b91905290565b600080604083850312156125c457600080fd5b823567ffffffffffffffff808211156125dc57600080fd5b6125e8868387016120b5565b935060208501359150808211156125fe57600080fd5b5061260b858286016120b5565b9150509250929050565b60006020828403121561262757600080fd5b813567ffffffffffffffff81111561263e57600080fd5b61264a848285016120b5565b949350505050565b6020815260006121ec602083018461241e565b600082516126778184602087016121f3565b9190910192915050565b600181811c9082168061269557607f821691505b602082108114156126b657634e487b7160e01b600052602260045260246000fd5b50919050565b634e487b7160e01b600052603260045260246000fd5b634e487b7160e01b600052601160045260246000fd5b6000828210156126fa576126fa6126d2565b500390565b60006001600160801b038083168181141561271c5761271c6126d2565b6001019392505050565b600080835481600182811c91508083168061274257607f831692505b602080841082141561276257634e487b7160e01b86526022600452602486fd5b8180156127765760018114612787576127b4565b60ff198616895284890196506127b4565b60008a81526020902060005b868110156127ac5781548b820152908501908301612793565b505084890196505b509498975050505050505050565b60006000198214156127d6576127d66126d2565b506001019056fea2646970667358221220afc3b78f2afd543c766835e4c4d88acb42d8fe7f182f5f1e19ae7e83d501ff3164736f6c63430008090033",
    "sourcePath": "/home/morimaroo17/work/blockchain_work/solidity_work/prepare/contracts/Accounts.sol",
    "compiler": {
        "name": "solc",
        "version": "0.8.9+commit.e5eed63a"
    },
    "functionHashes": {
        "add_admin(address)": "13a070b7",
        "add_customer(string,string,string)": "2e2f14ab",
        "add_shop(address,string,string,string)": "253583c4",
        "address_per_login(string)": "b3b2baae",
        "admins(address)": "429b62e5",
        "ask_bank(address,uint256)": "3417b819",
        "ask_for_down()": "78232aac",
        "ask_for_up(address)": "214f61d3",
        "asks_bank(address)": "44a373d7",
        "asks_for_down(address)": "5433ee09",
        "asks_for_up(address)": "e324093b",
        "check_auth_data(string,string)": "96888ea0",
        "create_bank_account(string,address,string)": "052bbde9",
        "customers(address)": "336989ae",
        "delete_shop(address)": "56f11e03",
        "down_role(address)": "3cdce7dd",
        "get_admin(address)": "4559c60e",
        "get_ask_bank(address)": "0ce64997",
        "get_ask_for_down(address)": "dea1f0dc",
        "get_ask_for_up(address)": "bf7cb88c",
        "get_customer(address)": "c341cc21",
        "get_debt(address)": "21002e19",
        "get_role(address)": "39c22db8",
        "get_shop(address)": "44a7361a",
        "get_users()": "ed66aa1b",
        "providers(address)": "0787bc27",
        "role_per_address(address)": "831454db",
        "sellers(address)": "6d47ab72",
        "send_money(address)": "4c2c79dc",
        "shops(address)": "2dca1fcc",
        "up_role(address)": "f14c316a",
        "users(uint256)": "365b98b2"
    },
    "gasEstimates": {
        "creation": {
            "codeDepositCost": "2051800",
            "executionCost": "2178",
            "totalCost": "2053978"
        },
        "external": {
            "add_admin(address)": "infinite",
            "add_customer(string,string,string)": "infinite",
            "add_shop(address,string,string,string)": "infinite",
            "address_per_login(string)": "infinite",
            "admins(address)": "infinite",
            "ask_bank(address,uint256)": "22588",
            "ask_for_down()": "26733",
            "ask_for_up(address)": "24689",
            "asks_bank(address)": "2624",
            "asks_for_down(address)": "2664",
            "asks_for_up(address)": "2618",
            "check_auth_data(string,string)": "infinite",
            "create_bank_account(string,address,string)": "infinite",
            "customers(address)": "infinite",
            "delete_shop(address)": "infinite",
            "down_role(address)": "infinite",
            "get_admin(address)": "infinite",
            "get_ask_bank(address)": "2622",
            "get_ask_for_down(address)": "2605",
            "get_ask_for_up(address)": "2650",
            "get_customer(address)": "infinite",
            "get_debt(address)": "2577",
            "get_role(address)": "infinite",
            "get_shop(address)": "infinite",
            "get_users()": "infinite",
            "providers(address)": "infinite",
            "role_per_address(address)": "2677",
            "sellers(address)": "infinite",
            "send_money(address)": "infinite",
            "shops(address)": "infinite",
            "up_role(address)": "infinite",
            "users(uint256)": "4726"
        },
        "internal": {
            "get_seller_index(address,address)": "infinite"
        }
    }
}