{
    "contractName": "ReviewBook",
    "abi": [
        {
            "inputs": [
                {
                    "internalType": "address",
                    "name": "_new_admin_address",
                    "type": "address"
                }
            ],
            "name": "add_admin",
            "outputs": [],
            "stateMutability": "nonpayable",
            "type": "function"
        },
        {
            "inputs": [
                {
                    "internalType": "string",
                    "name": "_login",
                    "type": "string"
                },
                {
                    "internalType": "string",
                    "name": "_name",
                    "type": "string"
                },
                {
                    "internalType": "string",
                    "name": "_password",
                    "type": "string"
                }
            ],
            "name": "add_customer",
            "outputs": [],
            "stateMutability": "nonpayable",
            "type": "function"
        },
        {
            "inputs": [
                {
                    "internalType": "address payable",
                    "name": "_shop_address",
                    "type": "address"
                },
                {
                    "internalType": "string",
                    "name": "_name",
                    "type": "string"
                },
                {
                    "internalType": "string",
                    "name": "_city",
                    "type": "string"
                },
                {
                    "internalType": "string",
                    "name": "_password",
                    "type": "string"
                }
            ],
            "name": "add_shop",
            "outputs": [],
            "stateMutability": "nonpayable",
            "type": "function"
        },
        {
            "inputs": [
                {
                    "internalType": "string",
                    "name": "",
                    "type": "string"
                }
            ],
            "name": "address_per_login",
            "outputs": [
                {
                    "internalType": "address",
                    "name": "",
                    "type": "address"
                }
            ],
            "stateMutability": "view",
            "type": "function"
        },
        {
            "inputs": [
                {
                    "internalType": "address",
                    "name": "",
                    "type": "address"
                }
            ],
            "name": "admins",
            "outputs": [
                {
                    "internalType": "string",
                    "name": "login",
                    "type": "string"
                },
                {
                    "internalType": "string",
                    "name": "name",
                    "type": "string"
                }
            ],
            "stateMutability": "view",
            "type": "function"
        },
        {
            "inputs": [
                {
                    "internalType": "address",
                    "name": "_shop_address",
                    "type": "address"
                },
                {
                    "internalType": "uint256",
                    "name": "value",
                    "type": "uint256"
                }
            ],
            "name": "ask_bank",
            "outputs": [],
            "stateMutability": "nonpayable",
            "type": "function"
        },
        {
            "inputs": [],
            "name": "ask_for_down",
            "outputs": [],
            "stateMutability": "nonpayable",
            "type": "function"
        },
        {
            "inputs": [
                {
                    "internalType": "address",
                    "name": "_shop_address",
                    "type": "address"
                }
            ],
            "name": "ask_for_up",
            "outputs": [],
            "stateMutability": "nonpayable",
            "type": "function"
        },
        {
            "inputs": [
                {
                    "internalType": "address",
                    "name": "",
                    "type": "address"
                }
            ],
            "name": "asks_bank",
            "outputs": [
                {
                    "internalType": "uint256",
                    "name": "",
                    "type": "uint256"
                }
            ],
            "stateMutability": "view",
            "type": "function"
        },
        {
            "inputs": [
                {
                    "internalType": "address",
                    "name": "",
                    "type": "address"
                }
            ],
            "name": "asks_for_down",
            "outputs": [
                {
                    "internalType": "address",
                    "name": "",
                    "type": "address"
                }
            ],
            "stateMutability": "view",
            "type": "function"
        },
        {
            "inputs": [
                {
                    "internalType": "address",
                    "name": "",
                    "type": "address"
                }
            ],
            "name": "asks_for_up",
            "outputs": [
                {
                    "internalType": "address",
                    "name": "",
                    "type": "address"
                }
            ],
            "stateMutability": "view",
            "type": "function"
        },
        {
            "inputs": [
                {
                    "internalType": "string",
                    "name": "_login",
                    "type": "string"
                },
                {
                    "internalType": "string",
                    "name": "_password",
                    "type": "string"
                }
            ],
            "name": "check_auth_data",
            "outputs": [
                {
                    "internalType": "bool",
                    "name": "",
                    "type": "bool"
                }
            ],
            "stateMutability": "view",
            "type": "function"
        },
        {
            "inputs": [
                {
                    "internalType": "address",
                    "name": "_shop_address",
                    "type": "address"
                },
                {
                    "internalType": "string",
                    "name": "_message",
                    "type": "string"
                },
                {
                    "internalType": "uint8",
                    "name": "_rate",
                    "type": "uint8"
                }
            ],
            "name": "comment_shop",
            "outputs": [],
            "stateMutability": "nonpayable",
            "type": "function"
        },
        {
            "inputs": [
                {
                    "internalType": "address",
                    "name": "",
                    "type": "address"
                },
                {
                    "internalType": "uint256",
                    "name": "",
                    "type": "uint256"
                }
            ],
            "name": "comments",
            "outputs": [
                {
                    "internalType": "address",
                    "name": "owner",
                    "type": "address"
                },
                {
                    "internalType": "string",
                    "name": "message",
                    "type": "string"
                },
                {
                    "internalType": "uint8",
                    "name": "rate",
                    "type": "uint8"
                },
                {
                    "internalType": "uint128",
                    "name": "likes",
                    "type": "uint128"
                },
                {
                    "internalType": "uint128",
                    "name": "dislikes",
                    "type": "uint128"
                },
                {
                    "internalType": "bool",
                    "name": "in_use",
                    "type": "bool"
                }
            ],
            "stateMutability": "view",
            "type": "function"
        },
        {
            "inputs": [
                {
                    "internalType": "string",
                    "name": "_bank_name",
                    "type": "string"
                },
                {
                    "internalType": "address",
                    "name": "_bank_address",
                    "type": "address"
                },
                {
                    "internalType": "string",
                    "name": "_password",
                    "type": "string"
                }
            ],
            "name": "create_bank_account",
            "outputs": [],
            "stateMutability": "nonpayable",
            "type": "function"
        },
        {
            "inputs": [
                {
                    "internalType": "address",
                    "name": "",
                    "type": "address"
                }
            ],
            "name": "customers",
            "outputs": [
                {
                    "internalType": "string",
                    "name": "login",
                    "type": "string"
                },
                {
                    "internalType": "string",
                    "name": "name",
                    "type": "string"
                }
            ],
            "stateMutability": "view",
            "type": "function"
        },
        {
            "inputs": [
                {
                    "internalType": "address",
                    "name": "_shop_address",
                    "type": "address"
                }
            ],
            "name": "delete_shop",
            "outputs": [],
            "stateMutability": "nonpayable",
            "type": "function"
        },
        {
            "inputs": [
                {
                    "internalType": "address",
                    "name": "_shop_address",
                    "type": "address"
                },
                {
                    "internalType": "uint256",
                    "name": "_comment_id",
                    "type": "uint256"
                }
            ],
            "name": "dislike_comment",
            "outputs": [],
            "stateMutability": "nonpayable",
            "type": "function"
        },
        {
            "inputs": [
                {
                    "internalType": "address",
                    "name": "_shop_address",
                    "type": "address"
                },
                {
                    "internalType": "uint256",
                    "name": "_reply_id",
                    "type": "uint256"
                }
            ],
            "name": "dislike_reply",
            "outputs": [],
            "stateMutability": "nonpayable",
            "type": "function"
        },
        {
            "inputs": [
                {
                    "internalType": "address",
                    "name": "_seller_address",
                    "type": "address"
                }
            ],
            "name": "down_role",
            "outputs": [],
            "stateMutability": "nonpayable",
            "type": "function"
        },
        {
            "inputs": [
                {
                    "internalType": "address",
                    "name": "_admin_address",
                    "type": "address"
                }
            ],
            "name": "get_admin",
            "outputs": [
                {
                    "components": [
                        {
                            "internalType": "string",
                            "name": "login",
                            "type": "string"
                        },
                        {
                            "internalType": "string",
                            "name": "name",
                            "type": "string"
                        }
                    ],
                    "internalType": "struct Accounts.Admin",
                    "name": "",
                    "type": "tuple"
                }
            ],
            "stateMutability": "view",
            "type": "function"
        },
        {
            "inputs": [
                {
                    "internalType": "address",
                    "name": "_shop_address",
                    "type": "address"
                }
            ],
            "name": "get_ask_bank",
            "outputs": [
                {
                    "internalType": "uint256",
                    "name": "",
                    "type": "uint256"
                }
            ],
            "stateMutability": "view",
            "type": "function"
        },
        {
            "inputs": [
                {
                    "internalType": "address",
                    "name": "_customer_address",
                    "type": "address"
                }
            ],
            "name": "get_ask_for_down",
            "outputs": [
                {
                    "internalType": "address",
                    "name": "",
                    "type": "address"
                }
            ],
            "stateMutability": "view",
            "type": "function"
        },
        {
            "inputs": [
                {
                    "internalType": "address",
                    "name": "_customer_address",
                    "type": "address"
                }
            ],
            "name": "get_ask_for_up",
            "outputs": [
                {
                    "internalType": "address",
                    "name": "",
                    "type": "address"
                }
            ],
            "stateMutability": "view",
            "type": "function"
        },
        {
            "inputs": [],
            "name": "get_bank",
            "outputs": [
                {
                    "components": [
                        {
                            "internalType": "string",
                            "name": "name",
                            "type": "string"
                        },
                        {
                            "internalType": "address",
                            "name": "bank_address",
                            "type": "address"
                        }
                    ],
                    "internalType": "struct Accounts.Bank",
                    "name": "",
                    "type": "tuple"
                }
            ],
            "stateMutability": "view",
            "type": "function"
        },
        {
            "inputs": [
                {
                    "internalType": "address",
                    "name": "_shop_address",
                    "type": "address"
                },
                {
                    "internalType": "uint256",
                    "name": "_comment_id",
                    "type": "uint256"
                }
            ],
            "name": "get_comment",
            "outputs": [
                {
                    "components": [
                        {
                            "internalType": "address",
                            "name": "owner",
                            "type": "address"
                        },
                        {
                            "internalType": "string",
                            "name": "message",
                            "type": "string"
                        },
                        {
                            "internalType": "uint8",
                            "name": "rate",
                            "type": "uint8"
                        },
                        {
                            "internalType": "uint128",
                            "name": "likes",
                            "type": "uint128"
                        },
                        {
                            "internalType": "uint128",
                            "name": "dislikes",
                            "type": "uint128"
                        },
                        {
                            "internalType": "bool",
                            "name": "in_use",
                            "type": "bool"
                        }
                    ],
                    "internalType": "struct ReviewBook.Comment",
                    "name": "",
                    "type": "tuple"
                }
            ],
            "stateMutability": "view",
            "type": "function"
        },
        {
            "inputs": [
                {
                    "internalType": "address",
                    "name": "_customer_address",
                    "type": "address"
                }
            ],
            "name": "get_customer",
            "outputs": [
                {
                    "components": [
                        {
                            "internalType": "string",
                            "name": "login",
                            "type": "string"
                        },
                        {
                            "internalType": "string",
                            "name": "name",
                            "type": "string"
                        }
                    ],
                    "internalType": "struct Accounts.Customer",
                    "name": "",
                    "type": "tuple"
                }
            ],
            "stateMutability": "view",
            "type": "function"
        },
        {
            "inputs": [
                {
                    "internalType": "address",
                    "name": "_shop_address",
                    "type": "address"
                }
            ],
            "name": "get_debt",
            "outputs": [
                {
                    "internalType": "uint256",
                    "name": "",
                    "type": "uint256"
                }
            ],
            "stateMutability": "view",
            "type": "function"
        },
        {
            "inputs": [
                {
                    "internalType": "address",
                    "name": "_shop_address",
                    "type": "address"
                },
                {
                    "internalType": "uint256",
                    "name": "_comment_id",
                    "type": "uint256"
                }
            ],
            "name": "get_reply",
            "outputs": [
                {
                    "components": [
                        {
                            "internalType": "address",
                            "name": "owner",
                            "type": "address"
                        },
                        {
                            "internalType": "uint256",
                            "name": "comment_id",
                            "type": "uint256"
                        },
                        {
                            "internalType": "string",
                            "name": "message",
                            "type": "string"
                        },
                        {
                            "internalType": "uint8",
                            "name": "rate",
                            "type": "uint8"
                        },
                        {
                            "internalType": "uint128",
                            "name": "likes",
                            "type": "uint128"
                        },
                        {
                            "internalType": "uint128",
                            "name": "dislikes",
                            "type": "uint128"
                        },
                        {
                            "internalType": "bool",
                            "name": "in_use",
                            "type": "bool"
                        }
                    ],
                    "internalType": "struct ReviewBook.Reply",
                    "name": "",
                    "type": "tuple"
                }
            ],
            "stateMutability": "view",
            "type": "function"
        },
        {
            "inputs": [
                {
                    "internalType": "address",
                    "name": "_user_address",
                    "type": "address"
                }
            ],
            "name": "get_role",
            "outputs": [
                {
                    "internalType": "string",
                    "name": "",
                    "type": "string"
                }
            ],
            "stateMutability": "view",
            "type": "function"
        },
        {
            "inputs": [
                {
                    "internalType": "address",
                    "name": "_shop_address",
                    "type": "address"
                }
            ],
            "name": "get_shop",
            "outputs": [
                {
                    "components": [
                        {
                            "internalType": "string",
                            "name": "name",
                            "type": "string"
                        },
                        {
                            "internalType": "string",
                            "name": "city",
                            "type": "string"
                        },
                        {
                            "internalType": "address[]",
                            "name": "shop_sellers",
                            "type": "address[]"
                        },
                        {
                            "internalType": "uint16",
                            "name": "rate",
                            "type": "uint16"
                        },
                        {
                            "internalType": "uint256",
                            "name": "using_reviews",
                            "type": "uint256"
                        }
                    ],
                    "internalType": "struct Accounts.Shop",
                    "name": "",
                    "type": "tuple"
                }
            ],
            "stateMutability": "view",
            "type": "function"
        },
        {
            "inputs": [],
            "name": "get_users",
            "outputs": [
                {
                    "internalType": "address[]",
                    "name": "",
                    "type": "address[]"
                }
            ],
            "stateMutability": "view",
            "type": "function"
        },
        {
            "inputs": [
                {
                    "internalType": "address",
                    "name": "_shop_address",
                    "type": "address"
                },
                {
                    "internalType": "uint256",
                    "name": "_comment_id",
                    "type": "uint256"
                }
            ],
            "name": "like_comment",
            "outputs": [],
            "stateMutability": "nonpayable",
            "type": "function"
        },
        {
            "inputs": [
                {
                    "internalType": "address",
                    "name": "_shop_address",
                    "type": "address"
                },
                {
                    "internalType": "uint256",
                    "name": "_reply_id",
                    "type": "uint256"
                }
            ],
            "name": "like_reply",
            "outputs": [],
            "stateMutability": "nonpayable",
            "type": "function"
        },
        {
            "inputs": [
                {
                    "internalType": "address",
                    "name": "",
                    "type": "address"
                }
            ],
            "name": "providers",
            "outputs": [
                {
                    "internalType": "string",
                    "name": "name",
                    "type": "string"
                }
            ],
            "stateMutability": "view",
            "type": "function"
        },
        {
            "inputs": [
                {
                    "internalType": "address",
                    "name": "_shop_address",
                    "type": "address"
                },
                {
                    "internalType": "string",
                    "name": "_message",
                    "type": "string"
                },
                {
                    "internalType": "uint8",
                    "name": "_rate",
                    "type": "uint8"
                },
                {
                    "internalType": "uint256",
                    "name": "_comment_id",
                    "type": "uint256"
                }
            ],
            "name": "reply_on_comment",
            "outputs": [],
            "stateMutability": "nonpayable",
            "type": "function"
        },
        {
            "inputs": [
                {
                    "internalType": "address",
                    "name": "_shop_address",
                    "type": "address"
                },
                {
                    "internalType": "string",
                    "name": "_message",
                    "type": "string"
                },
                {
                    "internalType": "uint256",
                    "name": "_comment_id",
                    "type": "uint256"
                }
            ],
            "name": "reply_on_comment_by_shop",
            "outputs": [],
            "stateMutability": "nonpayable",
            "type": "function"
        },
        {
            "inputs": [
                {
                    "internalType": "address",
                    "name": "",
                    "type": "address"
                },
                {
                    "internalType": "uint256",
                    "name": "",
                    "type": "uint256"
                }
            ],
            "name": "replyes",
            "outputs": [
                {
                    "internalType": "address",
                    "name": "owner",
                    "type": "address"
                },
                {
                    "internalType": "uint256",
                    "name": "comment_id",
                    "type": "uint256"
                },
                {
                    "internalType": "string",
                    "name": "message",
                    "type": "string"
                },
                {
                    "internalType": "uint8",
                    "name": "rate",
                    "type": "uint8"
                },
                {
                    "internalType": "uint128",
                    "name": "likes",
                    "type": "uint128"
                },
                {
                    "internalType": "uint128",
                    "name": "dislikes",
                    "type": "uint128"
                },
                {
                    "internalType": "bool",
                    "name": "in_use",
                    "type": "bool"
                }
            ],
            "stateMutability": "view",
            "type": "function"
        },
        {
            "inputs": [
                {
                    "internalType": "address",
                    "name": "",
                    "type": "address"
                }
            ],
            "name": "role_per_address",
            "outputs": [
                {
                    "internalType": "enum Accounts.Role",
                    "name": "",
                    "type": "uint8"
                }
            ],
            "stateMutability": "view",
            "type": "function"
        },
        {
            "inputs": [
                {
                    "internalType": "address",
                    "name": "",
                    "type": "address"
                }
            ],
            "name": "sellers",
            "outputs": [
                {
                    "internalType": "string",
                    "name": "login",
                    "type": "string"
                },
                {
                    "internalType": "string",
                    "name": "name",
                    "type": "string"
                },
                {
                    "internalType": "string",
                    "name": "city",
                    "type": "string"
                },
                {
                    "internalType": "address",
                    "name": "shop_address",
                    "type": "address"
                }
            ],
            "stateMutability": "view",
            "type": "function"
        },
        {
            "inputs": [
                {
                    "internalType": "address",
                    "name": "_shop_address",
                    "type": "address"
                }
            ],
            "name": "send_money",
            "outputs": [],
            "stateMutability": "payable",
            "type": "function"
        },
        {
            "inputs": [
                {
                    "internalType": "address",
                    "name": "",
                    "type": "address"
                }
            ],
            "name": "shops",
            "outputs": [
                {
                    "internalType": "string",
                    "name": "name",
                    "type": "string"
                },
                {
                    "internalType": "string",
                    "name": "city",
                    "type": "string"
                },
                {
                    "internalType": "uint16",
                    "name": "rate",
                    "type": "uint16"
                },
                {
                    "internalType": "uint256",
                    "name": "using_reviews",
                    "type": "uint256"
                }
            ],
            "stateMutability": "view",
            "type": "function"
        },
        {
            "inputs": [
                {
                    "internalType": "address",
                    "name": "_customer_address",
                    "type": "address"
                }
            ],
            "name": "up_role",
            "outputs": [],
            "stateMutability": "nonpayable",
            "type": "function"
        },
        {
            "inputs": [
                {
                    "internalType": "uint256",
                    "name": "",
                    "type": "uint256"
                }
            ],
            "name": "users",
            "outputs": [
                {
                    "internalType": "address",
                    "name": "",
                    "type": "address"
                }
            ],
            "stateMutability": "view",
            "type": "function"
        }
    ],
    "bytecode": "608060405234801561001057600080fd5b50614312806100206000396000f3fe6080604052600436106102675760003560e01c80634c2c79dc11610144578063b4ab8fdf116100b6578063dea1f0dc1161007a578063dea1f0dc1461090b578063e324093b14610944578063e990e71d1461097a578063ed66aa1b1461099a578063f0191aff146109bc578063f14c316a146109dc57600080fd5b8063b4ab8fdf1461083f578063b4b9752014610872578063bacefcb814610892578063bf7cb88c146108b2578063c341cc21146108eb57600080fd5b80636d47ab72116101085780636d47ab72146106e65780636e70641f1461071657806378232aac14610743578063831454db1461079157806396888ea0146107ce578063b3b2baae146107fe57600080fd5b80634c2c79dc1461063b5780634e1f78ee1461064e5780635433ee091461066e57806356f11e03146106a45780636ac52782146106c457600080fd5b80632e2f14ab116101dd5780633cdce7dd116101a15780633cdce7dd1461055457806341550d2114610574578063429b62e51461059457806344a373d7146105b457806344a7361a146105e15780634559c60e1461060e57600080fd5b80632e2f14ab14610477578063336989ae146104975780633417b819146104c5578063365b98b2146104fc57806339c22db81461053457600080fd5b806316e9326c1161022f57806316e9326c1461035a57806321002e191461037a578063214f61d3146103b0578063253583c4146103fa5780632c6730cc1461041a5780632dca1fcc1461044757600080fd5b8063052bbde91461026c5780630787bc271461028e5780630c4174b7146102c45780630ce64997146102f657806313a070b71461033a575b600080fd5b34801561027857600080fd5b5061028c610287366004613849565b6109fc565b005b34801561029a57600080fd5b506102ae6102a93660046138c1565b610ab5565b6040516102bb919061393d565b60405180910390f35b3480156102d057600080fd5b506102e46102df366004613950565b610b53565b6040516102bb9695949392919061397c565b34801561030257600080fd5b5061032c6103113660046138c1565b6001600160a01b031660009081526006602052604090205490565b6040519081526020016102bb565b34801561034657600080fd5b5061028c6103553660046138c1565b610c51565b34801561036657600080fd5b5061028c6103753660046139d4565b610e28565b34801561038657600080fd5b5061032c6103953660046138c1565b6001600160a01b031660009081526009602052604090205490565b3480156103bc57600080fd5b5061028c6103cb3660046138c1565b33600090815260046020526040902080546001600160a01b0319166001600160a01b0392909216919091179055565b34801561040657600080fd5b5061028c610415366004613a2d565b610f52565b34801561042657600080fd5b5061043a610435366004613950565b6110ed565b6040516102bb9190613ac8565b34801561045357600080fd5b506104676104623660046138c1565b611254565b6040516102bb9493929190613b3e565b34801561048357600080fd5b5061028c610492366004613b7b565b611391565b3480156104a357600080fd5b506104b76104b23660046138c1565b6114c0565b6040516102bb929190613bec565b3480156104d157600080fd5b5061028c6104e0366004613950565b6001600160a01b03909116600090815260066020526040902055565b34801561050857600080fd5b5061051c610517366004613c1a565b6115ec565b6040516001600160a01b0390911681526020016102bb565b34801561054057600080fd5b506102ae61054f3660046138c1565b611616565b34801561056057600080fd5b5061028c61056f3660046138c1565b6117cc565b34801561058057600080fd5b5061028c61058f366004613c49565b6119d4565b3480156105a057600080fd5b506104b76105af3660046138c1565b611b2e565b3480156105c057600080fd5b5061032c6105cf3660046138c1565b60066020526000908152604090205481565b3480156105ed57600080fd5b506106016105fc3660046138c1565b611b49565b6040516102bb9190613cf5565b34801561061a57600080fd5b5061062e6106293660046138c1565b611d46565b6040516102bb9190613da0565b61028c6106493660046138c1565b611ea6565b34801561065a57600080fd5b5061028c610669366004613950565b611f05565b34801561067a57600080fd5b5061051c6106893660046138c1565b6005602052600090815260409020546001600160a01b031681565b3480156106b057600080fd5b5061028c6106bf3660046138c1565b612006565b3480156106d057600080fd5b506106d96121e9565b6040516102bb9190613db3565b3480156106f257600080fd5b506107066107013660046138c1565b6122b7565b6040516102bb9493929190613df0565b34801561072257600080fd5b50610736610731366004613950565b612480565b6040516102bb9190613e43565b34801561074f57600080fd5b5061028c336000908152600c6020908152604080832060030154600590925290912080546001600160a01b0319166001600160a01b0392909216919091179055565b34801561079d57600080fd5b506107c16107ac3660046138c1565b60016020526000908152604090205460ff1681565b6040516102bb9190613eda565b3480156107da57600080fd5b506107ee6107e9366004613f02565b61260e565b60405190151581526020016102bb565b34801561080a57600080fd5b5061051c610819366004613f66565b80516020818301810180516003825292820191909301209152546001600160a01b031681565b34801561084b57600080fd5b5061085f61085a366004613950565b61265f565b6040516102bb9796959493929190613f9b565b34801561087e57600080fd5b5061028c61088d366004613950565b612763565b34801561089e57600080fd5b5061028c6108ad366004613ff7565b612856565b3480156108be57600080fd5b5061051c6108cd3660046138c1565b6001600160a01b039081166000908152600460205260409020541690565b3480156108f757600080fd5b5061062e6109063660046138c1565b6129a7565b34801561091757600080fd5b5061051c6109263660046138c1565b6001600160a01b039081166000908152600560205260409020541690565b34801561095057600080fd5b5061051c61095f3660046138c1565b6004602052600090815260409020546001600160a01b031681565b34801561098657600080fd5b5061028c610995366004613950565b6129ec565b3480156109a657600080fd5b506109af612ac2565b6040516102bb9190614057565b3480156109c857600080fd5b5061028c6109d7366004613950565b612b24565b3480156109e857600080fd5b5061028c6109f73660046138c1565b612c0e565b604080518082019091528381526001600160a01b0383166020808301919091528451600791610a2f91839188019061364c565b50602091820151600191820180546001600160a01b0319166001600160a01b0392831617905584166000908152908252604090819020805460ff1916905551610a7a9183910161393d565b60405160208183030381529060405280519060200120600284604051610aa0919061406a565b90815260405190819003602001902055505050565b600b60205260009081526040902080548190610ad090614086565b80601f0160208091040260200160405190810160405280929190818152602001828054610afc90614086565b8015610b495780601f10610b1e57610100808354040283529160200191610b49565b820191906000526020600020905b815481529060010190602001808311610b2c57829003601f168201915b5050505050905081565b600f6020528160005260406000208181548110610b6f57600080fd5b6000918252602090912060049091020180546001820180546001600160a01b039092169450919250610ba090614086565b80601f0160208091040260200160405190810160405280929190818152602001828054610bcc90614086565b8015610c195780601f10610bee57610100808354040283529160200191610c19565b820191906000526020600020905b815481529060010190602001808311610bfc57829003601f168201915b505050506002830154600390930154919260ff808216936101009092046001600160801b039081169350821691600160801b90041686565b6040805180820182526001600160a01b0383166000908152600d602052919091208054829190610c8090614086565b80601f0160208091040260200160405190810160405280929190818152602001828054610cac90614086565b8015610cf95780601f10610cce57610100808354040283529160200191610cf9565b820191906000526020600020905b815481529060010190602001808311610cdc57829003601f168201915b50505050508152602001600d6000846001600160a01b03166001600160a01b031681526020019081526020016000206001018054610d3690614086565b80601f0160208091040260200160405190810160405280929190818152602001828054610d6290614086565b8015610daf5780601f10610d8457610100808354040283529160200191610daf565b820191906000526020600020905b815481529060010190602001808311610d9257829003601f168201915b5050509190925250506001600160a01b0382166000908152600e60209081526040909120825180519192610de89284929091019061364c565b506020828101518051610e01926001850192019061364c565b5050506001600160a01b03166000908152600160205260409020805460ff19166005179055565b336000908152600c60205260409020600301546001600160a01b03848116911614610e5257600080fd5b6001600160a01b038381166000908152601060209081526040808320815160e081018352338152808401878152928101888152606082018690526080820186905260a0820186905260c0820186905282546001808201855593875295859020825160059097020180546001600160a01b0319169690971695909517865591519085015591518051929392610eec926002850192019061364c565b506060820151600382018054608085015160ff9093166001600160881b0319918216176101006001600160801b03948516021790915560a08401516004909301805460c09095015193909216931692909217600160801b91151591909102179055505050565b610f886040518060a00160405280606081526020016060815260200160608152602001600061ffff168152602001600081525090565b8381526020808201849052600060608301819052608083018190526001600160a01b0387168152600a825260409020825180518493610fcb92849291019061364c565b506020828101518051610fe4926001850192019061364c565b50604082015180516110009160028401916020909101906136d0565b50606082015160038201805461ffff191661ffff9092169190911790556080909101516004909101556001600160a01b0385166000908152600160208190526040909120805460ff19168280021790555081604051602001611062919061393d565b60405160208183030381529060405280519060200120600285604051611088919061406a565b908152604051908190036020019020555050600080546001810182559080527f290decd9548b62a8d60345a988386fc84ba6bc95484008f6362f93160ef3e5630180546001600160a01b039094166001600160a01b0319909416939093179092555050565b6040805160c0810182526000808252606060208084018290528385018390529083018290526080830182905260a083018290526001600160a01b0386168252600f905291909120805483908110611146576111466140c1565b60009182526020918290206040805160c0810190915260049092020180546001600160a01b03168252600181018054929391929184019161118690614086565b80601f01602080910402602001604051908101604052809291908181526020018280546111b290614086565b80156111ff5780601f106111d4576101008083540402835291602001916111ff565b820191906000526020600020905b8154815290600101906020018083116111e257829003601f168201915b5050509183525050600282015460ff80821660208401526001600160801b03610100909204821660408401526003909301549081166060830152600160801b9004909116151560809091015290505b92915050565b600a6020526000908152604090208054819061126f90614086565b80601f016020809104026020016040519081016040528092919081815260200182805461129b90614086565b80156112e85780601f106112bd576101008083540402835291602001916112e8565b820191906000526020600020905b8154815290600101906020018083116112cb57829003601f168201915b5050505050908060010180546112fd90614086565b80601f016020809104026020016040519081016040528092919081815260200182805461132990614086565b80156113765780601f1061134b57610100808354040283529160200191611376565b820191906000526020600020905b81548152906001019060200180831161135957829003601f168201915b505050506003830154600490930154919261ffff1691905084565b6040805180820182528481526020808201859052336000908152600d82529290922081518051929391926113c8928492019061364c565b5060208281015180516113e1926001850192019061364c565b50506040516113f59150829060200161393d565b6040516020818303038152906040528051906020012060028460405161141b919061406a565b9081526040805191829003602090810183209390935533600081815260019094529220805460ff1916600417905560039061145790869061406a565b90815260405190819003602001902080546001600160a01b03929092166001600160a01b0319928316179055600080546001810182559080527f290decd9548b62a8d60345a988386fc84ba6bc95484008f6362f93160ef3e56301805490911633179055505050565b600d602052600090815260409020805481906114db90614086565b80601f016020809104026020016040519081016040528092919081815260200182805461150790614086565b80156115545780601f1061152957610100808354040283529160200191611554565b820191906000526020600020905b81548152906001019060200180831161153757829003601f168201915b50505050509080600101805461156990614086565b80601f016020809104026020016040519081016040528092919081815260200182805461159590614086565b80156115e25780601f106115b7576101008083540402835291602001916115e2565b820191906000526020600020905b8154815290600101906020018083116115c557829003601f168201915b5050505050905082565b600081815481106115fc57600080fd5b6000918252602090912001546001600160a01b0316905081565b6001600160a01b03811660009081526001602052604081205460609160ff9091169081600681111561164a5761164a613ec4565b141561167257505060408051808201909152600481526362616e6b60e01b6020820152919050565b600181600681111561168657611686613ec4565b14156116ae575050604080518082019091526004815263073686f760e41b6020820152919050565b60028160068111156116c2576116c2613ec4565b14156116ee575050604080518082019091526008815267383937bb34b232b960c11b6020820152919050565b600381600681111561170257611702613ec4565b141561172c57505060408051808201909152600681526539b2b63632b960d11b6020820152919050565b600481600681111561174057611740613ec4565b141561176c57505060408051808201909152600881526731bab9ba37b6b2b960c11b6020820152919050565b600581600681111561178057611780613ec4565b14156117a957505060408051808201909152600581526430b236b4b760d91b6020820152919050565b505060408051808201909152600581526419dd595cdd60da1b6020820152919050565b6001600160a01b038082166000908152600c60209081526040808320600301549093168252600a9052908120600201905b815462ffffff8216101561194557826001600160a01b0316828262ffffff168154811061182c5761182c6140c1565b6000918252602090912001546001600160a01b0316141561193357818162ffffff168154811061185e5761185e6140c1565b600091825260209091200180546001600160a01b031916905581548290611887906001906140ed565b81548110611897576118976140c1565b9060005260206000200160009054906101000a90046001600160a01b0316828262ffffff16815481106118cc576118cc6140c1565b600091825260209091200180546001600160a01b0319166001600160a01b039290921691909117905581548290611905906001906140ed565b81548110611915576119156140c1565b600091825260209091200180546001600160a01b0319169055611945565b8061193d81614104565b9150506117fd565b506001600160a01b0382166000908152600160209081526040808320805460ff19166004179055600c90915281209061197e8282613725565b61198c600183016000613725565b61199a600283016000613725565b5060030180546001600160a01b03199081169091556001600160a01b03929092166000908152600560205260409020805490921690915550565b60033360009081526001602052604090205460ff1660068111156119fa576119fa613ec4565b1415611a2b57336000908152600c60205260409020600301546001600160a01b0385811691161415611a2b57600080fd5b6001600160a01b038481166000908152601060209081526040808320815160e08101835233815280840187815292810189815260ff891660608301526080820186905260a0820186905260c0820186905282546001808201855593875295859020825160059097020180546001600160a01b0319169690971695909517865591519085015591518051929392611ac7926002850192019061364c565b506060820151600382018054608085015160ff9093166001600160881b0319918216176101006001600160801b03948516021790915560a08401516004909301805460c09095015193909216931692909217600160801b9115159190910217905550505050565b600e602052600090815260409020805481906114db90614086565b611b7f6040518060a00160405280606081526020016060815260200160608152602001600061ffff168152602001600081525090565b6001600160a01b0382166000908152600a602052604090819020815160a08101909252805482908290611bb190614086565b80601f0160208091040260200160405190810160405280929190818152602001828054611bdd90614086565b8015611c2a5780601f10611bff57610100808354040283529160200191611c2a565b820191906000526020600020905b815481529060010190602001808311611c0d57829003601f168201915b50505050508152602001600182018054611c4390614086565b80601f0160208091040260200160405190810160405280929190818152602001828054611c6f90614086565b8015611cbc5780601f10611c9157610100808354040283529160200191611cbc565b820191906000526020600020905b815481529060010190602001808311611c9f57829003601f168201915b5050505050815260200160028201805480602002602001604051908101604052809291908181526020018280548015611d1e57602002820191906000526020600020905b81546001600160a01b03168152600190910190602001808311611d00575b5050509183525050600382015461ffff16602082015260049091015460409091015292915050565b60408051808201909152606080825260208201526001600160a01b0382166000908152600e6020526040908190208151808301909252805482908290611d8b90614086565b80601f0160208091040260200160405190810160405280929190818152602001828054611db790614086565b8015611e045780601f10611dd957610100808354040283529160200191611e04565b820191906000526020600020905b815481529060010190602001808311611de757829003601f168201915b50505050508152602001600182018054611e1d90614086565b80601f0160208091040260200160405190810160405280929190818152602001828054611e4990614086565b8015611e965780601f10611e6b57610100808354040283529160200191611e96565b820191906000526020600020905b815481529060010190602001808311611e7957829003601f168201915b5050505050815250509050919050565b6001600160a01b0381166000818152600960205260408082203490819055905181156108fc0292818181858888f19350505050158015611eea573d6000803e3d6000fd5b506001600160a01b0316600090815260066020526040812055565b6001600160a01b0382166000908152600f60205260408120805483908110611f2f57611f2f6140c1565b906000526020600020906004020190506000611f4b8484612f29565b905060018260020160018282829054906101000a90046001600160801b0316611f749190614127565b92506101000a8154816001600160801b0302191690836001600160801b0316021790555080158015611fab5750611fab8484612f29565b156120005760038201805460ff60801b1916600160801b1790556001600160a01b0384166000908152600a60205260409020611fe6856130ad565b600391909101805461ffff191661ffff9092169190911790555b50505050565b60005b6001600160a01b0382166000908152600a602052604090206002015462ffffff82161015612094576001600160a01b0382166000908152600a602052604090206002018054612082919062ffffff8416908110612068576120686140c1565b6000918252602090912001546001600160a01b03166117cc565b8061208c81614104565b915050612009565b506001600160a01b0381166000908152600a60205260409081902090516002916120bd91614152565b90815260408051602092819003830190206000908190556001600160a01b038416815260019092528120805460ff191690555b6000546001600160801b038216101561219057816001600160a01b03166000826001600160801b031681548110612129576121296140c1565b6000918252602090912001546001600160a01b0316141561217e576000816001600160801b031681548110612160576121606140c1565b600091825260209091200180546001600160a01b0319169055612190565b80612188816141ee565b9150506120f0565b506001600160a01b0381166000908152600a60205260408120906121b48282613725565b6121c2600183016000613725565b6121d0600283016000613762565b5060038101805461ffff19169055600060049091015550565b604080518082019091526060815260006020820152600760405180604001604052908160008201805461221b90614086565b80601f016020809104026020016040519081016040528092919081815260200182805461224790614086565b80156122945780601f1061226957610100808354040283529160200191612294565b820191906000526020600020905b81548152906001019060200180831161227757829003601f168201915b5050509183525050600191909101546001600160a01b0316602090910152919050565b600c602052600090815260409020805481906122d290614086565b80601f01602080910402602001604051908101604052809291908181526020018280546122fe90614086565b801561234b5780601f106123205761010080835404028352916020019161234b565b820191906000526020600020905b81548152906001019060200180831161232e57829003601f168201915b50505050509080600101805461236090614086565b80601f016020809104026020016040519081016040528092919081815260200182805461238c90614086565b80156123d95780601f106123ae576101008083540402835291602001916123d9565b820191906000526020600020905b8154815290600101906020018083116123bc57829003601f168201915b5050505050908060020180546123ee90614086565b80601f016020809104026020016040519081016040528092919081815260200182805461241a90614086565b80156124675780601f1061243c57610100808354040283529160200191612467565b820191906000526020600020905b81548152906001019060200180831161244a57829003601f168201915b505050600390930154919250506001600160a01b031684565b6040805160e08101825260008082526020808301829052606083850181905283018290526080830182905260a0830182905260c083018290526001600160a01b038616825260109052919091208054839081106124df576124df6140c1565b90600052602060002090600502016040518060e00160405290816000820160009054906101000a90046001600160a01b03166001600160a01b03166001600160a01b031681526020016001820154815260200160028201805461254190614086565b80601f016020809104026020016040519081016040528092919081815260200182805461256d90614086565b80156125ba5780601f1061258f576101008083540402835291602001916125ba565b820191906000526020600020905b81548152906001019060200180831161259d57829003601f168201915b5050509183525050600382015460ff80821660208401526001600160801b03610100909204821660408401526004909301549081166060830152600160801b90049091161515608090910152905092915050565b600081604051602001612621919061393d565b60405160208183030381529060405280519060200120600284604051612647919061406a565b90815260200160405180910390205414905092915050565b6010602052816000526040600020818154811061267b57600080fd5b60009182526020909120600590910201805460018201546002830180546001600160a01b039093169550909350906126b290614086565b80601f01602080910402602001604051908101604052809291908181526020018280546126de90614086565b801561272b5780601f106127005761010080835404028352916020019161272b565b820191906000526020600020905b81548152906001019060200180831161270e57829003601f168201915b505050506003830154600490930154919260ff808216936101009092046001600160801b039081169350821691600160801b90041687565b6001600160a01b038216600090815260106020526040812080548390811061278d5761278d6140c1565b9060005260206000209060050201905060006127a984846134ab565b905060018260030160018282829054906101000a90046001600160801b03166127d29190614127565b92506101000a8154816001600160801b0302191690836001600160801b0316021790555080158015612809575061280984846134ab565b801561281b5750600382015460ff1615155b156120005760048201805460ff60801b1916600160801b1790556001600160a01b0384166000908152600a60205260409020611fe6856130ad565b60033360009081526001602052604090205460ff16600681111561287c5761287c613ec4565b14156128ad57336000908152600c60205260409020600301546001600160a01b03848116911614156128ad57600080fd5b6001600160a01b038381166000908152600f60209081526040808320815160c08101835233815280840188815260ff881693820193909352606081018590526080810185905260a0810185905281546001808201845592865294849020815160049096020180546001600160a01b03191695909616949094178555905180519394936129419392850192919091019061364c565b506040820151600282018054606085015160ff9093166001600160881b0319918216176101006001600160801b03948516021790915560808401516003909301805460a09095015193909216931692909217600160801b91151591909102179055505050565b60408051808201909152606080825260208201526001600160a01b0382166000908152600d6020526040908190208151808301909252805482908290611d8b90614086565b6001600160a01b0382166000908152600f60205260408120805483908110612a1657612a166140c1565b906000526020600020906004020190506000612a328484612f29565b600383018054919250600191600090612a559084906001600160801b0316614127565b92506101000a8154816001600160801b0302191690836001600160801b03160217905550808015612a8d5750612a8b8484612f29565b155b156120005760038201805460ff60801b191690556001600160a01b0384166000908152600a60205260409020611fe6856130ad565b60606000805480602002602001604051908101604052809291908181526020018280548015612b1a57602002820191906000526020600020905b81546001600160a01b03168152600190910190602001808311612afc575b5050505050905090565b6001600160a01b0382166000908152601060205260408120805483908110612b4e57612b4e6140c1565b906000526020600020906005020190506000612b6a84846134ab565b600483018054919250600191600090612b8d9084906001600160801b0316614127565b92506101000a8154816001600160801b0302191690836001600160801b031602179055508080156128095750612bc384846134ab565b15801561281b5750600382015460ff16156120005760048201805460ff60801b1916600160801b1790556001600160a01b0384166000908152600a60205260409020611fe6856130ad565b6001600160a01b038082166000908152600460209081526040808320548151608081018352600d9093529220805492909316929091829190612c4f90614086565b80601f0160208091040260200160405190810160405280929190818152602001828054612c7b90614086565b8015612cc85780601f10612c9d57610100808354040283529160200191612cc8565b820191906000526020600020905b815481529060010190602001808311612cab57829003601f168201915b50505050508152602001600d6000856001600160a01b03166001600160a01b031681526020019081526020016000206001018054612d0590614086565b80601f0160208091040260200160405190810160405280929190818152602001828054612d3190614086565b8015612d7e5780601f10612d5357610100808354040283529160200191612d7e565b820191906000526020600020905b815481529060010190602001808311612d6157829003601f168201915b50505050508152602001600a6000846001600160a01b03166001600160a01b031681526020019081526020016000206001018054612dbb90614086565b80601f0160208091040260200160405190810160405280929190818152602001828054612de790614086565b8015612e345780601f10612e0957610100808354040283529160200191612e34565b820191906000526020600020905b815481529060010190602001808311612e1757829003601f168201915b50505091835250506001600160a01b0380841660209283015284166000908152600c825260409020825180519192612e719284929091019061364c565b506020828101518051612e8a926001850192019061364c565b5060408201518051612ea691600284019160209091019061364c565b5060609190910151600391820180546001600160a01b039283166001600160a01b0319918216179091559381166000818152600160208181526040808420805460ff1916909717909655959093168152600a8552838120600201805493840181558152848120909201805486168217905581526004909252902080549091169055565b6001600160a01b0382166000908152600f60205260408120805482919084908110612f5657612f566140c1565b60009182526020918290206040805160c0810190915260049092020180546001600160a01b031682526001810180549293919291840191612f9690614086565b80601f0160208091040260200160405190810160405280929190818152602001828054612fc290614086565b801561300f5780601f10612fe45761010080835404028352916020019161300f565b820191906000526020600020905b815481529060010190602001808311612ff257829003601f168201915b5050509183525050600282015460ff80821660208401526001600160801b0361010090920482166040840152600390930154808216606080850191909152600160801b909104909316151560809092019190915290820151919250600a9116118015613094575080608001516001600160801b031681606001516001600160801b0316115b156130a357600191505061124e565b5060009392505050565b60008080805b6001600160a01b0385166000908152600f602052604090205481101561329e576001600160a01b0385166000908152600f602052604090208054829081106130fd576130fd6140c1565b906000526020600020906004020160030160109054906101000a900460ff161561328c576001600160a01b0385166000908152600f6020526040902080548290811061314b5761314b6140c1565b60009182526020808320600360049093020191909101546001600160a01b0388168352600f909152604090912080546001600160801b039092169183908110613196576131966140c1565b906000526020600020906004020160020160019054906101000a90046001600160801b03166131c59190614127565b6001600160a01b0386166000908152600f602052604090208054839081106131ef576131ef6140c1565b906000526020600020906004020160020160019054906101000a90046001600160801b031661321e9190614221565b6001600160a01b0386166000908152600f60205260409020805483908110613248576132486140c1565b6000918252602090912060026004909202010154613269919060ff16614247565b61327c906001600160801b031684614276565b9250816132888161428e565b9250505b806132968161428e565b9150506130b3565b5060005b6001600160a01b03851660009081526010602052604090205481101561348d576001600160a01b0385166000908152600f602052604090208054829081106132ec576132ec6140c1565b906000526020600020906004020160030160109054906101000a900460ff161561347b576001600160a01b038516600090815260106020526040902080548290811061333a5761333a6140c1565b60009182526020808320600460059093020191909101546001600160a01b03881683526010909152604090912080546001600160801b039092169183908110613385576133856140c1565b906000526020600020906005020160030160019054906101000a90046001600160801b03166133b49190614127565b6001600160a01b03861660009081526010602052604090208054839081106133de576133de6140c1565b906000526020600020906005020160030160019054906101000a90046001600160801b031661340d9190614221565b6001600160a01b0386166000908152601060205260409020805483908110613437576134376140c1565b6000918252602090912060036005909202010154613458919060ff16614247565b61346b906001600160801b031684614276565b9250816134778161428e565b9250505b806134858161428e565b9150506132a2565b5061349881836142a9565b6134a39060646142bd565b949350505050565b6001600160a01b03821660009081526010602052604081208054829190849081106134d8576134d86140c1565b90600052602060002090600502016040518060e00160405290816000820160009054906101000a90046001600160a01b03166001600160a01b03166001600160a01b031681526020016001820154815260200160028201805461353a90614086565b80601f016020809104026020016040519081016040528092919081815260200182805461356690614086565b80156135b35780601f10613588576101008083540402835291602001916135b3565b820191906000526020600020905b81548152906001019060200180831161359657829003601f168201915b5050509183525050600382015460ff80821660208401526101009091046001600160801b0390811660408401526004909301548084166060840152600160801b9004161515608091820152820151919250600a911611801561362e57508060a001516001600160801b031681608001516001600160801b0316115b80156130945750606081015160ff16156130a357600191505061124e565b82805461365890614086565b90600052602060002090601f01602090048101928261367a57600085556136c0565b82601f1061369357805160ff19168380011785556136c0565b828001600101855582156136c0579182015b828111156136c05782518255916020019190600101906136a5565b506136cc92915061377c565b5090565b8280548282559060005260206000209081019282156136c0579160200282015b828111156136c057825182546001600160a01b0319166001600160a01b039091161782556020909201916001909101906136f0565b50805461373190614086565b6000825580601f10613741575050565b601f01602090049060005260206000209081019061375f919061377c565b50565b508054600082559060005260206000209081019061375f91905b5b808211156136cc576000815560010161377d565b634e487b7160e01b600052604160045260246000fd5b600082601f8301126137b857600080fd5b813567ffffffffffffffff808211156137d3576137d3613791565b604051601f8301601f19908116603f011681019082821181831017156137fb576137fb613791565b8160405283815286602085880101111561381457600080fd5b836020870160208301376000602085830101528094505050505092915050565b6001600160a01b038116811461375f57600080fd5b60008060006060848603121561385e57600080fd5b833567ffffffffffffffff8082111561387657600080fd5b613882878388016137a7565b94506020860135915061389482613834565b909250604085013590808211156138aa57600080fd5b506138b7868287016137a7565b9150509250925092565b6000602082840312156138d357600080fd5b81356138de81613834565b9392505050565b60005b838110156139005781810151838201526020016138e8565b838111156120005750506000910152565b600081518084526139298160208601602086016138e5565b601f01601f19169290920160200192915050565b6020815260006138de6020830184613911565b6000806040838503121561396357600080fd5b823561396e81613834565b946020939093013593505050565b6001600160a01b038716815260c0602082018190526000906139a090830188613911565b60ff969096166040830152506001600160801b03938416606082015291909216608082015290151560a09091015292915050565b6000806000606084860312156139e957600080fd5b83356139f481613834565b9250602084013567ffffffffffffffff811115613a1057600080fd5b613a1c868287016137a7565b925050604084013590509250925092565b60008060008060808587031215613a4357600080fd5b8435613a4e81613834565b9350602085013567ffffffffffffffff80821115613a6b57600080fd5b613a77888389016137a7565b94506040870135915080821115613a8d57600080fd5b613a99888389016137a7565b93506060870135915080821115613aaf57600080fd5b50613abc878288016137a7565b91505092959194509250565b602080825282516001600160a01b03168282015282015160c06040830152600090613af660e0840182613911565b905060ff604085015116606084015260608401516001600160801b0380821660808601528060808701511660a0860152505060a0840151151560c08401528091505092915050565b608081526000613b516080830187613911565b8281036020840152613b638187613911565b61ffff95909516604084015250506060015292915050565b600080600060608486031215613b9057600080fd5b833567ffffffffffffffff80821115613ba857600080fd5b613bb4878388016137a7565b94506020860135915080821115613bca57600080fd5b613bd6878388016137a7565b935060408601359150808211156138aa57600080fd5b604081526000613bff6040830185613911565b8281036020840152613c118185613911565b95945050505050565b600060208284031215613c2c57600080fd5b5035919050565b803560ff81168114613c4457600080fd5b919050565b60008060008060808587031215613c5f57600080fd5b8435613c6a81613834565b9350602085013567ffffffffffffffff811115613c8657600080fd5b613c92878288016137a7565b935050613ca160408601613c33565b9396929550929360600135925050565b600081518084526020808501945080840160005b83811015613cea5781516001600160a01b031687529582019590820190600101613cc5565b509495945050505050565b602081526000825160a06020840152613d1160c0840182613911565b90506020840151601f1980858403016040860152613d2f8383613911565b9250604086015191508085840301606086015250613d4d8282613cb1565b91505061ffff6060850151166080840152608084015160a08401528091505092915050565b6000815160408452613d876040850182613911565b905060208301518482036020860152613c118282613911565b6020815260006138de6020830184613d72565b602081526000825160406020840152613dcf6060840182613911565b602094909401516001600160a01b0316604093909301929092525090919050565b608081526000613e036080830187613911565b8281036020840152613e158187613911565b90508281036040840152613e298186613911565b91505060018060a01b038316606083015295945050505050565b6020815260018060a01b038251166020820152602082015160408201526000604083015160e06060840152613e7c610100840182613911565b905060ff606085015116608084015260808401516001600160801b0380821660a08601528060a08701511660c0860152505060c0840151151560e08401528091505092915050565b634e487b7160e01b600052602160045260246000fd5b6020810160078310613efc57634e487b7160e01b600052602160045260246000fd5b91905290565b60008060408385031215613f1557600080fd5b823567ffffffffffffffff80821115613f2d57600080fd5b613f39868387016137a7565b93506020850135915080821115613f4f57600080fd5b50613f5c858286016137a7565b9150509250929050565b600060208284031215613f7857600080fd5b813567ffffffffffffffff811115613f8f57600080fd5b6134a3848285016137a7565b60018060a01b038816815286602082015260e060408201526000613fc260e0830188613911565b60ff969096166060830152506001600160801b0393841660808201529190921660a082015290151560c0909101529392505050565b60008060006060848603121561400c57600080fd5b833561401781613834565b9250602084013567ffffffffffffffff81111561403357600080fd5b61403f868287016137a7565b92505061404e60408501613c33565b90509250925092565b6020815260006138de6020830184613cb1565b6000825161407c8184602087016138e5565b9190910192915050565b600181811c9082168061409a57607f821691505b602082108114156140bb57634e487b7160e01b600052602260045260246000fd5b50919050565b634e487b7160e01b600052603260045260246000fd5b634e487b7160e01b600052601160045260246000fd5b6000828210156140ff576140ff6140d7565b500390565b600062ffffff8083168181141561411d5761411d6140d7565b6001019392505050565b60006001600160801b03808316818516808303821115614149576141496140d7565b01949350505050565b600080835481600182811c91508083168061416e57607f831692505b602080841082141561418e57634e487b7160e01b86526022600452602486fd5b8180156141a257600181146141b3576141e0565b60ff198616895284890196506141e0565b60008a81526020902060005b868110156141d85781548b8201529085019083016141bf565b505084890196505b509498975050505050505050565b60006001600160801b038083168181141561411d5761411d6140d7565b634e487b7160e01b600052601260045260246000fd5b60006001600160801b038084168061423b5761423b61420b565b92169190910492915050565b60006001600160801b038083168185168183048111821515161561426d5761426d6140d7565b02949350505050565b60008219821115614289576142896140d7565b500190565b60006000198214156142a2576142a26140d7565b5060010190565b6000826142b8576142b861420b565b500490565b60008160001904831182151516156142d7576142d76140d7565b50029056fea26469706673582212200e56e8fe48944f951857ac5b375dd149d4ba2c7eb8e0c9a0842cee598bf8efa664736f6c63430008090033",
    "sourcePath": "/home/morimaroo17/work/blockchain_work/solidity_work/prepare/contracts/ReviewBook.sol",
    "compiler": {
        "name": "solc",
        "version": "0.8.9+commit.e5eed63a"
    },
    "functionHashes": {
        "add_admin(address)": "13a070b7",
        "add_customer(string,string,string)": "2e2f14ab",
        "add_shop(address,string,string,string)": "253583c4",
        "address_per_login(string)": "b3b2baae",
        "admins(address)": "429b62e5",
        "ask_bank(address,uint256)": "3417b819",
        "ask_for_down()": "78232aac",
        "ask_for_up(address)": "214f61d3",
        "asks_bank(address)": "44a373d7",
        "asks_for_down(address)": "5433ee09",
        "asks_for_up(address)": "e324093b",
        "check_auth_data(string,string)": "96888ea0",
        "comment_shop(address,string,uint8)": "bacefcb8",
        "comments(address,uint256)": "0c4174b7",
        "create_bank_account(string,address,string)": "052bbde9",
        "customers(address)": "336989ae",
        "delete_shop(address)": "56f11e03",
        "dislike_comment(address,uint256)": "e990e71d",
        "dislike_reply(address,uint256)": "f0191aff",
        "down_role(address)": "3cdce7dd",
        "get_admin(address)": "4559c60e",
        "get_ask_bank(address)": "0ce64997",
        "get_ask_for_down(address)": "dea1f0dc",
        "get_ask_for_up(address)": "bf7cb88c",
        "get_bank()": "6ac52782",
        "get_comment(address,uint256)": "2c6730cc",
        "get_customer(address)": "c341cc21",
        "get_debt(address)": "21002e19",
        "get_reply(address,uint256)": "6e70641f",
        "get_role(address)": "39c22db8",
        "get_shop(address)": "44a7361a",
        "get_users()": "ed66aa1b",
        "like_comment(address,uint256)": "4e1f78ee",
        "like_reply(address,uint256)": "b4b97520",
        "providers(address)": "0787bc27",
        "reply_on_comment(address,string,uint8,uint256)": "41550d21",
        "reply_on_comment_by_shop(address,string,uint256)": "16e9326c",
        "replyes(address,uint256)": "b4ab8fdf",
        "role_per_address(address)": "831454db",
        "sellers(address)": "6d47ab72",
        "send_money(address)": "4c2c79dc",
        "shops(address)": "2dca1fcc",
        "up_role(address)": "f14c316a",
        "users(uint256)": "365b98b2"
    },
    "gasEstimates": {
        "creation": {
            "codeDepositCost": "3434000",
            "executionCost": "3836",
            "totalCost": "3437836"
        },
        "external": {
            "add_admin(address)": "infinite",
            "add_customer(string,string,string)": "infinite",
            "add_shop(address,string,string,string)": "infinite",
            "address_per_login(string)": "infinite",
            "admins(address)": "infinite",
            "ask_bank(address,uint256)": "22588",
            "ask_for_down()": "26733",
            "ask_for_up(address)": "24711",
            "asks_bank(address)": "2624",
            "asks_for_down(address)": "2642",
            "asks_for_up(address)": "2618",
            "check_auth_data(string,string)": "infinite",
            "comment_shop(address,string,uint8)": "infinite",
            "comments(address,uint256)": "infinite",
            "create_bank_account(string,address,string)": "infinite",
            "customers(address)": "infinite",
            "delete_shop(address)": "infinite",
            "dislike_comment(address,uint256)": "infinite",
            "dislike_reply(address,uint256)": "infinite",
            "down_role(address)": "infinite",
            "get_admin(address)": "infinite",
            "get_ask_bank(address)": "2644",
            "get_ask_for_down(address)": "2605",
            "get_ask_for_up(address)": "2672",
            "get_bank()": "infinite",
            "get_comment(address,uint256)": "infinite",
            "get_customer(address)": "infinite",
            "get_debt(address)": "2599",
            "get_reply(address,uint256)": "infinite",
            "get_role(address)": "infinite",
            "get_shop(address)": "infinite",
            "get_users()": "infinite",
            "like_comment(address,uint256)": "infinite",
            "like_reply(address,uint256)": "infinite",
            "providers(address)": "infinite",
            "reply_on_comment(address,string,uint8,uint256)": "infinite",
            "reply_on_comment_by_shop(address,string,uint256)": "infinite",
            "replyes(address,uint256)": "infinite",
            "role_per_address(address)": "2677",
            "sellers(address)": "infinite",
            "send_money(address)": "infinite",
            "shops(address)": "infinite",
            "up_role(address)": "infinite",
            "users(uint256)": "4726"
        },
        "internal": {
            "_check_comment_for_using(address,uint256)": "infinite",
            "_check_reply_for_using(address,uint256)": "infinite",
            "_count_rate(address)": "infinite"
        }
    }
}