{
    "contractName": "ReviewBook",
    "abi": [
        {
            "inputs": [
                {
                    "internalType": "address",
                    "name": "_new_admin_address",
                    "type": "address"
                }
            ],
            "name": "add_admin",
            "outputs": [],
            "stateMutability": "nonpayable",
            "type": "function"
        },
        {
            "inputs": [
                {
                    "internalType": "string",
                    "name": "_login",
                    "type": "string"
                },
                {
                    "internalType": "string",
                    "name": "_name",
                    "type": "string"
                },
                {
                    "internalType": "string",
                    "name": "_password",
                    "type": "string"
                }
            ],
            "name": "add_customer",
            "outputs": [],
            "stateMutability": "nonpayable",
            "type": "function"
        },
        {
            "inputs": [
                {
                    "internalType": "address payable",
                    "name": "_shop_address",
                    "type": "address"
                },
                {
                    "internalType": "string",
                    "name": "_name",
                    "type": "string"
                },
                {
                    "internalType": "string",
                    "name": "_city",
                    "type": "string"
                },
                {
                    "internalType": "string",
                    "name": "_password",
                    "type": "string"
                }
            ],
            "name": "add_shop",
            "outputs": [],
            "stateMutability": "nonpayable",
            "type": "function"
        },
        {
            "inputs": [
                {
                    "internalType": "string",
                    "name": "",
                    "type": "string"
                }
            ],
            "name": "address_per_login",
            "outputs": [
                {
                    "internalType": "address",
                    "name": "",
                    "type": "address"
                }
            ],
            "stateMutability": "view",
            "type": "function"
        },
        {
            "inputs": [
                {
                    "internalType": "address",
                    "name": "",
                    "type": "address"
                }
            ],
            "name": "admins",
            "outputs": [
                {
                    "internalType": "string",
                    "name": "login",
                    "type": "string"
                },
                {
                    "internalType": "string",
                    "name": "name",
                    "type": "string"
                }
            ],
            "stateMutability": "view",
            "type": "function"
        },
        {
            "inputs": [
                {
                    "internalType": "address",
                    "name": "_shop_address",
                    "type": "address"
                },
                {
                    "internalType": "uint256",
                    "name": "value",
                    "type": "uint256"
                }
            ],
            "name": "ask_bank",
            "outputs": [],
            "stateMutability": "nonpayable",
            "type": "function"
        },
        {
            "inputs": [],
            "name": "ask_for_down",
            "outputs": [],
            "stateMutability": "nonpayable",
            "type": "function"
        },
        {
            "inputs": [
                {
                    "internalType": "address",
                    "name": "_shop_address",
                    "type": "address"
                }
            ],
            "name": "ask_for_up",
            "outputs": [],
            "stateMutability": "nonpayable",
            "type": "function"
        },
        {
            "inputs": [
                {
                    "internalType": "address",
                    "name": "",
                    "type": "address"
                }
            ],
            "name": "asks_bank",
            "outputs": [
                {
                    "internalType": "uint256",
                    "name": "",
                    "type": "uint256"
                }
            ],
            "stateMutability": "view",
            "type": "function"
        },
        {
            "inputs": [
                {
                    "internalType": "address",
                    "name": "",
                    "type": "address"
                }
            ],
            "name": "asks_for_down",
            "outputs": [
                {
                    "internalType": "address",
                    "name": "",
                    "type": "address"
                }
            ],
            "stateMutability": "view",
            "type": "function"
        },
        {
            "inputs": [
                {
                    "internalType": "address",
                    "name": "",
                    "type": "address"
                }
            ],
            "name": "asks_for_up",
            "outputs": [
                {
                    "internalType": "address",
                    "name": "",
                    "type": "address"
                }
            ],
            "stateMutability": "view",
            "type": "function"
        },
        {
            "inputs": [
                {
                    "internalType": "string",
                    "name": "_login",
                    "type": "string"
                },
                {
                    "internalType": "string",
                    "name": "_password",
                    "type": "string"
                }
            ],
            "name": "check_auth_data",
            "outputs": [
                {
                    "internalType": "bool",
                    "name": "",
                    "type": "bool"
                }
            ],
            "stateMutability": "view",
            "type": "function"
        },
        {
            "inputs": [
                {
                    "internalType": "address",
                    "name": "_shop_address",
                    "type": "address"
                },
                {
                    "internalType": "string",
                    "name": "_message",
                    "type": "string"
                },
                {
                    "internalType": "uint8",
                    "name": "_rate",
                    "type": "uint8"
                }
            ],
            "name": "comment_shop",
            "outputs": [],
            "stateMutability": "nonpayable",
            "type": "function"
        },
        {
            "inputs": [
                {
                    "internalType": "address",
                    "name": "",
                    "type": "address"
                },
                {
                    "internalType": "uint256",
                    "name": "",
                    "type": "uint256"
                }
            ],
            "name": "comments",
            "outputs": [
                {
                    "internalType": "address",
                    "name": "owner",
                    "type": "address"
                },
                {
                    "internalType": "string",
                    "name": "message",
                    "type": "string"
                },
                {
                    "internalType": "uint8",
                    "name": "rate",
                    "type": "uint8"
                },
                {
                    "internalType": "uint128",
                    "name": "likes",
                    "type": "uint128"
                },
                {
                    "internalType": "uint128",
                    "name": "dislikes",
                    "type": "uint128"
                },
                {
                    "internalType": "bool",
                    "name": "in_use",
                    "type": "bool"
                }
            ],
            "stateMutability": "view",
            "type": "function"
        },
        {
            "inputs": [
                {
                    "internalType": "string",
                    "name": "_bank_name",
                    "type": "string"
                },
                {
                    "internalType": "address",
                    "name": "_bank_address",
                    "type": "address"
                },
                {
                    "internalType": "string",
                    "name": "_password",
                    "type": "string"
                }
            ],
            "name": "create_bank_account",
            "outputs": [],
            "stateMutability": "nonpayable",
            "type": "function"
        },
        {
            "inputs": [
                {
                    "internalType": "address",
                    "name": "",
                    "type": "address"
                }
            ],
            "name": "customers",
            "outputs": [
                {
                    "internalType": "string",
                    "name": "login",
                    "type": "string"
                },
                {
                    "internalType": "string",
                    "name": "name",
                    "type": "string"
                }
            ],
            "stateMutability": "view",
            "type": "function"
        },
        {
            "inputs": [
                {
                    "internalType": "address",
                    "name": "_shop_address",
                    "type": "address"
                }
            ],
            "name": "delete_shop",
            "outputs": [],
            "stateMutability": "nonpayable",
            "type": "function"
        },
        {
            "inputs": [
                {
                    "internalType": "address",
                    "name": "_shop_address",
                    "type": "address"
                },
                {
                    "internalType": "uint256",
                    "name": "_comment_id",
                    "type": "uint256"
                }
            ],
            "name": "dislike_comment",
            "outputs": [],
            "stateMutability": "nonpayable",
            "type": "function"
        },
        {
            "inputs": [
                {
                    "internalType": "address",
                    "name": "_shop_address",
                    "type": "address"
                },
                {
                    "internalType": "uint256",
                    "name": "_reply_id",
                    "type": "uint256"
                }
            ],
            "name": "dislike_reply",
            "outputs": [],
            "stateMutability": "nonpayable",
            "type": "function"
        },
        {
            "inputs": [
                {
                    "internalType": "address",
                    "name": "_seller_address",
                    "type": "address"
                }
            ],
            "name": "down_role",
            "outputs": [],
            "stateMutability": "nonpayable",
            "type": "function"
        },
        {
            "inputs": [
                {
                    "internalType": "address",
                    "name": "_admin_address",
                    "type": "address"
                }
            ],
            "name": "get_admin",
            "outputs": [
                {
                    "components": [
                        {
                            "internalType": "string",
                            "name": "login",
                            "type": "string"
                        },
                        {
                            "internalType": "string",
                            "name": "name",
                            "type": "string"
                        }
                    ],
                    "internalType": "struct Accounts.Admin",
                    "name": "",
                    "type": "tuple"
                }
            ],
            "stateMutability": "view",
            "type": "function"
        },
        {
            "inputs": [
                {
                    "internalType": "address",
                    "name": "_shop_address",
                    "type": "address"
                }
            ],
            "name": "get_ask_bank",
            "outputs": [
                {
                    "internalType": "uint256",
                    "name": "",
                    "type": "uint256"
                }
            ],
            "stateMutability": "view",
            "type": "function"
        },
        {
            "inputs": [
                {
                    "internalType": "address",
                    "name": "_customer_address",
                    "type": "address"
                }
            ],
            "name": "get_ask_for_down",
            "outputs": [
                {
                    "internalType": "address",
                    "name": "",
                    "type": "address"
                }
            ],
            "stateMutability": "view",
            "type": "function"
        },
        {
            "inputs": [
                {
                    "internalType": "address",
                    "name": "_customer_address",
                    "type": "address"
                }
            ],
            "name": "get_ask_for_up",
            "outputs": [
                {
                    "internalType": "address",
                    "name": "",
                    "type": "address"
                }
            ],
            "stateMutability": "view",
            "type": "function"
        },
        {
            "inputs": [],
            "name": "get_bank",
            "outputs": [
                {
                    "components": [
                        {
                            "internalType": "string",
                            "name": "name",
                            "type": "string"
                        },
                        {
                            "internalType": "address",
                            "name": "bank_address",
                            "type": "address"
                        }
                    ],
                    "internalType": "struct Accounts.Bank",
                    "name": "",
                    "type": "tuple"
                }
            ],
            "stateMutability": "view",
            "type": "function"
        },
        {
            "inputs": [
                {
                    "internalType": "address",
                    "name": "_shop_address",
                    "type": "address"
                },
                {
                    "internalType": "uint256",
                    "name": "_comment_id",
                    "type": "uint256"
                }
            ],
            "name": "get_comment",
            "outputs": [
                {
                    "components": [
                        {
                            "internalType": "address",
                            "name": "owner",
                            "type": "address"
                        },
                        {
                            "internalType": "string",
                            "name": "message",
                            "type": "string"
                        },
                        {
                            "internalType": "uint8",
                            "name": "rate",
                            "type": "uint8"
                        },
                        {
                            "internalType": "uint128",
                            "name": "likes",
                            "type": "uint128"
                        },
                        {
                            "internalType": "uint128",
                            "name": "dislikes",
                            "type": "uint128"
                        },
                        {
                            "internalType": "bool",
                            "name": "in_use",
                            "type": "bool"
                        }
                    ],
                    "internalType": "struct ReviewBook.Comment",
                    "name": "",
                    "type": "tuple"
                }
            ],
            "stateMutability": "view",
            "type": "function"
        },
        {
            "inputs": [
                {
                    "internalType": "address",
                    "name": "_customer_address",
                    "type": "address"
                }
            ],
            "name": "get_customer",
            "outputs": [
                {
                    "components": [
                        {
                            "internalType": "string",
                            "name": "login",
                            "type": "string"
                        },
                        {
                            "internalType": "string",
                            "name": "name",
                            "type": "string"
                        }
                    ],
                    "internalType": "struct Accounts.Customer",
                    "name": "",
                    "type": "tuple"
                }
            ],
            "stateMutability": "view",
            "type": "function"
        },
        {
            "inputs": [
                {
                    "internalType": "address",
                    "name": "_shop_address",
                    "type": "address"
                }
            ],
            "name": "get_debt",
            "outputs": [
                {
                    "internalType": "uint256",
                    "name": "",
                    "type": "uint256"
                }
            ],
            "stateMutability": "view",
            "type": "function"
        },
        {
            "inputs": [
                {
                    "internalType": "address",
                    "name": "_shop_address",
                    "type": "address"
                },
                {
                    "internalType": "uint256",
                    "name": "_comment_id",
                    "type": "uint256"
                }
            ],
            "name": "get_reply",
            "outputs": [
                {
                    "components": [
                        {
                            "internalType": "address",
                            "name": "owner",
                            "type": "address"
                        },
                        {
                            "internalType": "uint256",
                            "name": "comment_id",
                            "type": "uint256"
                        },
                        {
                            "internalType": "string",
                            "name": "message",
                            "type": "string"
                        },
                        {
                            "internalType": "uint8",
                            "name": "rate",
                            "type": "uint8"
                        },
                        {
                            "internalType": "uint128",
                            "name": "likes",
                            "type": "uint128"
                        },
                        {
                            "internalType": "uint128",
                            "name": "dislikes",
                            "type": "uint128"
                        },
                        {
                            "internalType": "bool",
                            "name": "in_use",
                            "type": "bool"
                        }
                    ],
                    "internalType": "struct ReviewBook.Reply",
                    "name": "",
                    "type": "tuple"
                }
            ],
            "stateMutability": "view",
            "type": "function"
        },
        {
            "inputs": [
                {
                    "internalType": "address",
                    "name": "_user_address",
                    "type": "address"
                }
            ],
            "name": "get_role",
            "outputs": [
                {
                    "internalType": "string",
                    "name": "",
                    "type": "string"
                }
            ],
            "stateMutability": "view",
            "type": "function"
        },
        {
            "inputs": [
                {
                    "internalType": "address",
                    "name": "_shop_address",
                    "type": "address"
                }
            ],
            "name": "get_shop",
            "outputs": [
                {
                    "components": [
                        {
                            "internalType": "string",
                            "name": "name",
                            "type": "string"
                        },
                        {
                            "internalType": "string",
                            "name": "city",
                            "type": "string"
                        },
                        {
                            "internalType": "address[]",
                            "name": "shop_sellers",
                            "type": "address[]"
                        },
                        {
                            "internalType": "uint16",
                            "name": "rate",
                            "type": "uint16"
                        },
                        {
                            "internalType": "uint256",
                            "name": "using_reviews",
                            "type": "uint256"
                        }
                    ],
                    "internalType": "struct Accounts.Shop",
                    "name": "",
                    "type": "tuple"
                }
            ],
            "stateMutability": "view",
            "type": "function"
        },
        {
            "inputs": [],
            "name": "get_users",
            "outputs": [
                {
                    "internalType": "address[]",
                    "name": "",
                    "type": "address[]"
                }
            ],
            "stateMutability": "view",
            "type": "function"
        },
        {
            "inputs": [
                {
                    "internalType": "address",
                    "name": "_shop_address",
                    "type": "address"
                },
                {
                    "internalType": "uint256",
                    "name": "_comment_id",
                    "type": "uint256"
                }
            ],
            "name": "like_comment",
            "outputs": [],
            "stateMutability": "nonpayable",
            "type": "function"
        },
        {
            "inputs": [
                {
                    "internalType": "address",
                    "name": "_shop_address",
                    "type": "address"
                },
                {
                    "internalType": "uint256",
                    "name": "_reply_id",
                    "type": "uint256"
                }
            ],
            "name": "like_reply",
            "outputs": [],
            "stateMutability": "nonpayable",
            "type": "function"
        },
        {
            "inputs": [
                {
                    "internalType": "address",
                    "name": "",
                    "type": "address"
                }
            ],
            "name": "providers",
            "outputs": [
                {
                    "internalType": "string",
                    "name": "name",
                    "type": "string"
                }
            ],
            "stateMutability": "view",
            "type": "function"
        },
        {
            "inputs": [
                {
                    "internalType": "address",
                    "name": "_shop_address",
                    "type": "address"
                },
                {
                    "internalType": "string",
                    "name": "_message",
                    "type": "string"
                },
                {
                    "internalType": "uint8",
                    "name": "_rate",
                    "type": "uint8"
                },
                {
                    "internalType": "uint256",
                    "name": "_comment_id",
                    "type": "uint256"
                }
            ],
            "name": "reply_on_comment",
            "outputs": [],
            "stateMutability": "nonpayable",
            "type": "function"
        },
        {
            "inputs": [
                {
                    "internalType": "address",
                    "name": "_shop_address",
                    "type": "address"
                },
                {
                    "internalType": "string",
                    "name": "_message",
                    "type": "string"
                },
                {
                    "internalType": "uint256",
                    "name": "_comment_id",
                    "type": "uint256"
                }
            ],
            "name": "reply_on_comment_by_shop",
            "outputs": [],
            "stateMutability": "nonpayable",
            "type": "function"
        },
        {
            "inputs": [
                {
                    "internalType": "address",
                    "name": "",
                    "type": "address"
                },
                {
                    "internalType": "uint256",
                    "name": "",
                    "type": "uint256"
                }
            ],
            "name": "replyes",
            "outputs": [
                {
                    "internalType": "address",
                    "name": "owner",
                    "type": "address"
                },
                {
                    "internalType": "uint256",
                    "name": "comment_id",
                    "type": "uint256"
                },
                {
                    "internalType": "string",
                    "name": "message",
                    "type": "string"
                },
                {
                    "internalType": "uint8",
                    "name": "rate",
                    "type": "uint8"
                },
                {
                    "internalType": "uint128",
                    "name": "likes",
                    "type": "uint128"
                },
                {
                    "internalType": "uint128",
                    "name": "dislikes",
                    "type": "uint128"
                },
                {
                    "internalType": "bool",
                    "name": "in_use",
                    "type": "bool"
                }
            ],
            "stateMutability": "view",
            "type": "function"
        },
        {
            "inputs": [
                {
                    "internalType": "address",
                    "name": "",
                    "type": "address"
                }
            ],
            "name": "role_per_address",
            "outputs": [
                {
                    "internalType": "enum Accounts.Role",
                    "name": "",
                    "type": "uint8"
                }
            ],
            "stateMutability": "view",
            "type": "function"
        },
        {
            "inputs": [
                {
                    "internalType": "address",
                    "name": "",
                    "type": "address"
                }
            ],
            "name": "sellers",
            "outputs": [
                {
                    "internalType": "string",
                    "name": "login",
                    "type": "string"
                },
                {
                    "internalType": "string",
                    "name": "name",
                    "type": "string"
                },
                {
                    "internalType": "string",
                    "name": "city",
                    "type": "string"
                },
                {
                    "internalType": "address",
                    "name": "shop_address",
                    "type": "address"
                }
            ],
            "stateMutability": "view",
            "type": "function"
        },
        {
            "inputs": [
                {
                    "internalType": "address",
                    "name": "_shop_address",
                    "type": "address"
                }
            ],
            "name": "send_money",
            "outputs": [],
            "stateMutability": "payable",
            "type": "function"
        },
        {
            "inputs": [
                {
                    "internalType": "address",
                    "name": "",
                    "type": "address"
                }
            ],
            "name": "shops",
            "outputs": [
                {
                    "internalType": "string",
                    "name": "name",
                    "type": "string"
                },
                {
                    "internalType": "string",
                    "name": "city",
                    "type": "string"
                },
                {
                    "internalType": "uint16",
                    "name": "rate",
                    "type": "uint16"
                },
                {
                    "internalType": "uint256",
                    "name": "using_reviews",
                    "type": "uint256"
                }
            ],
            "stateMutability": "view",
            "type": "function"
        },
        {
            "inputs": [
                {
                    "internalType": "address",
                    "name": "_customer_address",
                    "type": "address"
                }
            ],
            "name": "up_role",
            "outputs": [],
            "stateMutability": "nonpayable",
            "type": "function"
        },
        {
            "inputs": [
                {
                    "internalType": "uint256",
                    "name": "",
                    "type": "uint256"
                }
            ],
            "name": "users",
            "outputs": [
                {
                    "internalType": "address",
                    "name": "",
                    "type": "address"
                }
            ],
            "stateMutability": "view",
            "type": "function"
        }
    ],
    "bytecode": "608060405234801561001057600080fd5b506142bc806100206000396000f3fe6080604052600436106102675760003560e01c80634c2c79dc11610144578063b4ab8fdf116100b6578063dea1f0dc1161007a578063dea1f0dc1461090b578063e324093b14610944578063e990e71d1461097a578063ed66aa1b1461099a578063f0191aff146109bc578063f14c316a146109dc57600080fd5b8063b4ab8fdf1461083f578063b4b9752014610872578063bacefcb814610892578063bf7cb88c146108b2578063c341cc21146108eb57600080fd5b80636d47ab72116101085780636d47ab72146106e65780636e70641f1461071657806378232aac14610743578063831454db1461079157806396888ea0146107ce578063b3b2baae146107fe57600080fd5b80634c2c79dc1461063b5780634e1f78ee1461064e5780635433ee091461066e57806356f11e03146106a45780636ac52782146106c457600080fd5b80632e2f14ab116101dd5780633cdce7dd116101a15780633cdce7dd1461055457806341550d2114610574578063429b62e51461059457806344a373d7146105b457806344a7361a146105e15780634559c60e1461060e57600080fd5b80632e2f14ab14610477578063336989ae146104975780633417b819146104c5578063365b98b2146104fc57806339c22db81461053457600080fd5b806316e9326c1161022f57806316e9326c1461035a57806321002e191461037a578063214f61d3146103b0578063253583c4146103fa5780632c6730cc1461041a5780632dca1fcc1461044757600080fd5b8063052bbde91461026c5780630787bc271461028e5780630c4174b7146102c45780630ce64997146102f657806313a070b71461033a575b600080fd5b34801561027857600080fd5b5061028c61028736600461380c565b6109fc565b005b34801561029a57600080fd5b506102ae6102a9366004613884565b610ab5565b6040516102bb9190613900565b60405180910390f35b3480156102d057600080fd5b506102e46102df366004613913565b610b53565b6040516102bb9695949392919061393f565b34801561030257600080fd5b5061032c610311366004613884565b6001600160a01b031660009081526006602052604090205490565b6040519081526020016102bb565b34801561034657600080fd5b5061028c610355366004613884565b610c51565b34801561036657600080fd5b5061028c610375366004613997565b610e28565b34801561038657600080fd5b5061032c610395366004613884565b6001600160a01b031660009081526009602052604090205490565b3480156103bc57600080fd5b5061028c6103cb366004613884565b33600090815260046020526040902080546001600160a01b0319166001600160a01b0392909216919091179055565b34801561040657600080fd5b5061028c6104153660046139f0565b610f52565b34801561042657600080fd5b5061043a610435366004613913565b6110ed565b6040516102bb9190613a8b565b34801561045357600080fd5b50610467610462366004613884565b611254565b6040516102bb9493929190613b01565b34801561048357600080fd5b5061028c610492366004613b3e565b611391565b3480156104a357600080fd5b506104b76104b2366004613884565b6114c0565b6040516102bb929190613baf565b3480156104d157600080fd5b5061028c6104e0366004613913565b6001600160a01b03909116600090815260066020526040902055565b34801561050857600080fd5b5061051c610517366004613bdd565b6115ec565b6040516001600160a01b0390911681526020016102bb565b34801561054057600080fd5b506102ae61054f366004613884565b611616565b34801561056057600080fd5b5061028c61056f366004613884565b6117cc565b34801561058057600080fd5b5061028c61058f366004613c0c565b61193f565b3480156105a057600080fd5b506104b76105af366004613884565b611a99565b3480156105c057600080fd5b5061032c6105cf366004613884565b60066020526000908152604090205481565b3480156105ed57600080fd5b506106016105fc366004613884565b611ab4565b6040516102bb9190613cb8565b34801561061a57600080fd5b5061062e610629366004613884565b611cb1565b6040516102bb9190613d63565b61028c610649366004613884565b611e11565b34801561065a57600080fd5b5061028c610669366004613913565b611e70565b34801561067a57600080fd5b5061051c610689366004613884565b6005602052600090815260409020546001600160a01b031681565b3480156106b057600080fd5b5061028c6106bf366004613884565b611f71565b3480156106d057600080fd5b506106d961212c565b6040516102bb9190613d76565b3480156106f257600080fd5b50610706610701366004613884565b6121fa565b6040516102bb9493929190613db3565b34801561072257600080fd5b50610736610731366004613913565b6123c3565b6040516102bb9190613e06565b34801561074f57600080fd5b5061028c336000908152600c6020908152604080832060030154600590925290912080546001600160a01b0319166001600160a01b0392909216919091179055565b34801561079d57600080fd5b506107c16107ac366004613884565b60016020526000908152604090205460ff1681565b6040516102bb9190613e9d565b3480156107da57600080fd5b506107ee6107e9366004613ec5565b612551565b60405190151581526020016102bb565b34801561080a57600080fd5b5061051c610819366004613f29565b80516020818301810180516003825292820191909301209152546001600160a01b031681565b34801561084b57600080fd5b5061085f61085a366004613913565b6125a2565b6040516102bb9796959493929190613f5e565b34801561087e57600080fd5b5061028c61088d366004613913565b6126a6565b34801561089e57600080fd5b5061028c6108ad366004613fba565b612799565b3480156108be57600080fd5b5061051c6108cd366004613884565b6001600160a01b039081166000908152600460205260409020541690565b3480156108f757600080fd5b5061062e610906366004613884565b6128ea565b34801561091757600080fd5b5061051c610926366004613884565b6001600160a01b039081166000908152600560205260409020541690565b34801561095057600080fd5b5061051c61095f366004613884565b6004602052600090815260409020546001600160a01b031681565b34801561098657600080fd5b5061028c610995366004613913565b61292f565b3480156109a657600080fd5b506109af612a05565b6040516102bb919061401a565b3480156109c857600080fd5b5061028c6109d7366004613913565b612a67565b3480156109e857600080fd5b5061028c6109f7366004613884565b612b51565b604080518082019091528381526001600160a01b0383166020808301919091528451600791610a2f91839188019061360f565b50602091820151600191820180546001600160a01b0319166001600160a01b0392831617905584166000908152908252604090819020805460ff1916905551610a7a91839101613900565b60405160208183030381529060405280519060200120600284604051610aa0919061402d565b90815260405190819003602001902055505050565b600b60205260009081526040902080548190610ad090614049565b80601f0160208091040260200160405190810160405280929190818152602001828054610afc90614049565b8015610b495780601f10610b1e57610100808354040283529160200191610b49565b820191906000526020600020905b815481529060010190602001808311610b2c57829003601f168201915b5050505050905081565b600f6020528160005260406000208181548110610b6f57600080fd5b6000918252602090912060049091020180546001820180546001600160a01b039092169450919250610ba090614049565b80601f0160208091040260200160405190810160405280929190818152602001828054610bcc90614049565b8015610c195780601f10610bee57610100808354040283529160200191610c19565b820191906000526020600020905b815481529060010190602001808311610bfc57829003601f168201915b505050506002830154600390930154919260ff808216936101009092046001600160801b039081169350821691600160801b90041686565b6040805180820182526001600160a01b0383166000908152600d602052919091208054829190610c8090614049565b80601f0160208091040260200160405190810160405280929190818152602001828054610cac90614049565b8015610cf95780601f10610cce57610100808354040283529160200191610cf9565b820191906000526020600020905b815481529060010190602001808311610cdc57829003601f168201915b50505050508152602001600d6000846001600160a01b03166001600160a01b031681526020019081526020016000206001018054610d3690614049565b80601f0160208091040260200160405190810160405280929190818152602001828054610d6290614049565b8015610daf5780601f10610d8457610100808354040283529160200191610daf565b820191906000526020600020905b815481529060010190602001808311610d9257829003601f168201915b5050509190925250506001600160a01b0382166000908152600e60209081526040909120825180519192610de89284929091019061360f565b506020828101518051610e01926001850192019061360f565b5050506001600160a01b03166000908152600160205260409020805460ff19166005179055565b336000908152600c60205260409020600301546001600160a01b03848116911614610e5257600080fd5b6001600160a01b038381166000908152601060209081526040808320815160e081018352338152808401878152928101888152606082018690526080820186905260a0820186905260c0820186905282546001808201855593875295859020825160059097020180546001600160a01b0319169690971695909517865591519085015591518051929392610eec926002850192019061360f565b506060820151600382018054608085015160ff9093166001600160881b0319918216176101006001600160801b03948516021790915560a08401516004909301805460c09095015193909216931692909217600160801b91151591909102179055505050565b610f886040518060a00160405280606081526020016060815260200160608152602001600061ffff168152602001600081525090565b8381526020808201849052600060608301819052608083018190526001600160a01b0387168152600a825260409020825180518493610fcb92849291019061360f565b506020828101518051610fe4926001850192019061360f565b5060408201518051611000916002840191602090910190613693565b50606082015160038201805461ffff191661ffff9092169190911790556080909101516004909101556001600160a01b0385166000908152600160208190526040909120805460ff191682800217905550816040516020016110629190613900565b60405160208183030381529060405280519060200120600285604051611088919061402d565b908152604051908190036020019020555050600080546001810182559080527f290decd9548b62a8d60345a988386fc84ba6bc95484008f6362f93160ef3e5630180546001600160a01b039094166001600160a01b0319909416939093179092555050565b6040805160c0810182526000808252606060208084018290528385018390529083018290526080830182905260a083018290526001600160a01b0386168252600f90529190912080548390811061114657611146614084565b60009182526020918290206040805160c0810190915260049092020180546001600160a01b03168252600181018054929391929184019161118690614049565b80601f01602080910402602001604051908101604052809291908181526020018280546111b290614049565b80156111ff5780601f106111d4576101008083540402835291602001916111ff565b820191906000526020600020905b8154815290600101906020018083116111e257829003601f168201915b5050509183525050600282015460ff80821660208401526001600160801b03610100909204821660408401526003909301549081166060830152600160801b9004909116151560809091015290505b92915050565b600a6020526000908152604090208054819061126f90614049565b80601f016020809104026020016040519081016040528092919081815260200182805461129b90614049565b80156112e85780601f106112bd576101008083540402835291602001916112e8565b820191906000526020600020905b8154815290600101906020018083116112cb57829003601f168201915b5050505050908060010180546112fd90614049565b80601f016020809104026020016040519081016040528092919081815260200182805461132990614049565b80156113765780601f1061134b57610100808354040283529160200191611376565b820191906000526020600020905b81548152906001019060200180831161135957829003601f168201915b505050506003830154600490930154919261ffff1691905084565b6040805180820182528481526020808201859052336000908152600d82529290922081518051929391926113c8928492019061360f565b5060208281015180516113e1926001850192019061360f565b50506040516113f591508290602001613900565b6040516020818303038152906040528051906020012060028460405161141b919061402d565b9081526040805191829003602090810183209390935533600081815260019094529220805460ff1916600417905560039061145790869061402d565b90815260405190819003602001902080546001600160a01b03929092166001600160a01b0319928316179055600080546001810182559080527f290decd9548b62a8d60345a988386fc84ba6bc95484008f6362f93160ef3e56301805490911633179055505050565b600d602052600090815260409020805481906114db90614049565b80601f016020809104026020016040519081016040528092919081815260200182805461150790614049565b80156115545780601f1061152957610100808354040283529160200191611554565b820191906000526020600020905b81548152906001019060200180831161153757829003601f168201915b50505050509080600101805461156990614049565b80601f016020809104026020016040519081016040528092919081815260200182805461159590614049565b80156115e25780601f106115b7576101008083540402835291602001916115e2565b820191906000526020600020905b8154815290600101906020018083116115c557829003601f168201915b5050505050905082565b600081815481106115fc57600080fd5b6000918252602090912001546001600160a01b0316905081565b6001600160a01b03811660009081526001602052604081205460609160ff9091169081600681111561164a5761164a613e87565b141561167257505060408051808201909152600481526362616e6b60e01b6020820152919050565b600181600681111561168657611686613e87565b14156116ae575050604080518082019091526004815263073686f760e41b6020820152919050565b60028160068111156116c2576116c2613e87565b14156116ee575050604080518082019091526008815267383937bb34b232b960c11b6020820152919050565b600381600681111561170257611702613e87565b141561172c57505060408051808201909152600681526539b2b63632b960d11b6020820152919050565b600481600681111561174057611740613e87565b141561176c57505060408051808201909152600881526731bab9ba37b6b2b960c11b6020820152919050565b600581600681111561178057611780613e87565b14156117a957505060408051808201909152600581526430b236b4b760d91b6020820152919050565b505060408051808201909152600581526419dd595cdd60da1b6020820152919050565b6001600160a01b0380821660009081526005602052604081205490916117f3911683612e6c565b6001600160a01b038381166000818152600560209081526040808320549094168252600a81528382209282526001905291909120805460ff1916600417905560020180549192509081908390811061184d5761184d614084565b600091825260209091200180546001600160a01b031916905580548190611876906001906140b0565b8154811061188657611886614084565b9060005260206000200160009054906101000a90046001600160a01b03168183815481106118b6576118b6614084565b600091825260209091200180546001600160a01b0319166001600160a01b0392909216919091179055805481906118ef906001906140b0565b815481106118ff576118ff614084565b6000918252602080832090910180546001600160a01b03199081169091556001600160a01b03959095168252600590526040902080549093169092555050565b60033360009081526001602052604090205460ff16600681111561196557611965613e87565b141561199657336000908152600c60205260409020600301546001600160a01b038581169116141561199657600080fd5b6001600160a01b038481166000908152601060209081526040808320815160e08101835233815280840187815292810189815260ff891660608301526080820186905260a0820186905260c0820186905282546001808201855593875295859020825160059097020180546001600160a01b0319169690971695909517865591519085015591518051929392611a32926002850192019061360f565b506060820151600382018054608085015160ff9093166001600160881b0319918216176101006001600160801b03948516021790915560a08401516004909301805460c09095015193909216931692909217600160801b9115159190910217905550505050565b600e602052600090815260409020805481906114db90614049565b611aea6040518060a00160405280606081526020016060815260200160608152602001600061ffff168152602001600081525090565b6001600160a01b0382166000908152600a602052604090819020815160a08101909252805482908290611b1c90614049565b80601f0160208091040260200160405190810160405280929190818152602001828054611b4890614049565b8015611b955780601f10611b6a57610100808354040283529160200191611b95565b820191906000526020600020905b815481529060010190602001808311611b7857829003601f168201915b50505050508152602001600182018054611bae90614049565b80601f0160208091040260200160405190810160405280929190818152602001828054611bda90614049565b8015611c275780601f10611bfc57610100808354040283529160200191611c27565b820191906000526020600020905b815481529060010190602001808311611c0a57829003601f168201915b5050505050815260200160028201805480602002602001604051908101604052809291908181526020018280548015611c8957602002820191906000526020600020905b81546001600160a01b03168152600190910190602001808311611c6b575b5050509183525050600382015461ffff16602082015260049091015460409091015292915050565b60408051808201909152606080825260208201526001600160a01b0382166000908152600e6020526040908190208151808301909252805482908290611cf690614049565b80601f0160208091040260200160405190810160405280929190818152602001828054611d2290614049565b8015611d6f5780601f10611d4457610100808354040283529160200191611d6f565b820191906000526020600020905b815481529060010190602001808311611d5257829003601f168201915b50505050508152602001600182018054611d8890614049565b80601f0160208091040260200160405190810160405280929190818152602001828054611db490614049565b8015611e015780601f10611dd657610100808354040283529160200191611e01565b820191906000526020600020905b815481529060010190602001808311611de457829003601f168201915b5050505050815250509050919050565b6001600160a01b0381166000818152600960205260408082203490819055905181156108fc0292818181858888f19350505050158015611e55573d6000803e3d6000fd5b506001600160a01b0316600090815260066020526040812055565b6001600160a01b0382166000908152600f60205260408120805483908110611e9a57611e9a614084565b906000526020600020906004020190506000611eb68484612eec565b905060018260020160018282829054906101000a90046001600160801b0316611edf91906140c7565b92506101000a8154816001600160801b0302191690836001600160801b0316021790555080158015611f165750611f168484612eec565b15611f6b5760038201805460ff60801b1916600160801b1790556001600160a01b0384166000908152600a60205260409020611f5185613070565b600391909101805461ffff191661ffff9092169190911790555b50505050565b6001600160a01b0381166000908152600a60205260408120905b60028201546001600160801b0382161015611fed57611fdb82600201826001600160801b031681548110611fc157611fc1614084565b6000918252602090912001546001600160a01b03166117cc565b80611fe5816140f2565b915050611f8b565b50604051600290611fff908390614119565b90815260408051602092819003830190206000908190556001600160a01b038516815260019092528120805460ff191690555b6000546001600160801b03821610156120d257826001600160a01b03166000826001600160801b03168154811061206b5761206b614084565b6000918252602090912001546001600160a01b031614156120c0576000816001600160801b0316815481106120a2576120a2614084565b600091825260209091200180546001600160a01b03191690556120d2565b806120ca816140f2565b915050612032565b506001600160a01b0382166000908152600a60205260408120906120f682826136e8565b6121046001830160006136e8565b612112600283016000613725565b5060038101805461ffff1916905560006004909101555050565b604080518082019091526060815260006020820152600760405180604001604052908160008201805461215e90614049565b80601f016020809104026020016040519081016040528092919081815260200182805461218a90614049565b80156121d75780601f106121ac576101008083540402835291602001916121d7565b820191906000526020600020905b8154815290600101906020018083116121ba57829003601f168201915b5050509183525050600191909101546001600160a01b0316602090910152919050565b600c6020526000908152604090208054819061221590614049565b80601f016020809104026020016040519081016040528092919081815260200182805461224190614049565b801561228e5780601f106122635761010080835404028352916020019161228e565b820191906000526020600020905b81548152906001019060200180831161227157829003601f168201915b5050505050908060010180546122a390614049565b80601f01602080910402602001604051908101604052809291908181526020018280546122cf90614049565b801561231c5780601f106122f15761010080835404028352916020019161231c565b820191906000526020600020905b8154815290600101906020018083116122ff57829003601f168201915b50505050509080600201805461233190614049565b80601f016020809104026020016040519081016040528092919081815260200182805461235d90614049565b80156123aa5780601f1061237f576101008083540402835291602001916123aa565b820191906000526020600020905b81548152906001019060200180831161238d57829003601f168201915b505050600390930154919250506001600160a01b031684565b6040805160e08101825260008082526020808301829052606083850181905283018290526080830182905260a0830182905260c083018290526001600160a01b0386168252601090529190912080548390811061242257612422614084565b90600052602060002090600502016040518060e00160405290816000820160009054906101000a90046001600160a01b03166001600160a01b03166001600160a01b031681526020016001820154815260200160028201805461248490614049565b80601f01602080910402602001604051908101604052809291908181526020018280546124b090614049565b80156124fd5780601f106124d2576101008083540402835291602001916124fd565b820191906000526020600020905b8154815290600101906020018083116124e057829003601f168201915b5050509183525050600382015460ff80821660208401526001600160801b03610100909204821660408401526004909301549081166060830152600160801b90049091161515608090910152905092915050565b6000816040516020016125649190613900565b6040516020818303038152906040528051906020012060028460405161258a919061402d565b90815260200160405180910390205414905092915050565b601060205281600052604060002081815481106125be57600080fd5b60009182526020909120600590910201805460018201546002830180546001600160a01b039093169550909350906125f590614049565b80601f016020809104026020016040519081016040528092919081815260200182805461262190614049565b801561266e5780601f106126435761010080835404028352916020019161266e565b820191906000526020600020905b81548152906001019060200180831161265157829003601f168201915b505050506003830154600490930154919260ff808216936101009092046001600160801b039081169350821691600160801b90041687565b6001600160a01b03821660009081526010602052604081208054839081106126d0576126d0614084565b9060005260206000209060050201905060006126ec848461346e565b905060018260030160018282829054906101000a90046001600160801b031661271591906140c7565b92506101000a8154816001600160801b0302191690836001600160801b031602179055508015801561274c575061274c848461346e565b801561275e5750600382015460ff1615155b15611f6b5760048201805460ff60801b1916600160801b1790556001600160a01b0384166000908152600a60205260409020611f5185613070565b60033360009081526001602052604090205460ff1660068111156127bf576127bf613e87565b14156127f057336000908152600c60205260409020600301546001600160a01b03848116911614156127f057600080fd5b6001600160a01b038381166000908152600f60209081526040808320815160c08101835233815280840188815260ff881693820193909352606081018590526080810185905260a0810185905281546001808201845592865294849020815160049096020180546001600160a01b03191695909616949094178555905180519394936128849392850192919091019061360f565b506040820151600282018054606085015160ff9093166001600160881b0319918216176101006001600160801b03948516021790915560808401516003909301805460a09095015193909216931692909217600160801b91151591909102179055505050565b60408051808201909152606080825260208201526001600160a01b0382166000908152600d6020526040908190208151808301909252805482908290611cf690614049565b6001600160a01b0382166000908152600f6020526040812080548390811061295957612959614084565b9060005260206000209060040201905060006129758484612eec565b6003830180549192506001916000906129989084906001600160801b03166140c7565b92506101000a8154816001600160801b0302191690836001600160801b031602179055508080156129d057506129ce8484612eec565b155b15611f6b5760038201805460ff60801b191690556001600160a01b0384166000908152600a60205260409020611f5185613070565b60606000805480602002602001604051908101604052809291908181526020018280548015612a5d57602002820191906000526020600020905b81546001600160a01b03168152600190910190602001808311612a3f575b5050505050905090565b6001600160a01b0382166000908152601060205260408120805483908110612a9157612a91614084565b906000526020600020906005020190506000612aad848461346e565b600483018054919250600191600090612ad09084906001600160801b03166140c7565b92506101000a8154816001600160801b0302191690836001600160801b0316021790555080801561274c5750612b06848461346e565b15801561275e5750600382015460ff1615611f6b5760048201805460ff60801b1916600160801b1790556001600160a01b0384166000908152600a60205260409020611f5185613070565b6001600160a01b038082166000908152600460209081526040808320548151608081018352600d9093529220805492909316929091829190612b9290614049565b80601f0160208091040260200160405190810160405280929190818152602001828054612bbe90614049565b8015612c0b5780601f10612be057610100808354040283529160200191612c0b565b820191906000526020600020905b815481529060010190602001808311612bee57829003601f168201915b50505050508152602001600d6000856001600160a01b03166001600160a01b031681526020019081526020016000206001018054612c4890614049565b80601f0160208091040260200160405190810160405280929190818152602001828054612c7490614049565b8015612cc15780601f10612c9657610100808354040283529160200191612cc1565b820191906000526020600020905b815481529060010190602001808311612ca457829003601f168201915b50505050508152602001600a6000846001600160a01b03166001600160a01b031681526020019081526020016000206001018054612cfe90614049565b80601f0160208091040260200160405190810160405280929190818152602001828054612d2a90614049565b8015612d775780601f10612d4c57610100808354040283529160200191612d77565b820191906000526020600020905b815481529060010190602001808311612d5a57829003601f168201915b50505091835250506001600160a01b0380841660209283015284166000908152600c825260409020825180519192612db49284929091019061360f565b506020828101518051612dcd926001850192019061360f565b5060408201518051612de991600284019160209091019061360f565b5060609190910151600391820180546001600160a01b039283166001600160a01b0319918216179091559381166000818152600160208181526040808420805460ff1916909717909655959093168152600a8552838120600201805493840181558152848120909201805486168217905581526004909252902080549091169055565b6001600160a01b0382166000908152600a60205260408120600201815b8154811015612ee457836001600160a01b0316828281548110612eae57612eae614084565b6000918252602090912001546001600160a01b03161415612ed257915061124e9050565b80612edc816141b5565b915050612e89565b505092915050565b6001600160a01b0382166000908152600f60205260408120805482919084908110612f1957612f19614084565b60009182526020918290206040805160c0810190915260049092020180546001600160a01b031682526001810180549293919291840191612f5990614049565b80601f0160208091040260200160405190810160405280929190818152602001828054612f8590614049565b8015612fd25780601f10612fa757610100808354040283529160200191612fd2565b820191906000526020600020905b815481529060010190602001808311612fb557829003601f168201915b5050509183525050600282015460ff80821660208401526001600160801b0361010090920482166040840152600390930154808216606080850191909152600160801b909104909316151560809092019190915290820151919250600a9116118015613057575080608001516001600160801b031681606001516001600160801b0316115b1561306657600191505061124e565b5060009392505050565b60008080805b6001600160a01b0385166000908152600f6020526040902054811015613261576001600160a01b0385166000908152600f602052604090208054829081106130c0576130c0614084565b906000526020600020906004020160030160109054906101000a900460ff161561324f576001600160a01b0385166000908152600f6020526040902080548290811061310e5761310e614084565b60009182526020808320600360049093020191909101546001600160a01b0388168352600f909152604090912080546001600160801b03909216918390811061315957613159614084565b906000526020600020906004020160020160019054906101000a90046001600160801b031661318891906140c7565b6001600160a01b0386166000908152600f602052604090208054839081106131b2576131b2614084565b906000526020600020906004020160020160019054906101000a90046001600160801b03166131e191906141e6565b6001600160a01b0386166000908152600f6020526040902080548390811061320b5761320b614084565b600091825260209091206002600490920201015461322c919060ff1661420c565b61323f906001600160801b03168461423b565b92508161324b816141b5565b9250505b80613259816141b5565b915050613076565b5060005b6001600160a01b038516600090815260106020526040902054811015613450576001600160a01b0385166000908152600f602052604090208054829081106132af576132af614084565b906000526020600020906004020160030160109054906101000a900460ff161561343e576001600160a01b03851660009081526010602052604090208054829081106132fd576132fd614084565b60009182526020808320600460059093020191909101546001600160a01b03881683526010909152604090912080546001600160801b03909216918390811061334857613348614084565b906000526020600020906005020160030160019054906101000a90046001600160801b031661337791906140c7565b6001600160a01b03861660009081526010602052604090208054839081106133a1576133a1614084565b906000526020600020906005020160030160019054906101000a90046001600160801b03166133d091906141e6565b6001600160a01b03861660009081526010602052604090208054839081106133fa576133fa614084565b600091825260209091206003600590920201015461341b919060ff1661420c565b61342e906001600160801b03168461423b565b92508161343a816141b5565b9250505b80613448816141b5565b915050613265565b5061345b8183614253565b613466906064614267565b949350505050565b6001600160a01b038216600090815260106020526040812080548291908490811061349b5761349b614084565b90600052602060002090600502016040518060e00160405290816000820160009054906101000a90046001600160a01b03166001600160a01b03166001600160a01b03168152602001600182015481526020016002820180546134fd90614049565b80601f016020809104026020016040519081016040528092919081815260200182805461352990614049565b80156135765780601f1061354b57610100808354040283529160200191613576565b820191906000526020600020905b81548152906001019060200180831161355957829003601f168201915b5050509183525050600382015460ff80821660208401526101009091046001600160801b0390811660408401526004909301548084166060840152600160801b9004161515608091820152820151919250600a91161180156135f157508060a001516001600160801b031681608001516001600160801b0316115b80156130575750606081015160ff161561306657600191505061124e565b82805461361b90614049565b90600052602060002090601f01602090048101928261363d5760008555613683565b82601f1061365657805160ff1916838001178555613683565b82800160010185558215613683579182015b82811115613683578251825591602001919060010190613668565b5061368f92915061373f565b5090565b828054828255906000526020600020908101928215613683579160200282015b8281111561368357825182546001600160a01b0319166001600160a01b039091161782556020909201916001909101906136b3565b5080546136f490614049565b6000825580601f10613704575050565b601f016020900490600052602060002090810190613722919061373f565b50565b508054600082559060005260206000209081019061372291905b5b8082111561368f5760008155600101613740565b634e487b7160e01b600052604160045260246000fd5b600082601f83011261377b57600080fd5b813567ffffffffffffffff8082111561379657613796613754565b604051601f8301601f19908116603f011681019082821181831017156137be576137be613754565b816040528381528660208588010111156137d757600080fd5b836020870160208301376000602085830101528094505050505092915050565b6001600160a01b038116811461372257600080fd5b60008060006060848603121561382157600080fd5b833567ffffffffffffffff8082111561383957600080fd5b6138458783880161376a565b945060208601359150613857826137f7565b9092506040850135908082111561386d57600080fd5b5061387a8682870161376a565b9150509250925092565b60006020828403121561389657600080fd5b81356138a1816137f7565b9392505050565b60005b838110156138c35781810151838201526020016138ab565b83811115611f6b5750506000910152565b600081518084526138ec8160208601602086016138a8565b601f01601f19169290920160200192915050565b6020815260006138a160208301846138d4565b6000806040838503121561392657600080fd5b8235613931816137f7565b946020939093013593505050565b6001600160a01b038716815260c060208201819052600090613963908301886138d4565b60ff969096166040830152506001600160801b03938416606082015291909216608082015290151560a09091015292915050565b6000806000606084860312156139ac57600080fd5b83356139b7816137f7565b9250602084013567ffffffffffffffff8111156139d357600080fd5b6139df8682870161376a565b925050604084013590509250925092565b60008060008060808587031215613a0657600080fd5b8435613a11816137f7565b9350602085013567ffffffffffffffff80821115613a2e57600080fd5b613a3a8883890161376a565b94506040870135915080821115613a5057600080fd5b613a5c8883890161376a565b93506060870135915080821115613a7257600080fd5b50613a7f8782880161376a565b91505092959194509250565b602080825282516001600160a01b03168282015282015160c06040830152600090613ab960e08401826138d4565b905060ff604085015116606084015260608401516001600160801b0380821660808601528060808701511660a0860152505060a0840151151560c08401528091505092915050565b608081526000613b1460808301876138d4565b8281036020840152613b2681876138d4565b61ffff95909516604084015250506060015292915050565b600080600060608486031215613b5357600080fd5b833567ffffffffffffffff80821115613b6b57600080fd5b613b778783880161376a565b94506020860135915080821115613b8d57600080fd5b613b998783880161376a565b9350604086013591508082111561386d57600080fd5b604081526000613bc260408301856138d4565b8281036020840152613bd481856138d4565b95945050505050565b600060208284031215613bef57600080fd5b5035919050565b803560ff81168114613c0757600080fd5b919050565b60008060008060808587031215613c2257600080fd5b8435613c2d816137f7565b9350602085013567ffffffffffffffff811115613c4957600080fd5b613c558782880161376a565b935050613c6460408601613bf6565b9396929550929360600135925050565b600081518084526020808501945080840160005b83811015613cad5781516001600160a01b031687529582019590820190600101613c88565b509495945050505050565b602081526000825160a06020840152613cd460c08401826138d4565b90506020840151601f1980858403016040860152613cf283836138d4565b9250604086015191508085840301606086015250613d108282613c74565b91505061ffff6060850151166080840152608084015160a08401528091505092915050565b6000815160408452613d4a60408501826138d4565b905060208301518482036020860152613bd482826138d4565b6020815260006138a16020830184613d35565b602081526000825160406020840152613d9260608401826138d4565b602094909401516001600160a01b0316604093909301929092525090919050565b608081526000613dc660808301876138d4565b8281036020840152613dd881876138d4565b90508281036040840152613dec81866138d4565b91505060018060a01b038316606083015295945050505050565b6020815260018060a01b038251166020820152602082015160408201526000604083015160e06060840152613e3f6101008401826138d4565b905060ff606085015116608084015260808401516001600160801b0380821660a08601528060a08701511660c0860152505060c0840151151560e08401528091505092915050565b634e487b7160e01b600052602160045260246000fd5b6020810160078310613ebf57634e487b7160e01b600052602160045260246000fd5b91905290565b60008060408385031215613ed857600080fd5b823567ffffffffffffffff80821115613ef057600080fd5b613efc8683870161376a565b93506020850135915080821115613f1257600080fd5b50613f1f8582860161376a565b9150509250929050565b600060208284031215613f3b57600080fd5b813567ffffffffffffffff811115613f5257600080fd5b6134668482850161376a565b60018060a01b038816815286602082015260e060408201526000613f8560e08301886138d4565b60ff969096166060830152506001600160801b0393841660808201529190921660a082015290151560c0909101529392505050565b600080600060608486031215613fcf57600080fd5b8335613fda816137f7565b9250602084013567ffffffffffffffff811115613ff657600080fd5b6140028682870161376a565b92505061401160408501613bf6565b90509250925092565b6020815260006138a16020830184613c74565b6000825161403f8184602087016138a8565b9190910192915050565b600181811c9082168061405d57607f821691505b6020821081141561407e57634e487b7160e01b600052602260045260246000fd5b50919050565b634e487b7160e01b600052603260045260246000fd5b634e487b7160e01b600052601160045260246000fd5b6000828210156140c2576140c261409a565b500390565b60006001600160801b038083168185168083038211156140e9576140e961409a565b01949350505050565b60006001600160801b038083168181141561410f5761410f61409a565b6001019392505050565b600080835481600182811c91508083168061413557607f831692505b602080841082141561415557634e487b7160e01b86526022600452602486fd5b818015614169576001811461417a576141a7565b60ff198616895284890196506141a7565b60008a81526020902060005b8681101561419f5781548b820152908501908301614186565b505084890196505b509498975050505050505050565b60006000198214156141c9576141c961409a565b5060010190565b634e487b7160e01b600052601260045260246000fd5b60006001600160801b0380841680614200576142006141d0565b92169190910492915050565b60006001600160801b03808316818516818304811182151516156142325761423261409a565b02949350505050565b6000821982111561424e5761424e61409a565b500190565b600082614262576142626141d0565b500490565b60008160001904831182151516156142815761428161409a565b50029056fea2646970667358221220009a849ceb4847ced0875c801481ed931f2c1756661cebf1c0541effc409fb4664736f6c63430008090033",
    "sourcePath": "/home/morimaroo17/work/blockchain_work/solidity_work/prepare/contracts/ReviewBook.sol",
    "compiler": {
        "name": "solc",
        "version": "0.8.9+commit.e5eed63a"
    },
    "functionHashes": {
        "add_admin(address)": "13a070b7",
        "add_customer(string,string,string)": "2e2f14ab",
        "add_shop(address,string,string,string)": "253583c4",
        "address_per_login(string)": "b3b2baae",
        "admins(address)": "429b62e5",
        "ask_bank(address,uint256)": "3417b819",
        "ask_for_down()": "78232aac",
        "ask_for_up(address)": "214f61d3",
        "asks_bank(address)": "44a373d7",
        "asks_for_down(address)": "5433ee09",
        "asks_for_up(address)": "e324093b",
        "check_auth_data(string,string)": "96888ea0",
        "comment_shop(address,string,uint8)": "bacefcb8",
        "comments(address,uint256)": "0c4174b7",
        "create_bank_account(string,address,string)": "052bbde9",
        "customers(address)": "336989ae",
        "delete_shop(address)": "56f11e03",
        "dislike_comment(address,uint256)": "e990e71d",
        "dislike_reply(address,uint256)": "f0191aff",
        "down_role(address)": "3cdce7dd",
        "get_admin(address)": "4559c60e",
        "get_ask_bank(address)": "0ce64997",
        "get_ask_for_down(address)": "dea1f0dc",
        "get_ask_for_up(address)": "bf7cb88c",
        "get_bank()": "6ac52782",
        "get_comment(address,uint256)": "2c6730cc",
        "get_customer(address)": "c341cc21",
        "get_debt(address)": "21002e19",
        "get_reply(address,uint256)": "6e70641f",
        "get_role(address)": "39c22db8",
        "get_shop(address)": "44a7361a",
        "get_users()": "ed66aa1b",
        "like_comment(address,uint256)": "4e1f78ee",
        "like_reply(address,uint256)": "b4b97520",
        "providers(address)": "0787bc27",
        "reply_on_comment(address,string,uint8,uint256)": "41550d21",
        "reply_on_comment_by_shop(address,string,uint256)": "16e9326c",
        "replyes(address,uint256)": "b4ab8fdf",
        "role_per_address(address)": "831454db",
        "sellers(address)": "6d47ab72",
        "send_money(address)": "4c2c79dc",
        "shops(address)": "2dca1fcc",
        "up_role(address)": "f14c316a",
        "users(uint256)": "365b98b2"
    },
    "gasEstimates": {
        "creation": {
            "codeDepositCost": "3416800",
            "executionCost": "3811",
            "totalCost": "3420611"
        },
        "external": {
            "add_admin(address)": "infinite",
            "add_customer(string,string,string)": "infinite",
            "add_shop(address,string,string,string)": "infinite",
            "address_per_login(string)": "infinite",
            "admins(address)": "infinite",
            "ask_bank(address,uint256)": "22588",
            "ask_for_down()": "26733",
            "ask_for_up(address)": "24711",
            "asks_bank(address)": "2624",
            "asks_for_down(address)": "2642",
            "asks_for_up(address)": "2618",
            "check_auth_data(string,string)": "infinite",
            "comment_shop(address,string,uint8)": "infinite",
            "comments(address,uint256)": "infinite",
            "create_bank_account(string,address,string)": "infinite",
            "customers(address)": "infinite",
            "delete_shop(address)": "infinite",
            "dislike_comment(address,uint256)": "infinite",
            "dislike_reply(address,uint256)": "infinite",
            "down_role(address)": "infinite",
            "get_admin(address)": "infinite",
            "get_ask_bank(address)": "2644",
            "get_ask_for_down(address)": "2605",
            "get_ask_for_up(address)": "2672",
            "get_bank()": "infinite",
            "get_comment(address,uint256)": "infinite",
            "get_customer(address)": "infinite",
            "get_debt(address)": "2599",
            "get_reply(address,uint256)": "infinite",
            "get_role(address)": "infinite",
            "get_shop(address)": "infinite",
            "get_users()": "infinite",
            "like_comment(address,uint256)": "infinite",
            "like_reply(address,uint256)": "infinite",
            "providers(address)": "infinite",
            "reply_on_comment(address,string,uint8,uint256)": "infinite",
            "reply_on_comment_by_shop(address,string,uint256)": "infinite",
            "replyes(address,uint256)": "infinite",
            "role_per_address(address)": "2677",
            "sellers(address)": "infinite",
            "send_money(address)": "infinite",
            "shops(address)": "infinite",
            "up_role(address)": "infinite",
            "users(uint256)": "4726"
        },
        "internal": {
            "_check_comment_for_using(address,uint256)": "infinite",
            "_check_reply_for_using(address,uint256)": "infinite",
            "_count_rate(address)": "infinite"
        }
    }
}