{
    "contractName": "ReviewBook",
    "abi": [
        {
            "inputs": [
                {
                    "internalType": "address",
                    "name": "_new_admin_address",
                    "type": "address"
                }
            ],
            "name": "add_admin",
            "outputs": [],
            "stateMutability": "nonpayable",
            "type": "function"
        },
        {
            "inputs": [
                {
                    "internalType": "string",
                    "name": "_login",
                    "type": "string"
                },
                {
                    "internalType": "string",
                    "name": "_name",
                    "type": "string"
                },
                {
                    "internalType": "string",
                    "name": "_password",
                    "type": "string"
                }
            ],
            "name": "add_customer",
            "outputs": [],
            "stateMutability": "nonpayable",
            "type": "function"
        },
        {
            "inputs": [
                {
                    "internalType": "address payable",
                    "name": "_shop_address",
                    "type": "address"
                },
                {
                    "internalType": "string",
                    "name": "_name",
                    "type": "string"
                },
                {
                    "internalType": "string",
                    "name": "_city",
                    "type": "string"
                },
                {
                    "internalType": "string",
                    "name": "_password",
                    "type": "string"
                }
            ],
            "name": "add_shop",
            "outputs": [],
            "stateMutability": "nonpayable",
            "type": "function"
        },
        {
            "inputs": [
                {
                    "internalType": "string",
                    "name": "",
                    "type": "string"
                }
            ],
            "name": "address_per_login",
            "outputs": [
                {
                    "internalType": "address",
                    "name": "",
                    "type": "address"
                }
            ],
            "stateMutability": "view",
            "type": "function"
        },
        {
            "inputs": [
                {
                    "internalType": "address",
                    "name": "",
                    "type": "address"
                }
            ],
            "name": "admins",
            "outputs": [
                {
                    "internalType": "string",
                    "name": "login",
                    "type": "string"
                },
                {
                    "internalType": "string",
                    "name": "name",
                    "type": "string"
                }
            ],
            "stateMutability": "view",
            "type": "function"
        },
        {
            "inputs": [
                {
                    "internalType": "address",
                    "name": "_shop_address",
                    "type": "address"
                },
                {
                    "internalType": "uint256",
                    "name": "value",
                    "type": "uint256"
                }
            ],
            "name": "ask_bank",
            "outputs": [],
            "stateMutability": "nonpayable",
            "type": "function"
        },
        {
            "inputs": [],
            "name": "ask_for_down",
            "outputs": [],
            "stateMutability": "nonpayable",
            "type": "function"
        },
        {
            "inputs": [
                {
                    "internalType": "address",
                    "name": "_shop_address",
                    "type": "address"
                }
            ],
            "name": "ask_for_up",
            "outputs": [],
            "stateMutability": "nonpayable",
            "type": "function"
        },
        {
            "inputs": [
                {
                    "internalType": "address",
                    "name": "",
                    "type": "address"
                }
            ],
            "name": "asks_bank",
            "outputs": [
                {
                    "internalType": "uint256",
                    "name": "",
                    "type": "uint256"
                }
            ],
            "stateMutability": "view",
            "type": "function"
        },
        {
            "inputs": [
                {
                    "internalType": "address",
                    "name": "",
                    "type": "address"
                }
            ],
            "name": "asks_for_down",
            "outputs": [
                {
                    "internalType": "address",
                    "name": "",
                    "type": "address"
                }
            ],
            "stateMutability": "view",
            "type": "function"
        },
        {
            "inputs": [
                {
                    "internalType": "address",
                    "name": "",
                    "type": "address"
                }
            ],
            "name": "asks_for_up",
            "outputs": [
                {
                    "internalType": "address",
                    "name": "",
                    "type": "address"
                }
            ],
            "stateMutability": "view",
            "type": "function"
        },
        {
            "inputs": [
                {
                    "internalType": "string",
                    "name": "_login",
                    "type": "string"
                },
                {
                    "internalType": "string",
                    "name": "_password",
                    "type": "string"
                }
            ],
            "name": "check_auth_data",
            "outputs": [
                {
                    "internalType": "bool",
                    "name": "",
                    "type": "bool"
                }
            ],
            "stateMutability": "view",
            "type": "function"
        },
        {
            "inputs": [
                {
                    "internalType": "address",
                    "name": "_shop_address",
                    "type": "address"
                },
                {
                    "internalType": "string",
                    "name": "_message",
                    "type": "string"
                },
                {
                    "internalType": "uint8",
                    "name": "_rate",
                    "type": "uint8"
                }
            ],
            "name": "comment_shop",
            "outputs": [],
            "stateMutability": "nonpayable",
            "type": "function"
        },
        {
            "inputs": [
                {
                    "internalType": "address",
                    "name": "",
                    "type": "address"
                },
                {
                    "internalType": "uint256",
                    "name": "",
                    "type": "uint256"
                }
            ],
            "name": "comments",
            "outputs": [
                {
                    "internalType": "address",
                    "name": "owner",
                    "type": "address"
                },
                {
                    "internalType": "string",
                    "name": "message",
                    "type": "string"
                },
                {
                    "internalType": "uint8",
                    "name": "rate",
                    "type": "uint8"
                },
                {
                    "internalType": "uint128",
                    "name": "likes",
                    "type": "uint128"
                },
                {
                    "internalType": "uint128",
                    "name": "dislikes",
                    "type": "uint128"
                }
            ],
            "stateMutability": "view",
            "type": "function"
        },
        {
            "inputs": [
                {
                    "internalType": "string",
                    "name": "_bank_name",
                    "type": "string"
                },
                {
                    "internalType": "address",
                    "name": "_bank_address",
                    "type": "address"
                },
                {
                    "internalType": "string",
                    "name": "_password",
                    "type": "string"
                }
            ],
            "name": "create_bank_account",
            "outputs": [],
            "stateMutability": "nonpayable",
            "type": "function"
        },
        {
            "inputs": [
                {
                    "internalType": "address",
                    "name": "",
                    "type": "address"
                }
            ],
            "name": "customers",
            "outputs": [
                {
                    "internalType": "string",
                    "name": "login",
                    "type": "string"
                },
                {
                    "internalType": "string",
                    "name": "name",
                    "type": "string"
                }
            ],
            "stateMutability": "view",
            "type": "function"
        },
        {
            "inputs": [
                {
                    "internalType": "address",
                    "name": "_shop_address",
                    "type": "address"
                }
            ],
            "name": "delete_shop",
            "outputs": [],
            "stateMutability": "nonpayable",
            "type": "function"
        },
        {
            "inputs": [
                {
                    "internalType": "address",
                    "name": "_seller_address",
                    "type": "address"
                }
            ],
            "name": "down_role",
            "outputs": [],
            "stateMutability": "nonpayable",
            "type": "function"
        },
        {
            "inputs": [
                {
                    "internalType": "address",
                    "name": "_admin_address",
                    "type": "address"
                }
            ],
            "name": "get_admin",
            "outputs": [
                {
                    "components": [
                        {
                            "internalType": "string",
                            "name": "login",
                            "type": "string"
                        },
                        {
                            "internalType": "string",
                            "name": "name",
                            "type": "string"
                        }
                    ],
                    "internalType": "struct Accounts.Admin",
                    "name": "",
                    "type": "tuple"
                }
            ],
            "stateMutability": "view",
            "type": "function"
        },
        {
            "inputs": [
                {
                    "internalType": "address",
                    "name": "_shop_address",
                    "type": "address"
                }
            ],
            "name": "get_ask_bank",
            "outputs": [
                {
                    "internalType": "uint256",
                    "name": "",
                    "type": "uint256"
                }
            ],
            "stateMutability": "view",
            "type": "function"
        },
        {
            "inputs": [
                {
                    "internalType": "address",
                    "name": "_customer_address",
                    "type": "address"
                }
            ],
            "name": "get_ask_for_down",
            "outputs": [
                {
                    "internalType": "address",
                    "name": "",
                    "type": "address"
                }
            ],
            "stateMutability": "view",
            "type": "function"
        },
        {
            "inputs": [
                {
                    "internalType": "address",
                    "name": "_customer_address",
                    "type": "address"
                }
            ],
            "name": "get_ask_for_up",
            "outputs": [
                {
                    "internalType": "address",
                    "name": "",
                    "type": "address"
                }
            ],
            "stateMutability": "view",
            "type": "function"
        },
        {
            "inputs": [
                {
                    "internalType": "address",
                    "name": "_shop_address",
                    "type": "address"
                },
                {
                    "internalType": "uint256",
                    "name": "_index",
                    "type": "uint256"
                }
            ],
            "name": "get_comment",
            "outputs": [
                {
                    "components": [
                        {
                            "internalType": "address",
                            "name": "owner",
                            "type": "address"
                        },
                        {
                            "internalType": "string",
                            "name": "message",
                            "type": "string"
                        },
                        {
                            "internalType": "uint8",
                            "name": "rate",
                            "type": "uint8"
                        },
                        {
                            "internalType": "uint128",
                            "name": "likes",
                            "type": "uint128"
                        },
                        {
                            "internalType": "uint128",
                            "name": "dislikes",
                            "type": "uint128"
                        }
                    ],
                    "internalType": "struct ReviewBook.Comment",
                    "name": "",
                    "type": "tuple"
                }
            ],
            "stateMutability": "view",
            "type": "function"
        },
        {
            "inputs": [
                {
                    "internalType": "address",
                    "name": "_customer_address",
                    "type": "address"
                }
            ],
            "name": "get_customer",
            "outputs": [
                {
                    "components": [
                        {
                            "internalType": "string",
                            "name": "login",
                            "type": "string"
                        },
                        {
                            "internalType": "string",
                            "name": "name",
                            "type": "string"
                        }
                    ],
                    "internalType": "struct Accounts.Customer",
                    "name": "",
                    "type": "tuple"
                }
            ],
            "stateMutability": "view",
            "type": "function"
        },
        {
            "inputs": [
                {
                    "internalType": "address",
                    "name": "_shop_address",
                    "type": "address"
                }
            ],
            "name": "get_debt",
            "outputs": [
                {
                    "internalType": "uint256",
                    "name": "",
                    "type": "uint256"
                }
            ],
            "stateMutability": "view",
            "type": "function"
        },
        {
            "inputs": [
                {
                    "internalType": "address",
                    "name": "_shop_address",
                    "type": "address"
                },
                {
                    "internalType": "uint256",
                    "name": "_index",
                    "type": "uint256"
                }
            ],
            "name": "get_reply",
            "outputs": [
                {
                    "components": [
                        {
                            "internalType": "address",
                            "name": "owner",
                            "type": "address"
                        },
                        {
                            "internalType": "uint256",
                            "name": "comment_id",
                            "type": "uint256"
                        },
                        {
                            "internalType": "string",
                            "name": "message",
                            "type": "string"
                        },
                        {
                            "internalType": "uint8",
                            "name": "rate",
                            "type": "uint8"
                        },
                        {
                            "internalType": "uint128",
                            "name": "likes",
                            "type": "uint128"
                        },
                        {
                            "internalType": "uint128",
                            "name": "dislikes",
                            "type": "uint128"
                        }
                    ],
                    "internalType": "struct ReviewBook.Reply",
                    "name": "",
                    "type": "tuple"
                }
            ],
            "stateMutability": "view",
            "type": "function"
        },
        {
            "inputs": [
                {
                    "internalType": "address",
                    "name": "_user_address",
                    "type": "address"
                }
            ],
            "name": "get_role",
            "outputs": [
                {
                    "internalType": "string",
                    "name": "",
                    "type": "string"
                }
            ],
            "stateMutability": "view",
            "type": "function"
        },
        {
            "inputs": [
                {
                    "internalType": "address",
                    "name": "_shop_address",
                    "type": "address"
                }
            ],
            "name": "get_shop",
            "outputs": [
                {
                    "components": [
                        {
                            "internalType": "string",
                            "name": "name",
                            "type": "string"
                        },
                        {
                            "internalType": "string",
                            "name": "city",
                            "type": "string"
                        },
                        {
                            "internalType": "address[]",
                            "name": "shop_sellers",
                            "type": "address[]"
                        },
                        {
                            "internalType": "uint16",
                            "name": "rate",
                            "type": "uint16"
                        },
                        {
                            "internalType": "uint256",
                            "name": "using_reviews",
                            "type": "uint256"
                        }
                    ],
                    "internalType": "struct Accounts.Shop",
                    "name": "",
                    "type": "tuple"
                }
            ],
            "stateMutability": "view",
            "type": "function"
        },
        {
            "inputs": [],
            "name": "get_users",
            "outputs": [
                {
                    "internalType": "address[]",
                    "name": "",
                    "type": "address[]"
                }
            ],
            "stateMutability": "view",
            "type": "function"
        },
        {
            "inputs": [
                {
                    "internalType": "address",
                    "name": "",
                    "type": "address"
                }
            ],
            "name": "providers",
            "outputs": [
                {
                    "internalType": "string",
                    "name": "name",
                    "type": "string"
                }
            ],
            "stateMutability": "view",
            "type": "function"
        },
        {
            "inputs": [
                {
                    "internalType": "address",
                    "name": "_shop_address",
                    "type": "address"
                },
                {
                    "internalType": "string",
                    "name": "_message",
                    "type": "string"
                },
                {
                    "internalType": "uint8",
                    "name": "_rate",
                    "type": "uint8"
                },
                {
                    "internalType": "uint256",
                    "name": "_comment_id",
                    "type": "uint256"
                }
            ],
            "name": "reply_on_comment",
            "outputs": [],
            "stateMutability": "nonpayable",
            "type": "function"
        },
        {
            "inputs": [
                {
                    "internalType": "address",
                    "name": "_shop_address",
                    "type": "address"
                },
                {
                    "internalType": "string",
                    "name": "_message",
                    "type": "string"
                },
                {
                    "internalType": "uint256",
                    "name": "_comment_id",
                    "type": "uint256"
                }
            ],
            "name": "reply_on_comment_by_shop",
            "outputs": [],
            "stateMutability": "nonpayable",
            "type": "function"
        },
        {
            "inputs": [
                {
                    "internalType": "address",
                    "name": "",
                    "type": "address"
                },
                {
                    "internalType": "uint256",
                    "name": "",
                    "type": "uint256"
                }
            ],
            "name": "replyes",
            "outputs": [
                {
                    "internalType": "address",
                    "name": "owner",
                    "type": "address"
                },
                {
                    "internalType": "uint256",
                    "name": "comment_id",
                    "type": "uint256"
                },
                {
                    "internalType": "string",
                    "name": "message",
                    "type": "string"
                },
                {
                    "internalType": "uint8",
                    "name": "rate",
                    "type": "uint8"
                },
                {
                    "internalType": "uint128",
                    "name": "likes",
                    "type": "uint128"
                },
                {
                    "internalType": "uint128",
                    "name": "dislikes",
                    "type": "uint128"
                }
            ],
            "stateMutability": "view",
            "type": "function"
        },
        {
            "inputs": [
                {
                    "internalType": "address",
                    "name": "",
                    "type": "address"
                }
            ],
            "name": "role_per_address",
            "outputs": [
                {
                    "internalType": "enum Accounts.Role",
                    "name": "",
                    "type": "uint8"
                }
            ],
            "stateMutability": "view",
            "type": "function"
        },
        {
            "inputs": [
                {
                    "internalType": "address",
                    "name": "",
                    "type": "address"
                }
            ],
            "name": "sellers",
            "outputs": [
                {
                    "internalType": "string",
                    "name": "login",
                    "type": "string"
                },
                {
                    "internalType": "string",
                    "name": "name",
                    "type": "string"
                },
                {
                    "internalType": "string",
                    "name": "city",
                    "type": "string"
                },
                {
                    "internalType": "address",
                    "name": "shop_address",
                    "type": "address"
                }
            ],
            "stateMutability": "view",
            "type": "function"
        },
        {
            "inputs": [
                {
                    "internalType": "address",
                    "name": "_shop_address",
                    "type": "address"
                }
            ],
            "name": "send_money",
            "outputs": [],
            "stateMutability": "payable",
            "type": "function"
        },
        {
            "inputs": [
                {
                    "internalType": "address",
                    "name": "",
                    "type": "address"
                }
            ],
            "name": "shops",
            "outputs": [
                {
                    "internalType": "string",
                    "name": "name",
                    "type": "string"
                },
                {
                    "internalType": "string",
                    "name": "city",
                    "type": "string"
                },
                {
                    "internalType": "uint16",
                    "name": "rate",
                    "type": "uint16"
                },
                {
                    "internalType": "uint256",
                    "name": "using_reviews",
                    "type": "uint256"
                }
            ],
            "stateMutability": "view",
            "type": "function"
        },
        {
            "inputs": [
                {
                    "internalType": "address",
                    "name": "_customer_address",
                    "type": "address"
                }
            ],
            "name": "up_role",
            "outputs": [],
            "stateMutability": "nonpayable",
            "type": "function"
        },
        {
            "inputs": [
                {
                    "internalType": "uint256",
                    "name": "",
                    "type": "uint256"
                }
            ],
            "name": "users",
            "outputs": [
                {
                    "internalType": "address",
                    "name": "",
                    "type": "address"
                }
            ],
            "stateMutability": "view",
            "type": "function"
        }
    ],
    "bytecode": "608060405234801561001057600080fd5b50613475806100206000396000f3fe6080604052600436106102305760003560e01c806344a373d71161012e57806396888ea0116100ab578063c341cc211161006f578063c341cc2114610850578063dea1f0dc14610870578063e324093b146108a9578063ed66aa1b146108df578063f14c316a1461090157600080fd5b806396888ea014610754578063b3b2baae14610784578063b4ab8fdf146107c5578063bacefcb8146107f7578063bf7cb88c1461081757600080fd5b806356f11e03116100f257806356f11e031461064c5780636d47ab721461066c5780636e70641f1461069c57806378232aac146106c9578063831454db1461071757600080fd5b806344a373d71461057c57806344a7361a146105a95780634559c60e146105d65780634c2c79dc146106035780635433ee091461061657600080fd5b80632c6730cc116101bc578063365b98b211610180578063365b98b2146104c457806339c22db8146104fc5780633cdce7dd1461051c57806341550d211461053c578063429b62e51461055c57600080fd5b80632c6730cc146103e25780632dca1fcc1461040f5780632e2f14ab1461043f578063336989ae1461045f5780633417b8191461048d57600080fd5b806313a070b71161020357806313a070b71461030257806316e9326c1461032257806321002e1914610342578063214f61d314610378578063253583c4146103c257600080fd5b8063052bbde9146102355780630787bc27146102575780630c4174b71461028d5780630ce64997146102be575b600080fd5b34801561024157600080fd5b50610255610250366004612b04565b610921565b005b34801561026357600080fd5b50610277610272366004612b7c565b6109da565b6040516102849190612bfc565b60405180910390f35b34801561029957600080fd5b506102ad6102a8366004612c0f565b610a78565b604051610284959493929190612c3b565b3480156102ca57600080fd5b506102f46102d9366004612b7c565b6001600160a01b031660009081526006602052604090205490565b604051908152602001610284565b34801561030e57600080fd5b5061025561031d366004612b7c565b610b6b565b34801561032e57600080fd5b5061025561033d366004612c89565b610d42565b34801561034e57600080fd5b506102f461035d366004612b7c565b6001600160a01b031660009081526009602052604090205490565b34801561038457600080fd5b50610255610393366004612b7c565b33600090815260046020526040902080546001600160a01b0319166001600160a01b0392909216919091179055565b3480156103ce57600080fd5b506102556103dd366004612ce2565b610e57565b3480156103ee57600080fd5b506104026103fd366004612c0f565b610ff2565b6040516102849190612d7d565b34801561041b57600080fd5b5061042f61042a366004612b7c565b611140565b6040516102849493929190612de7565b34801561044b57600080fd5b5061025561045a366004612e24565b61127d565b34801561046b57600080fd5b5061047f61047a366004612b7c565b6113ac565b604051610284929190612e95565b34801561049957600080fd5b506102556104a8366004612c0f565b6001600160a01b03909116600090815260066020526040902055565b3480156104d057600080fd5b506104e46104df366004612ec3565b6114d8565b6040516001600160a01b039091168152602001610284565b34801561050857600080fd5b50610277610517366004612b7c565b611502565b34801561052857600080fd5b50610255610537366004612b7c565b6116b8565b34801561054857600080fd5b50610255610557366004612ef2565b61182b565b34801561056857600080fd5b5061047f610577366004612b7c565b611970565b34801561058857600080fd5b506102f4610597366004612b7c565b60066020526000908152604090205481565b3480156105b557600080fd5b506105c96105c4366004612b7c565b61198b565b6040516102849190612f9e565b3480156105e257600080fd5b506105f66105f1366004612b7c565b611b88565b6040516102849190613049565b610255610611366004612b7c565b611ce8565b34801561062257600080fd5b506104e4610631366004612b7c565b6005602052600090815260409020546001600160a01b031681565b34801561065857600080fd5b50610255610667366004612b7c565b611d47565b34801561067857600080fd5b5061068c610687366004612b7c565b611f02565b604051610284949392919061305c565b3480156106a857600080fd5b506106bc6106b7366004612c0f565b6120cb565b60405161028491906130af565b3480156106d557600080fd5b50610255336000908152600c6020908152604080832060030154600590925290912080546001600160a01b0319166001600160a01b0392909216919091179055565b34801561072357600080fd5b50610747610732366004612b7c565b60016020526000908152604090205460ff1681565b6040516102849190613139565b34801561076057600080fd5b5061077461076f366004613161565b61223f565b6040519015158152602001610284565b34801561079057600080fd5b506104e461079f3660046131c5565b80516020818301810180516003825292820191909301209152546001600160a01b031681565b3480156107d157600080fd5b506107e56107e0366004612c0f565b612290565b60405161028496959493929190613202565b34801561080357600080fd5b50610255610812366004613254565b612389565b34801561082357600080fd5b506104e4610832366004612b7c565b6001600160a01b039081166000908152600460205260409020541690565b34801561085c57600080fd5b506105f661086b366004612b7c565b6124c5565b34801561087c57600080fd5b506104e461088b366004612b7c565b6001600160a01b039081166000908152600560205260409020541690565b3480156108b557600080fd5b506104e46108c4366004612b7c565b6004602052600090815260409020546001600160a01b031681565b3480156108eb57600080fd5b506108f461250a565b60405161028491906132b4565b34801561090d57600080fd5b5061025561091c366004612b7c565b61256c565b604080518082019091528381526001600160a01b0383166020808301919091528451600791610954918391880190612907565b50602091820151600191820180546001600160a01b0319166001600160a01b0392831617905584166000908152908252604090819020805460ff191690555161099f91839101612bfc565b604051602081830303815290604052805190602001206002846040516109c591906132c7565b90815260405190819003602001902055505050565b600b602052600090815260409020805481906109f5906132e3565b80601f0160208091040260200160405190810160405280929190818152602001828054610a21906132e3565b8015610a6e5780601f10610a4357610100808354040283529160200191610a6e565b820191906000526020600020905b815481529060010190602001808311610a5157829003601f168201915b5050505050905081565b600f6020528160005260406000208181548110610a9457600080fd5b6000918252602090912060049091020180546001820180546001600160a01b039092169450919250610ac5906132e3565b80601f0160208091040260200160405190810160405280929190818152602001828054610af1906132e3565b8015610b3e5780601f10610b1357610100808354040283529160200191610b3e565b820191906000526020600020905b815481529060010190602001808311610b2157829003601f168201915b5050506002840154600390940154929360ff8116936001600160801b036101009092048216935016905085565b6040805180820182526001600160a01b0383166000908152600d602052919091208054829190610b9a906132e3565b80601f0160208091040260200160405190810160405280929190818152602001828054610bc6906132e3565b8015610c135780601f10610be857610100808354040283529160200191610c13565b820191906000526020600020905b815481529060010190602001808311610bf657829003601f168201915b50505050508152602001600d6000846001600160a01b03166001600160a01b031681526020019081526020016000206001018054610c50906132e3565b80601f0160208091040260200160405190810160405280929190818152602001828054610c7c906132e3565b8015610cc95780601f10610c9e57610100808354040283529160200191610cc9565b820191906000526020600020905b815481529060010190602001808311610cac57829003601f168201915b5050509190925250506001600160a01b0382166000908152600e60209081526040909120825180519192610d0292849290910190612907565b506020828101518051610d1b9260018501920190612907565b5050506001600160a01b03166000908152600160205260409020805460ff19166005179055565b336000908152600c60205260409020600301546001600160a01b03848116911614610d6c57600080fd5b6001600160a01b038381166000908152601060209081526040808320815160c081018352338152808401878152928101888152606082018690526080820186905260a0820186905282546001808201855593875295859020825160059097020180546001600160a01b0319169690971695909517865591519085015591518051929392610dff9260028501920190612907565b506060820151600382018054608085015160ff9093166001600160881b0319909116176101006001600160801b039384160217905560a090920151600490910180546001600160801b03191691909216179055505050565b610e8d6040518060a00160405280606081526020016060815260200160608152602001600061ffff168152602001600081525090565b8381526020808201849052600060608301819052608083018190526001600160a01b0387168152600a825260409020825180518493610ed0928492910190612907565b506020828101518051610ee99260018501920190612907565b5060408201518051610f0591600284019160209091019061298b565b50606082015160038201805461ffff191661ffff9092169190911790556080909101516004909101556001600160a01b0385166000908152600160208190526040909120805460ff19168280021790555081604051602001610f679190612bfc565b60405160208183030381529060405280519060200120600285604051610f8d91906132c7565b908152604051908190036020019020555050600080546001810182559080527f290decd9548b62a8d60345a988386fc84ba6bc95484008f6362f93160ef3e5630180546001600160a01b039094166001600160a01b0319909416939093179092555050565b6040805160a081018252600080825260606020808401829052838501839052908301829052608083018290526001600160a01b0386168252600f9052919091208054839081106110445761104461331e565b60009182526020918290206040805160a0810190915260049092020180546001600160a01b031682526001810180549293919291840191611084906132e3565b80601f01602080910402602001604051908101604052809291908181526020018280546110b0906132e3565b80156110fd5780601f106110d2576101008083540402835291602001916110fd565b820191906000526020600020905b8154815290600101906020018083116110e057829003601f168201915b5050509183525050600282015460ff811660208301526001600160801b036101009091048116604083015260039092015490911660609091015290505b92915050565b600a6020526000908152604090208054819061115b906132e3565b80601f0160208091040260200160405190810160405280929190818152602001828054611187906132e3565b80156111d45780601f106111a9576101008083540402835291602001916111d4565b820191906000526020600020905b8154815290600101906020018083116111b757829003601f168201915b5050505050908060010180546111e9906132e3565b80601f0160208091040260200160405190810160405280929190818152602001828054611215906132e3565b80156112625780601f1061123757610100808354040283529160200191611262565b820191906000526020600020905b81548152906001019060200180831161124557829003601f168201915b505050506003830154600490930154919261ffff1691905084565b6040805180820182528481526020808201859052336000908152600d82529290922081518051929391926112b49284920190612907565b5060208281015180516112cd9260018501920190612907565b50506040516112e191508290602001612bfc565b6040516020818303038152906040528051906020012060028460405161130791906132c7565b9081526040805191829003602090810183209390935533600081815260019094529220805460ff191660041790556003906113439086906132c7565b90815260405190819003602001902080546001600160a01b03929092166001600160a01b0319928316179055600080546001810182559080527f290decd9548b62a8d60345a988386fc84ba6bc95484008f6362f93160ef3e56301805490911633179055505050565b600d602052600090815260409020805481906113c7906132e3565b80601f01602080910402602001604051908101604052809291908181526020018280546113f3906132e3565b80156114405780601f1061141557610100808354040283529160200191611440565b820191906000526020600020905b81548152906001019060200180831161142357829003601f168201915b505050505090806001018054611455906132e3565b80601f0160208091040260200160405190810160405280929190818152602001828054611481906132e3565b80156114ce5780601f106114a3576101008083540402835291602001916114ce565b820191906000526020600020905b8154815290600101906020018083116114b157829003601f168201915b5050505050905082565b600081815481106114e857600080fd5b6000918252602090912001546001600160a01b0316905081565b6001600160a01b03811660009081526001602052604081205460609160ff9091169081600681111561153657611536613123565b141561155e57505060408051808201909152600481526362616e6b60e01b6020820152919050565b600181600681111561157257611572613123565b141561159a575050604080518082019091526004815263073686f760e41b6020820152919050565b60028160068111156115ae576115ae613123565b14156115da575050604080518082019091526008815267383937bb34b232b960c11b6020820152919050565b60038160068111156115ee576115ee613123565b141561161857505060408051808201909152600681526539b2b63632b960d11b6020820152919050565b600481600681111561162c5761162c613123565b141561165857505060408051808201909152600881526731bab9ba37b6b2b960c11b6020820152919050565b600581600681111561166c5761166c613123565b141561169557505060408051808201909152600581526430b236b4b760d91b6020820152919050565b505060408051808201909152600581526419dd595cdd60da1b6020820152919050565b6001600160a01b0380821660009081526005602052604081205490916116df911683612887565b6001600160a01b038381166000818152600560209081526040808320549094168252600a81528382209282526001905291909120805460ff191660041790556002018054919250908190839081106117395761173961331e565b600091825260209091200180546001600160a01b0319169055805481906117629060019061334a565b815481106117725761177261331e565b9060005260206000200160009054906101000a90046001600160a01b03168183815481106117a2576117a261331e565b600091825260209091200180546001600160a01b0319166001600160a01b0392909216919091179055805481906117db9060019061334a565b815481106117eb576117eb61331e565b6000918252602080832090910180546001600160a01b03199081169091556001600160a01b03959095168252600590526040902080549093169092555050565b60033360009081526001602052604090205460ff16600681111561185157611851613123565b141561188257336000908152600c60205260409020600301546001600160a01b038581169116141561188257600080fd5b6001600160a01b038481166000908152601060209081526040808320815160c08101835233815280840187815292810189815260ff891660608301526080820186905260a0820186905282546001808201855593875295859020825160059097020180546001600160a01b03191696909716959095178655915190850155915180519293926119179260028501920190612907565b506060820151600382018054608085015160ff9093166001600160881b0319909116176101006001600160801b039384160217905560a090920151600490910180546001600160801b0319169190921617905550505050565b600e602052600090815260409020805481906113c7906132e3565b6119c16040518060a00160405280606081526020016060815260200160608152602001600061ffff168152602001600081525090565b6001600160a01b0382166000908152600a602052604090819020815160a081019092528054829082906119f3906132e3565b80601f0160208091040260200160405190810160405280929190818152602001828054611a1f906132e3565b8015611a6c5780601f10611a4157610100808354040283529160200191611a6c565b820191906000526020600020905b815481529060010190602001808311611a4f57829003601f168201915b50505050508152602001600182018054611a85906132e3565b80601f0160208091040260200160405190810160405280929190818152602001828054611ab1906132e3565b8015611afe5780601f10611ad357610100808354040283529160200191611afe565b820191906000526020600020905b815481529060010190602001808311611ae157829003601f168201915b5050505050815260200160028201805480602002602001604051908101604052809291908181526020018280548015611b6057602002820191906000526020600020905b81546001600160a01b03168152600190910190602001808311611b42575b5050509183525050600382015461ffff16602082015260049091015460409091015292915050565b60408051808201909152606080825260208201526001600160a01b0382166000908152600e6020526040908190208151808301909252805482908290611bcd906132e3565b80601f0160208091040260200160405190810160405280929190818152602001828054611bf9906132e3565b8015611c465780601f10611c1b57610100808354040283529160200191611c46565b820191906000526020600020905b815481529060010190602001808311611c2957829003601f168201915b50505050508152602001600182018054611c5f906132e3565b80601f0160208091040260200160405190810160405280929190818152602001828054611c8b906132e3565b8015611cd85780601f10611cad57610100808354040283529160200191611cd8565b820191906000526020600020905b815481529060010190602001808311611cbb57829003601f168201915b5050505050815250509050919050565b6001600160a01b0381166000818152600960205260408082203490819055905181156108fc0292818181858888f19350505050158015611d2c573d6000803e3d6000fd5b506001600160a01b0316600090815260066020526040812055565b6001600160a01b0381166000908152600a60205260408120905b60028201546001600160801b0382161015611dc357611db182600201826001600160801b031681548110611d9757611d9761331e565b6000918252602090912001546001600160a01b03166116b8565b80611dbb81613361565b915050611d61565b50604051600290611dd5908390613388565b90815260408051602092819003830190206000908190556001600160a01b038516815260019092528120805460ff191690555b6000546001600160801b0382161015611ea857826001600160a01b03166000826001600160801b031681548110611e4157611e4161331e565b6000918252602090912001546001600160a01b03161415611e96576000816001600160801b031681548110611e7857611e7861331e565b600091825260209091200180546001600160a01b0319169055611ea8565b80611ea081613361565b915050611e08565b506001600160a01b0382166000908152600a6020526040812090611ecc82826129e0565b611eda6001830160006129e0565b611ee8600283016000612a1d565b5060038101805461ffff1916905560006004909101555050565b600c60205260009081526040902080548190611f1d906132e3565b80601f0160208091040260200160405190810160405280929190818152602001828054611f49906132e3565b8015611f965780601f10611f6b57610100808354040283529160200191611f96565b820191906000526020600020905b815481529060010190602001808311611f7957829003601f168201915b505050505090806001018054611fab906132e3565b80601f0160208091040260200160405190810160405280929190818152602001828054611fd7906132e3565b80156120245780601f10611ff957610100808354040283529160200191612024565b820191906000526020600020905b81548152906001019060200180831161200757829003601f168201915b505050505090806002018054612039906132e3565b80601f0160208091040260200160405190810160405280929190818152602001828054612065906132e3565b80156120b25780601f10612087576101008083540402835291602001916120b2565b820191906000526020600020905b81548152906001019060200180831161209557829003601f168201915b505050600390930154919250506001600160a01b031684565b6040805160c08101825260008082526020808301829052606083850181905283018290526080830182905260a083018290526001600160a01b038616825260109052919091208054839081106121235761212361331e565b90600052602060002090600502016040518060c00160405290816000820160009054906101000a90046001600160a01b03166001600160a01b03166001600160a01b0316815260200160018201548152602001600282018054612185906132e3565b80601f01602080910402602001604051908101604052809291908181526020018280546121b1906132e3565b80156121fe5780601f106121d3576101008083540402835291602001916121fe565b820191906000526020600020905b8154815290600101906020018083116121e157829003601f168201915b5050509183525050600382015460ff8116602083015261010090046001600160801b0390811660408301526004909201549091166060909101529392505050565b6000816040516020016122529190612bfc565b6040516020818303038152906040528051906020012060028460405161227891906132c7565b90815260200160405180910390205414905092915050565b601060205281600052604060002081815481106122ac57600080fd5b60009182526020909120600590910201805460018201546002830180546001600160a01b039093169550909350906122e3906132e3565b80601f016020809104026020016040519081016040528092919081815260200182805461230f906132e3565b801561235c5780601f106123315761010080835404028352916020019161235c565b820191906000526020600020905b81548152906001019060200180831161233f57829003601f168201915b5050506003840154600490940154929360ff8116936001600160801b036101009092048216935016905086565b60033360009081526001602052604090205460ff1660068111156123af576123af613123565b14156123e057336000908152600c60205260409020600301546001600160a01b03848116911614156123e057600080fd5b6001600160a01b038381166000908152600f60209081526040808320815160a08101835233815280840188815260ff881693820193909352606081018590526080810185905281546001808201845592865294849020815160049096020180546001600160a01b031916959096169490941785559051805193949361246d93928501929190910190612907565b506040820151600282018054606085015160ff9093166001600160881b0319909116176101006001600160801b0393841602179055608090920151600390910180546001600160801b03191691909216179055505050565b60408051808201909152606080825260208201526001600160a01b0382166000908152600d6020526040908190208151808301909252805482908290611bcd906132e3565b6060600080548060200260200160405190810160405280929190818152602001828054801561256257602002820191906000526020600020905b81546001600160a01b03168152600190910190602001808311612544575b5050505050905090565b6001600160a01b038082166000908152600460209081526040808320548151608081018352600d90935292208054929093169290918291906125ad906132e3565b80601f01602080910402602001604051908101604052809291908181526020018280546125d9906132e3565b80156126265780601f106125fb57610100808354040283529160200191612626565b820191906000526020600020905b81548152906001019060200180831161260957829003601f168201915b50505050508152602001600d6000856001600160a01b03166001600160a01b031681526020019081526020016000206001018054612663906132e3565b80601f016020809104026020016040519081016040528092919081815260200182805461268f906132e3565b80156126dc5780601f106126b1576101008083540402835291602001916126dc565b820191906000526020600020905b8154815290600101906020018083116126bf57829003601f168201915b50505050508152602001600a6000846001600160a01b03166001600160a01b031681526020019081526020016000206001018054612719906132e3565b80601f0160208091040260200160405190810160405280929190818152602001828054612745906132e3565b80156127925780601f1061276757610100808354040283529160200191612792565b820191906000526020600020905b81548152906001019060200180831161277557829003601f168201915b50505091835250506001600160a01b0380841660209283015284166000908152600c8252604090208251805191926127cf92849290910190612907565b5060208281015180516127e89260018501920190612907565b5060408201518051612804916002840191602090910190612907565b5060609190910151600391820180546001600160a01b039283166001600160a01b0319918216179091559381166000818152600160208181526040808420805460ff1916909717909655959093168152600a8552838120600201805493840181558152848120909201805486168217905581526004909252902080549091169055565b6001600160a01b0382166000908152600a60205260408120600201815b81548110156128ff57836001600160a01b03168282815481106128c9576128c961331e565b6000918252602090912001546001600160a01b031614156128ed57915061113a9050565b806128f781613424565b9150506128a4565b505092915050565b828054612913906132e3565b90600052602060002090601f016020900481019282612935576000855561297b565b82601f1061294e57805160ff191683800117855561297b565b8280016001018555821561297b579182015b8281111561297b578251825591602001919060010190612960565b50612987929150612a37565b5090565b82805482825590600052602060002090810192821561297b579160200282015b8281111561297b57825182546001600160a01b0319166001600160a01b039091161782556020909201916001909101906129ab565b5080546129ec906132e3565b6000825580601f106129fc575050565b601f016020900490600052602060002090810190612a1a9190612a37565b50565b5080546000825590600052602060002090810190612a1a91905b5b808211156129875760008155600101612a38565b634e487b7160e01b600052604160045260246000fd5b600082601f830112612a7357600080fd5b813567ffffffffffffffff80821115612a8e57612a8e612a4c565b604051601f8301601f19908116603f01168101908282118183101715612ab657612ab6612a4c565b81604052838152866020858801011115612acf57600080fd5b836020870160208301376000602085830101528094505050505092915050565b6001600160a01b0381168114612a1a57600080fd5b600080600060608486031215612b1957600080fd5b833567ffffffffffffffff80821115612b3157600080fd5b612b3d87838801612a62565b945060208601359150612b4f82612aef565b90925060408501359080821115612b6557600080fd5b50612b7286828701612a62565b9150509250925092565b600060208284031215612b8e57600080fd5b8135612b9981612aef565b9392505050565b60005b83811015612bbb578181015183820152602001612ba3565b83811115612bca576000848401525b50505050565b60008151808452612be8816020860160208601612ba0565b601f01601f19169290920160200192915050565b602081526000612b996020830184612bd0565b60008060408385031215612c2257600080fd5b8235612c2d81612aef565b946020939093013593505050565b6001600160a01b038616815260a060208201819052600090612c5f90830187612bd0565b60ff959095166040830152506001600160801b039283166060820152911660809091015292915050565b600080600060608486031215612c9e57600080fd5b8335612ca981612aef565b9250602084013567ffffffffffffffff811115612cc557600080fd5b612cd186828701612a62565b925050604084013590509250925092565b60008060008060808587031215612cf857600080fd5b8435612d0381612aef565b9350602085013567ffffffffffffffff80821115612d2057600080fd5b612d2c88838901612a62565b94506040870135915080821115612d4257600080fd5b612d4e88838901612a62565b93506060870135915080821115612d6457600080fd5b50612d7187828801612a62565b91505092959194509250565b602080825282516001600160a01b03168282015282015160a06040830152600090612dab60c0840182612bd0565b905060ff604085015116606084015260608401516001600160801b0380821660808601528060808701511660a086015250508091505092915050565b608081526000612dfa6080830187612bd0565b8281036020840152612e0c8187612bd0565b61ffff95909516604084015250506060015292915050565b600080600060608486031215612e3957600080fd5b833567ffffffffffffffff80821115612e5157600080fd5b612e5d87838801612a62565b94506020860135915080821115612e7357600080fd5b612e7f87838801612a62565b93506040860135915080821115612b6557600080fd5b604081526000612ea86040830185612bd0565b8281036020840152612eba8185612bd0565b95945050505050565b600060208284031215612ed557600080fd5b5035919050565b803560ff81168114612eed57600080fd5b919050565b60008060008060808587031215612f0857600080fd5b8435612f1381612aef565b9350602085013567ffffffffffffffff811115612f2f57600080fd5b612f3b87828801612a62565b935050612f4a60408601612edc565b9396929550929360600135925050565b600081518084526020808501945080840160005b83811015612f935781516001600160a01b031687529582019590820190600101612f6e565b509495945050505050565b602081526000825160a06020840152612fba60c0840182612bd0565b90506020840151601f1980858403016040860152612fd88383612bd0565b9250604086015191508085840301606086015250612ff68282612f5a565b91505061ffff6060850151166080840152608084015160a08401528091505092915050565b60008151604084526130306040850182612bd0565b905060208301518482036020860152612eba8282612bd0565b602081526000612b99602083018461301b565b60808152600061306f6080830187612bd0565b82810360208401526130818187612bd0565b905082810360408401526130958186612bd0565b91505060018060a01b038316606083015295945050505050565b6020815260018060a01b038251166020820152602082015160408201526000604083015160c060608401526130e760e0840182612bd0565b905060ff606085015116608084015260808401516001600160801b0380821660a08601528060a08701511660c086015250508091505092915050565b634e487b7160e01b600052602160045260246000fd5b602081016007831061315b57634e487b7160e01b600052602160045260246000fd5b91905290565b6000806040838503121561317457600080fd5b823567ffffffffffffffff8082111561318c57600080fd5b61319886838701612a62565b935060208501359150808211156131ae57600080fd5b506131bb85828601612a62565b9150509250929050565b6000602082840312156131d757600080fd5b813567ffffffffffffffff8111156131ee57600080fd5b6131fa84828501612a62565b949350505050565b60018060a01b038716815285602082015260c06040820152600061322960c0830187612bd0565b60ff959095166060830152506001600160801b039283166080820152911660a0909101529392505050565b60008060006060848603121561326957600080fd5b833561327481612aef565b9250602084013567ffffffffffffffff81111561329057600080fd5b61329c86828701612a62565b9250506132ab60408501612edc565b90509250925092565b602081526000612b996020830184612f5a565b600082516132d9818460208701612ba0565b9190910192915050565b600181811c908216806132f757607f821691505b6020821081141561331857634e487b7160e01b600052602260045260246000fd5b50919050565b634e487b7160e01b600052603260045260246000fd5b634e487b7160e01b600052601160045260246000fd5b60008282101561335c5761335c613334565b500390565b60006001600160801b038083168181141561337e5761337e613334565b6001019392505050565b600080835481600182811c9150808316806133a457607f831692505b60208084108214156133c457634e487b7160e01b86526022600452602486fd5b8180156133d857600181146133e957613416565b60ff19861689528489019650613416565b60008a81526020902060005b8681101561340e5781548b8201529085019083016133f5565b505084890196505b509498975050505050505050565b600060001982141561343857613438613334565b506001019056fea26469706673582212202d387ddf87288dbe0dd68c6869c7a5b73edfcd2a8a5d1a8394b466ef91cf7e4c64736f6c63430008090033",
    "sourcePath": "/home/morimaroo17/work/blockchain_work/solidity_work/prepare/contracts/ReviewBook.sol",
    "compiler": {
        "name": "solc",
        "version": "0.8.9+commit.e5eed63a"
    },
    "functionHashes": {
        "add_admin(address)": "13a070b7",
        "add_customer(string,string,string)": "2e2f14ab",
        "add_shop(address,string,string,string)": "253583c4",
        "address_per_login(string)": "b3b2baae",
        "admins(address)": "429b62e5",
        "ask_bank(address,uint256)": "3417b819",
        "ask_for_down()": "78232aac",
        "ask_for_up(address)": "214f61d3",
        "asks_bank(address)": "44a373d7",
        "asks_for_down(address)": "5433ee09",
        "asks_for_up(address)": "e324093b",
        "check_auth_data(string,string)": "96888ea0",
        "comment_shop(address,string,uint8)": "bacefcb8",
        "comments(address,uint256)": "0c4174b7",
        "create_bank_account(string,address,string)": "052bbde9",
        "customers(address)": "336989ae",
        "delete_shop(address)": "56f11e03",
        "down_role(address)": "3cdce7dd",
        "get_admin(address)": "4559c60e",
        "get_ask_bank(address)": "0ce64997",
        "get_ask_for_down(address)": "dea1f0dc",
        "get_ask_for_up(address)": "bf7cb88c",
        "get_comment(address,uint256)": "2c6730cc",
        "get_customer(address)": "c341cc21",
        "get_debt(address)": "21002e19",
        "get_reply(address,uint256)": "6e70641f",
        "get_role(address)": "39c22db8",
        "get_shop(address)": "44a7361a",
        "get_users()": "ed66aa1b",
        "providers(address)": "0787bc27",
        "reply_on_comment(address,string,uint8,uint256)": "41550d21",
        "reply_on_comment_by_shop(address,string,uint256)": "16e9326c",
        "replyes(address,uint256)": "b4ab8fdf",
        "role_per_address(address)": "831454db",
        "sellers(address)": "6d47ab72",
        "send_money(address)": "4c2c79dc",
        "shops(address)": "2dca1fcc",
        "up_role(address)": "f14c316a",
        "users(uint256)": "365b98b2"
    },
    "gasEstimates": {
        "creation": {
            "codeDepositCost": "2685800",
            "executionCost": "2915",
            "totalCost": "2688715"
        },
        "external": {
            "add_admin(address)": "infinite",
            "add_customer(string,string,string)": "infinite",
            "add_shop(address,string,string,string)": "infinite",
            "address_per_login(string)": "infinite",
            "admins(address)": "infinite",
            "ask_bank(address,uint256)": "22632",
            "ask_for_down()": "26755",
            "ask_for_up(address)": "24733",
            "asks_bank(address)": "2559",
            "asks_for_down(address)": "2686",
            "asks_for_up(address)": "2640",
            "check_auth_data(string,string)": "infinite",
            "comment_shop(address,string,uint8)": "infinite",
            "comments(address,uint256)": "infinite",
            "create_bank_account(string,address,string)": "infinite",
            "customers(address)": "infinite",
            "delete_shop(address)": "infinite",
            "down_role(address)": "infinite",
            "get_admin(address)": "infinite",
            "get_ask_bank(address)": "2644",
            "get_ask_for_down(address)": "2627",
            "get_ask_for_up(address)": "2694",
            "get_comment(address,uint256)": "infinite",
            "get_customer(address)": "infinite",
            "get_debt(address)": "2621",
            "get_reply(address,uint256)": "infinite",
            "get_role(address)": "infinite",
            "get_shop(address)": "infinite",
            "get_users()": "infinite",
            "providers(address)": "infinite",
            "reply_on_comment(address,string,uint8,uint256)": "infinite",
            "reply_on_comment_by_shop(address,string,uint256)": "infinite",
            "replyes(address,uint256)": "infinite",
            "role_per_address(address)": "2699",
            "sellers(address)": "infinite",
            "send_money(address)": "infinite",
            "shops(address)": "infinite",
            "up_role(address)": "infinite",
            "users(uint256)": "4659"
        }
    }
}